{
  "contractName": "WineProduction",
  "abi": [
    {
      "inputs": [],
      "stateMutability": "nonpayable",
      "type": "constructor"
    },
    {
      "anonymous": false,
      "inputs": [
        {
          "indexed": false,
          "internalType": "uint256",
          "name": "id",
          "type": "uint256"
        },
        {
          "indexed": false,
          "internalType": "string",
          "name": "tipo",
          "type": "string"
        },
        {
          "indexed": false,
          "internalType": "address",
          "name": "produttore",
          "type": "address"
        }
      ],
      "name": "LottoCreato",
      "type": "event"
    },
    {
      "anonymous": false,
      "inputs": [
        {
          "indexed": false,
          "internalType": "address",
          "name": "utente",
          "type": "address"
        },
        {
          "indexed": false,
          "internalType": "string",
          "name": "ruolo",
          "type": "string"
        }
      ],
      "name": "RuoloAssegnato",
      "type": "event"
    },
    {
      "anonymous": false,
      "inputs": [
        {
          "indexed": false,
          "internalType": "uint256",
          "name": "id",
          "type": "uint256"
        },
        {
          "indexed": false,
          "internalType": "enum WineProduction.Stato",
          "name": "nuovoStato",
          "type": "uint8"
        }
      ],
      "name": "StatoAggiornato",
      "type": "event"
    },
    {
      "inputs": [],
      "name": "admin",
      "outputs": [
        {
          "internalType": "address",
          "name": "",
          "type": "address"
        }
      ],
      "stateMutability": "view",
      "type": "function",
      "constant": true
    },
    {
      "inputs": [
        {
          "internalType": "uint256",
          "name": "",
          "type": "uint256"
        }
      ],
      "name": "lotti",
      "outputs": [
        {
          "internalType": "uint256",
          "name": "id",
          "type": "uint256"
        },
        {
          "internalType": "string",
          "name": "tipo",
          "type": "string"
        },
        {
          "internalType": "enum WineProduction.Stato",
          "name": "stato",
          "type": "uint8"
        },
        {
          "internalType": "address",
          "name": "produttore",
          "type": "address"
        },
        {
          "internalType": "uint256",
          "name": "timestamp",
          "type": "uint256"
        }
      ],
      "stateMutability": "view",
      "type": "function",
      "constant": true
    },
    {
      "inputs": [],
      "name": "nextId",
      "outputs": [
        {
          "internalType": "uint256",
          "name": "",
          "type": "uint256"
        }
      ],
      "stateMutability": "view",
      "type": "function",
      "constant": true
    },
    {
      "inputs": [
        {
          "internalType": "address",
          "name": "",
          "type": "address"
        }
      ],
      "name": "ruoli",
      "outputs": [
        {
          "internalType": "string",
          "name": "",
          "type": "string"
        }
      ],
      "stateMutability": "view",
      "type": "function",
      "constant": true
    },
    {
      "inputs": [
        {
          "internalType": "address",
          "name": "_utente",
          "type": "address"
        },
        {
          "internalType": "string",
          "name": "_etichettaRuolo",
          "type": "string"
        }
      ],
      "name": "impostaRuolo",
      "outputs": [],
      "stateMutability": "nonpayable",
      "type": "function"
    },
    {
      "inputs": [
        {
          "internalType": "address",
          "name": "_utente",
          "type": "address"
        }
      ],
      "name": "getRuolo",
      "outputs": [
        {
          "internalType": "string",
          "name": "",
          "type": "string"
        }
      ],
      "stateMutability": "view",
      "type": "function",
      "constant": true
    },
    {
      "inputs": [
        {
          "internalType": "string",
          "name": "_tipo",
          "type": "string"
        }
      ],
      "name": "creaLotto",
      "outputs": [],
      "stateMutability": "nonpayable",
      "type": "function"
    },
    {
      "inputs": [
        {
          "internalType": "uint256",
          "name": "_index",
          "type": "uint256"
        }
      ],
      "name": "avanzaStato",
      "outputs": [],
      "stateMutability": "nonpayable",
      "type": "function"
    },
    {
      "inputs": [],
      "name": "getLotti",
      "outputs": [
        {
          "components": [
            {
              "internalType": "uint256",
              "name": "id",
              "type": "uint256"
            },
            {
              "internalType": "string",
              "name": "tipo",
              "type": "string"
            },
            {
              "internalType": "enum WineProduction.Stato",
              "name": "stato",
              "type": "uint8"
            },
            {
              "internalType": "address",
              "name": "produttore",
              "type": "address"
            },
            {
              "internalType": "uint256",
              "name": "timestamp",
              "type": "uint256"
            }
          ],
          "internalType": "struct WineProduction.Lotto[]",
          "name": "",
          "type": "tuple[]"
        }
      ],
      "stateMutability": "view",
      "type": "function",
      "constant": true
    }
  ],
  "bytecode": "0x6080604052600180553480156200001557600080fd5b5033600260006101000a81548173ffffffffffffffffffffffffffffffffffffffff021916908373ffffffffffffffffffffffffffffffffffffffff1602179055506040518060400160405280600581526020017f41444d494e000000000000000000000000000000000000000000000000000000815250600360003373ffffffffffffffffffffffffffffffffffffffff1673ffffffffffffffffffffffffffffffffffffffff1681526020019081526020016000209081620000da919062000393565b507e6479b2df71b846aa47e305ddb211a33cea4ef9f8fd014e5ca6d1bda37d764d336040516200010b919062000520565b60405180910390a162000552565b600081519050919050565b7f4e487b7100000000000000000000000000000000000000000000000000000000600052604160045260246000fd5b7f4e487b7100000000000000000000000000000000000000000000000000000000600052602260045260246000fd5b600060028204905060018216806200019b57607f821691505b602082108103620001b157620001b062000153565b5b50919050565b60008190508160005260206000209050919050565b60006020601f8301049050919050565b600082821b905092915050565b6000600883026200021b7fffffffffffffffffffffffffffffffffffffffffffffffffffffffffffffffff82620001dc565b620002278683620001dc565b95508019841693508086168417925050509392505050565b6000819050919050565b6000819050919050565b6000620002746200026e62000268846200023f565b62000249565b6200023f565b9050919050565b6000819050919050565b620002908362000253565b620002a86200029f826200027b565b848454620001e9565b825550505050565b600090565b620002bf620002b0565b620002cc81848462000285565b505050565b5b81811015620002f457620002e8600082620002b5565b600181019050620002d2565b5050565b601f82111562000343576200030d81620001b7565b6200031884620001cc565b8101602085101562000328578190505b620003406200033785620001cc565b830182620002d1565b50505b505050565b600082821c905092915050565b6000620003686000198460080262000348565b1980831691505092915050565b600062000383838362000355565b9150826002028217905092915050565b6200039e8262000119565b67ffffffffffffffff811115620003ba57620003b962000124565b5b620003c6825462000182565b620003d3828285620002f8565b600060209050601f8311600181146200040b5760008415620003f6578287015190505b62000402858262000375565b86555062000472565b601f1984166200041b86620001b7565b60005b8281101562000445578489015182556001820191506020850194506020810190506200041e565b8683101562000465578489015162000461601f89168262000355565b8355505b6001600288020188555050505b505050505050565b600073ffffffffffffffffffffffffffffffffffffffff82169050919050565b6000620004a7826200047a565b9050919050565b620004b9816200049a565b82525050565b600082825260208201905092915050565b7f41444d494e000000000000000000000000000000000000000000000000000000600082015250565b600062000508600583620004bf565b91506200051582620004d0565b602082019050919050565b6000604082019050620005376000830184620004ae565b81810360208301526200054a81620004f9565b905092915050565b611bcb80620005626000396000f3fe608060405234801561001057600080fd5b50600436106100935760003560e01c806356aeb0e71161006657806356aeb0e71461014857806361b8ce8c146101645780638520e67814610182578063b619bd961461019e578063f851a440146101bc57610093565b806305422772146100985780630e7cbd07146100cc57806316f9e48b146100e8578063494f4ef014610118575b600080fd5b6100b260048036038101906100ad9190610db2565b6101da565b6040516100c3959493929190610f36565b60405180910390f35b6100e660048036038101906100e191906110f1565b6102d5565b005b61010260048036038101906100fd919061114d565b610436565b60405161010f919061117a565b60405180910390f35b610132600480360381019061012d919061114d565b610507565b60405161013f919061117a565b60405180910390f35b610162600480360381019061015d919061119c565b6105a7565b005b61016c6107f0565b60405161017991906111e5565b60405180910390f35b61019c60048036038101906101979190610db2565b6107f6565b005b6101a6610a60565b6040516101b391906113af565b60405180910390f35b6101c4610bf6565b6040516101d191906113d1565b60405180910390f35b600081815481106101ea57600080fd5b90600052602060002090600402016000915090508060000154908060010180546102139061141b565b80601f016020809104026020016040519081016040528092919081815260200182805461023f9061141b565b801561028c5780601f106102615761010080835404028352916020019161028c565b820191906000526020600020905b81548152906001019060200180831161026f57829003601f168201915b5050505050908060020160009054906101000a900460ff16908060020160019054906101000a900473ffffffffffffffffffffffffffffffffffffffff16908060030154905085565b600260009054906101000a900473ffffffffffffffffffffffffffffffffffffffff1673ffffffffffffffffffffffffffffffffffffffff163373ffffffffffffffffffffffffffffffffffffffff1614610365576040517f08c379a000000000000000000000000000000000000000000000000000000000815260040161035c90611498565b60405180910390fd5b61036e81610c1c565b6103ad576040517f08c379a00000000000000000000000000000000000000000000000000000000081526004016103a49061152a565b60405180910390fd5b80600360008473ffffffffffffffffffffffffffffffffffffffff1673ffffffffffffffffffffffffffffffffffffffff16815260200190815260200160002090816103f991906116f6565b507e6479b2df71b846aa47e305ddb211a33cea4ef9f8fd014e5ca6d1bda37d764d828260405161042a9291906117c8565b60405180910390a15050565b6060600360008373ffffffffffffffffffffffffffffffffffffffff1673ffffffffffffffffffffffffffffffffffffffff16815260200190815260200160002080546104829061141b565b80601f01602080910402602001604051908101604052809291908181526020018280546104ae9061141b565b80156104fb5780601f106104d0576101008083540402835291602001916104fb565b820191906000526020600020905b8154815290600101906020018083116104de57829003601f168201915b50505050509050919050565b600360205280600052604060002060009150905080546105269061141b565b80601f01602080910402602001604051908101604052809291908181526020018280546105529061141b565b801561059f5780601f106105745761010080835404028352916020019161059f565b820191906000526020600020905b81548152906001019060200180831161058257829003601f168201915b505050505081565b6040518060400160405280600a81526020017f50524f445554544f52450000000000000000000000000000000000000000000081525080519060200120600360003373ffffffffffffffffffffffffffffffffffffffff1673ffffffffffffffffffffffffffffffffffffffff168152602001908152602001600020604051610630919061189b565b604051809103902014610678576040517f08c379a000000000000000000000000000000000000000000000000000000000815260040161066f906118fe565b60405180910390fd5b60006040518060a001604052806001548152602001838152602001600060028111156106a7576106a6610e7e565b5b81526020013373ffffffffffffffffffffffffffffffffffffffff16815260200142815250908060018154018082558091505060019003906000526020600020906004020160009091909190915060008201518160000155602082015181600101908161071491906116f6565b5060408201518160020160006101000a81548160ff021916908360028111156107405761073f610e7e565b5b021790555060608201518160020160016101000a81548173ffffffffffffffffffffffffffffffffffffffff021916908373ffffffffffffffffffffffffffffffffffffffff1602179055506080820151816003015550507fe537ec0a956a6f958e38a8e8b2286b72697a9a677e42619fc203c802d02a226960015482336040516107cd9392919061191e565b60405180910390a1600160008154809291906107e89061198b565b919050555050565b60015481565b600080549050811061083d576040517f08c379a000000000000000000000000000000000000000000000000000000000815260040161083490611a1f565b60405180910390fd5b600080828154811061085257610851611a3f565b5b906000526020600020906004020190508060020160019054906101000a900473ffffffffffffffffffffffffffffffffffffffff1673ffffffffffffffffffffffffffffffffffffffff163373ffffffffffffffffffffffffffffffffffffffff16146108f4576040517f08c379a00000000000000000000000000000000000000000000000000000000081526004016108eb90611ae0565b60405180910390fd5b6000600281111561090857610907610e7e565b5b8160020160009054906101000a900460ff16600281111561092c5761092b610e7e565b5b036109635760018160020160006101000a81548160ff0219169083600281111561095957610958610e7e565b5b0217905550610a0e565b6001600281111561097757610976610e7e565b5b8160020160009054906101000a900460ff16600281111561099b5761099a610e7e565b5b036109d25760028160020160006101000a81548160ff021916908360028111156109c8576109c7610e7e565b5b0217905550610a0d565b6040517f08c379a0000000000000000000000000000000000000000000000000000000008152600401610a0490611b4c565b60405180910390fd5b5b7fb17c83f2ea1a6a959b8e44ec5149c94a3c9c65ed6590968b6ad07486dbdcc52a81600001548260020160009054906101000a900460ff16604051610a54929190611b6c565b60405180910390a15050565b60606000805480602002602001604051908101604052809291908181526020016000905b82821015610bed57838290600052602060002090600402016040518060a001604052908160008201548152602001600182018054610ac19061141b565b80601f0160208091040260200160405190810160405280929190818152602001828054610aed9061141b565b8015610b3a5780601f10610b0f57610100808354040283529160200191610b3a565b820191906000526020600020905b815481529060010190602001808311610b1d57829003601f168201915b505050505081526020016002820160009054906101000a900460ff166002811115610b6857610b67610e7e565b5b6002811115610b7a57610b79610e7e565b5b81526020016002820160019054906101000a900473ffffffffffffffffffffffffffffffffffffffff1673ffffffffffffffffffffffffffffffffffffffff1673ffffffffffffffffffffffffffffffffffffffff16815260200160038201548152505081526020019060010190610a84565b50505050905090565b600260009054906101000a900473ffffffffffffffffffffffffffffffffffffffff1681565b600080828051906020012090506040518060400160405280600581526020017f41444d494e000000000000000000000000000000000000000000000000000000815250805190602001208103610c76576001915050610d63565b6040518060400160405280600a81526020017f50524f445554544f524500000000000000000000000000000000000000000000815250805190602001208103610cc3576001915050610d63565b6040518060400160405280600b81526020017f53555045525649534f5245000000000000000000000000000000000000000000815250805190602001208103610d10576001915050610d63565b6040518060400160405280600781526020017f4e455353554e4f00000000000000000000000000000000000000000000000000815250805190602001208103610d5d576001915050610d63565b60009150505b919050565b6000604051905090565b600080fd5b600080fd5b6000819050919050565b610d8f81610d7c565b8114610d9a57600080fd5b50565b600081359050610dac81610d86565b92915050565b600060208284031215610dc857610dc7610d72565b5b6000610dd684828501610d9d565b91505092915050565b610de881610d7c565b82525050565b600081519050919050565b600082825260208201905092915050565b60005b83811015610e28578082015181840152602081019050610e0d565b60008484015250505050565b6000601f19601f8301169050919050565b6000610e5082610dee565b610e5a8185610df9565b9350610e6a818560208601610e0a565b610e7381610e34565b840191505092915050565b7f4e487b7100000000000000000000000000000000000000000000000000000000600052602160045260246000fd5b60038110610ebe57610ebd610e7e565b5b50565b6000819050610ecf82610ead565b919050565b6000610edf82610ec1565b9050919050565b610eef81610ed4565b82525050565b600073ffffffffffffffffffffffffffffffffffffffff82169050919050565b6000610f2082610ef5565b9050919050565b610f3081610f15565b82525050565b600060a082019050610f4b6000830188610ddf565b8181036020830152610f5d8187610e45565b9050610f6c6040830186610ee6565b610f796060830185610f27565b610f866080830184610ddf565b9695505050505050565b610f9981610f15565b8114610fa457600080fd5b50565b600081359050610fb681610f90565b92915050565b600080fd5b600080fd5b7f4e487b7100000000000000000000000000000000000000000000000000000000600052604160045260246000fd5b610ffe82610e34565b810181811067ffffffffffffffff8211171561101d5761101c610fc6565b5b80604052505050565b6000611030610d68565b905061103c8282610ff5565b919050565b600067ffffffffffffffff82111561105c5761105b610fc6565b5b61106582610e34565b9050602081019050919050565b82818337600083830152505050565b600061109461108f84611041565b611026565b9050828152602081018484840111156110b0576110af610fc1565b5b6110bb848285611072565b509392505050565b600082601f8301126110d8576110d7610fbc565b5b81356110e8848260208601611081565b91505092915050565b6000806040838503121561110857611107610d72565b5b600061111685828601610fa7565b925050602083013567ffffffffffffffff81111561113757611136610d77565b5b611143858286016110c3565b9150509250929050565b60006020828403121561116357611162610d72565b5b600061117184828501610fa7565b91505092915050565b600060208201905081810360008301526111948184610e45565b905092915050565b6000602082840312156111b2576111b1610d72565b5b600082013567ffffffffffffffff8111156111d0576111cf610d77565b5b6111dc848285016110c3565b91505092915050565b60006020820190506111fa6000830184610ddf565b92915050565b600081519050919050565b600082825260208201905092915050565b6000819050602082019050919050565b61123581610d7c565b82525050565b600082825260208201905092915050565b600061125782610dee565b611261818561123b565b9350611271818560208601610e0a565b61127a81610e34565b840191505092915050565b61128e81610ed4565b82525050565b61129d81610f15565b82525050565b600060a0830160008301516112bb600086018261122c565b50602083015184820360208601526112d3828261124c565b91505060408301516112e86040860182611285565b5060608301516112fb6060860182611294565b50608083015161130e608086018261122c565b508091505092915050565b600061132583836112a3565b905092915050565b6000602082019050919050565b600061134582611200565b61134f818561120b565b9350836020820285016113618561121c565b8060005b8581101561139d578484038952815161137e8582611319565b94506113898361132d565b925060208a01995050600181019050611365565b50829750879550505050505092915050565b600060208201905081810360008301526113c9818461133a565b905092915050565b60006020820190506113e66000830184610f27565b92915050565b7f4e487b7100000000000000000000000000000000000000000000000000000000600052602260045260246000fd5b6000600282049050600182168061143357607f821691505b602082108103611446576114456113ec565b5b50919050565b7f536f6c6f206c2761646d696e2070756f206765737469726520692072756f6c69600082015250565b6000611482602083610df9565b915061148d8261144c565b602082019050919050565b600060208201905081810360008301526114b181611475565b9050919050565b7f52756f6c6f206e6f6e2076616c69646f21205573613a2041444d494e2c20505260008201527f4f445554544f52452c2053555045525649534f5245206f204e455353554e4f00602082015250565b6000611514603f83610df9565b915061151f826114b8565b604082019050919050565b6000602082019050818103600083015261154381611507565b9050919050565b60008190508160005260206000209050919050565b60006020601f8301049050919050565b600082821b905092915050565b6000600883026115ac7fffffffffffffffffffffffffffffffffffffffffffffffffffffffffffffffff8261156f565b6115b6868361156f565b95508019841693508086168417925050509392505050565b6000819050919050565b60006115f36115ee6115e984610d7c565b6115ce565b610d7c565b9050919050565b6000819050919050565b61160d836115d8565b611621611619826115fa565b84845461157c565b825550505050565b600090565b611636611629565b611641818484611604565b505050565b5b818110156116655761165a60008261162e565b600181019050611647565b5050565b601f8211156116aa5761167b8161154a565b6116848461155f565b81016020851015611693578190505b6116a761169f8561155f565b830182611646565b50505b505050565b600082821c905092915050565b60006116cd600019846008026116af565b1980831691505092915050565b60006116e683836116bc565b9150826002028217905092915050565b6116ff82610dee565b67ffffffffffffffff81111561171857611717610fc6565b5b611722825461141b565b61172d828285611669565b600060209050601f831160018114611760576000841561174e578287015190505b61175885826116da565b8655506117c0565b601f19841661176e8661154a565b60005b8281101561179657848901518255600182019150602085019450602081019050611771565b868310156117b357848901516117af601f8916826116bc565b8355505b6001600288020188555050505b505050505050565b60006040820190506117dd6000830185610f27565b81810360208301526117ef8184610e45565b90509392505050565b600081905092915050565b60008190508160005260206000209050919050565b600081546118258161141b565b61182f81866117f8565b9450600182166000811461184a576001811461185f57611892565b60ff1983168652811515820286019350611892565b61186885611803565b60005b8381101561188a5781548189015260018201915060208101905061186b565b838801955050505b50505092915050565b60006118a78284611818565b915081905092915050565b7f4e6f6e2068616920696c2072756f6c6f2064692050524f445554544f52450000600082015250565b60006118e8601e83610df9565b91506118f3826118b2565b602082019050919050565b60006020820190508181036000830152611917816118db565b9050919050565b60006060820190506119336000830186610ddf565b81810360208301526119458185610e45565b90506119546040830184610f27565b949350505050565b7f4e487b7100000000000000000000000000000000000000000000000000000000600052601160045260246000fd5b600061199682610d7c565b91507fffffffffffffffffffffffffffffffffffffffffffffffffffffffffffffffff82036119c8576119c761195c565b5b600182019050919050565b7f4c6f74746f20696e6573697374656e7465000000000000000000000000000000600082015250565b6000611a09601183610df9565b9150611a14826119d3565b602082019050919050565b60006020820190508181036000830152611a38816119fc565b9050919050565b7f4e487b7100000000000000000000000000000000000000000000000000000000600052603260045260246000fd5b7f536f6c6f20696c2070726f647574746f72652070756f20616767696f726e617260008201527f6500000000000000000000000000000000000000000000000000000000000000602082015250565b6000611aca602183610df9565b9150611ad582611a6e565b604082019050919050565b60006020820190508181036000830152611af981611abd565b9050919050565b7f4369636c6f2064692070726f64757a696f6e6520636f6d706c657461746f0000600082015250565b6000611b36601e83610df9565b9150611b4182611b00565b602082019050919050565b60006020820190508181036000830152611b6581611b29565b9050919050565b6000604082019050611b816000830185610ddf565b611b8e6020830184610ee6565b939250505056fea264697066735822122045d241c85946de0e31fcc933c61f2b09dd91e737d1369e01ef805e18af40922b64736f6c63430008110033",
  "immutableReferences": {},
  "source": "// SPDX-License-Identifier: MIT\npragma solidity ^0.8.0;\n\ncontract WineProduction {\n\n    enum Stato { Creato, Vendemmiato, Fermentato }\n\n    struct Lotto {\n        uint256 id;\n        string tipo;\n        Stato stato;\n        address produttore;\n        uint256 timestamp;\n    }\n\n    Lotto[] public lotti;\n    uint256 public nextId = 1;\n    address public admin;\n\n    //Gestione ruoli, mappiamo un indirizzo ad una parola (che corrisponde ad uno dei 3 ruoli)\n    mapping(address => string) public ruoli;\n\n\n    event LottoCreato(uint256 id, string tipo, address produttore);\n    event StatoAggiornato(uint256 id, Stato nuovoStato);\n    event RuoloAssegnato(address utente, string ruolo);\n\n    constructor(){\n        admin = msg.sender;\n        ruoli[msg.sender] = \"ADMIN\";\n        emit RuoloAssegnato(msg.sender, \"ADMIN\");\n    }\n\n    //controlliamo che siano assegnati dei ruoli validi\n    function isRuoloValido(string memory _ruolo) internal pure returns(bool){\n        bytes32 hashRuolo = keccak256(bytes(_ruolo));\n\n        //solo le tre parole sono accettate\n        if(hashRuolo == keccak256(bytes(\"ADMIN\"))) return true;\n        if(hashRuolo == keccak256(bytes(\"PRODUTTORE\"))) return true;\n        if(hashRuolo == keccak256(bytes(\"SUPERVISORE\"))) return true;\n        if(hashRuolo == keccak256(bytes(\"NESSUNO\"))) return true;\n\n        return false;\n    }\n\n    //solo admin assegna i ruoli\n        function impostaRuolo(address _utente, string memory _etichettaRuolo) public {\n        require(msg.sender == admin, \"Solo l'admin puo gestire i ruoli\");\n        \n        // Ora \"NESSUNO\" passerà questo controllo!\n        require(isRuoloValido(_etichettaRuolo), \"Ruolo non valido! Usa: ADMIN, PRODUTTORE, SUPERVISORE o NESSUNO\");\n\n        ruoli[_utente] = _etichettaRuolo;\n        emit RuoloAssegnato(_utente, _etichettaRuolo);\n    }\n\n    function getRuolo(address _utente) public view returns (string memory){\n        return ruoli[_utente];\n    }\n\n    // Funzione per creare un nuovo lotto\n    function creaLotto(string memory _tipo) public {\n        \n        //solo chi ha il ruolo di produttore può farlo\n        require(\n            keccak256(bytes(ruoli[msg.sender])) == keccak256(bytes(\"PRODUTTORE\")), \n            \"Non hai il ruolo di PRODUTTORE\"\n        );\n\n        lotti.push(Lotto(nextId, _tipo, Stato.Creato, msg.sender, block.timestamp));\n        emit LottoCreato(nextId, _tipo, msg.sender);\n        nextId++;\n    }\n\n    // Funzione per avanzare lo stato (Sequenziale)\n    function avanzaStato(uint256 _index) public {\n        require(_index < lotti.length, \"Lotto inesistente\");\n        Lotto storage lotto = lotti[_index];\n        require(msg.sender == lotto.produttore, \"Solo il produttore puo aggiornare\");\n\n        if (lotto.stato == Stato.Creato) {\n            lotto.stato = Stato.Vendemmiato;\n        } else if (lotto.stato == Stato.Vendemmiato) {\n            lotto.stato = Stato.Fermentato;\n        } else {\n            revert(\"Ciclo di produzione completato\");\n        }\n\n        emit StatoAggiornato(lotto.id, lotto.stato);\n    }\n\n    // Funzione per leggere tutti i lotti\n    function getLotti() public view returns (Lotto[] memory) {\n        return lotti;\n    }\n}",
  "sourcePath": "/Users/Gaetano/Documents/GitHub/vinum-veritas/backend/contracts/WineProduction.sol",
  "compiler": {
    "name": "solc",
    "version": "0.8.17+commit.8df45f5f.Emscripten.clang"
  },
  "schemaVersion": "3.4.14",
  "updatedAt": "2025-12-27T17:31:45.596Z",
  "networkType": "ethereum",
  "devdoc": {
    "kind": "dev",
    "methods": {},
    "version": 1
  },
  "userdoc": {
    "kind": "user",
    "methods": {},
    "version": 1
  }
}