{
  "contractName": "WineProduction",
  "abi": [
    {
      "inputs": [],
      "stateMutability": "nonpayable",
      "type": "constructor"
    },
    {
      "inputs": [],
      "name": "ADMIN",
      "outputs": [
        {
          "internalType": "bytes32",
          "name": "",
          "type": "bytes32"
        }
      ],
      "stateMutability": "view",
      "type": "function",
      "constant": true
    },
    {
      "inputs": [],
      "name": "AGRICOLTORE",
      "outputs": [
        {
          "internalType": "bytes32",
          "name": "",
          "type": "bytes32"
        }
      ],
      "stateMutability": "view",
      "type": "function",
      "constant": true
    },
    {
      "inputs": [],
      "name": "CANTINIERE",
      "outputs": [
        {
          "internalType": "bytes32",
          "name": "",
          "type": "bytes32"
        }
      ],
      "stateMutability": "view",
      "type": "function",
      "constant": true
    },
    {
      "inputs": [],
      "name": "CORRIERE",
      "outputs": [
        {
          "internalType": "bytes32",
          "name": "",
          "type": "bytes32"
        }
      ],
      "stateMutability": "view",
      "type": "function",
      "constant": true
    },
    {
      "inputs": [],
      "name": "DISTRIBUTORE",
      "outputs": [
        {
          "internalType": "bytes32",
          "name": "",
          "type": "bytes32"
        }
      ],
      "stateMutability": "view",
      "type": "function",
      "constant": true
    },
    {
      "inputs": [],
      "name": "SUPERVISORE",
      "outputs": [
        {
          "internalType": "bytes32",
          "name": "",
          "type": "bytes32"
        }
      ],
      "stateMutability": "view",
      "type": "function",
      "constant": true
    },
    {
      "inputs": [
        {
          "internalType": "uint256",
          "name": "",
          "type": "uint256"
        }
      ],
      "name": "lotti",
      "outputs": [
        {
          "internalType": "uint256",
          "name": "id",
          "type": "uint256"
        },
        {
          "internalType": "string",
          "name": "tipo",
          "type": "string"
        },
        {
          "internalType": "enum WineProduction.Stato",
          "name": "stato",
          "type": "uint8"
        },
        {
          "internalType": "uint256",
          "name": "timestamp",
          "type": "uint256"
        },
        {
          "internalType": "address",
          "name": "agricoltore",
          "type": "address"
        },
        {
          "internalType": "address",
          "name": "supervisore",
          "type": "address"
        },
        {
          "internalType": "address",
          "name": "cantiniere",
          "type": "address"
        },
        {
          "internalType": "address",
          "name": "corriere",
          "type": "address"
        },
        {
          "internalType": "address",
          "name": "distributore",
          "type": "address"
        }
      ],
      "stateMutability": "view",
      "type": "function",
      "constant": true
    },
    {
      "inputs": [],
      "name": "nextId",
      "outputs": [
        {
          "internalType": "uint256",
          "name": "",
          "type": "uint256"
        }
      ],
      "stateMutability": "view",
      "type": "function",
      "constant": true
    },
    {
      "inputs": [
        {
          "internalType": "address",
          "name": "",
          "type": "address"
        }
      ],
      "name": "roles",
      "outputs": [
        {
          "internalType": "bytes32",
          "name": "",
          "type": "bytes32"
        }
      ],
      "stateMutability": "view",
      "type": "function",
      "constant": true
    },
    {
      "inputs": [
        {
          "internalType": "uint256",
          "name": "",
          "type": "uint256"
        }
      ],
      "name": "userAddresses",
      "outputs": [
        {
          "internalType": "address",
          "name": "",
          "type": "address"
        }
      ],
      "stateMutability": "view",
      "type": "function",
      "constant": true
    },
    {
      "inputs": [
        {
          "internalType": "address",
          "name": "",
          "type": "address"
        }
      ],
      "name": "users",
      "outputs": [
        {
          "internalType": "string",
          "name": "name",
          "type": "string"
        },
        {
          "internalType": "string",
          "name": "role",
          "type": "string"
        },
        {
          "internalType": "bool",
          "name": "isActive",
          "type": "bool"
        }
      ],
      "stateMutability": "view",
      "type": "function",
      "constant": true
    },
    {
      "inputs": [
        {
          "internalType": "string",
          "name": "_tipo",
          "type": "string"
        },
        {
          "internalType": "address",
          "name": "_agricoltore",
          "type": "address"
        },
        {
          "internalType": "address",
          "name": "_supervisore",
          "type": "address"
        },
        {
          "internalType": "address",
          "name": "_cantiniere",
          "type": "address"
        },
        {
          "internalType": "address",
          "name": "_corriere",
          "type": "address"
        },
        {
          "internalType": "address",
          "name": "_distributore",
          "type": "address"
        }
      ],
      "name": "creaLotto",
      "outputs": [],
      "stateMutability": "nonpayable",
      "type": "function"
    },
    {
      "inputs": [
        {
          "internalType": "uint256",
          "name": "_index",
          "type": "uint256"
        }
      ],
      "name": "avanzaStato",
      "outputs": [],
      "stateMutability": "nonpayable",
      "type": "function"
    },
    {
      "inputs": [
        {
          "internalType": "address",
          "name": "_user",
          "type": "address"
        },
        {
          "internalType": "string",
          "name": "_name",
          "type": "string"
        },
        {
          "internalType": "string",
          "name": "_roleName",
          "type": "string"
        }
      ],
      "name": "addUser",
      "outputs": [],
      "stateMutability": "nonpayable",
      "type": "function"
    },
    {
      "inputs": [
        {
          "internalType": "uint256",
          "name": "_index",
          "type": "uint256"
        }
      ],
      "name": "eliminaLotto",
      "outputs": [],
      "stateMutability": "nonpayable",
      "type": "function"
    },
    {
      "inputs": [],
      "name": "getLotti",
      "outputs": [
        {
          "components": [
            {
              "internalType": "uint256",
              "name": "id",
              "type": "uint256"
            },
            {
              "internalType": "string",
              "name": "tipo",
              "type": "string"
            },
            {
              "internalType": "enum WineProduction.Stato",
              "name": "stato",
              "type": "uint8"
            },
            {
              "internalType": "uint256",
              "name": "timestamp",
              "type": "uint256"
            },
            {
              "internalType": "address",
              "name": "agricoltore",
              "type": "address"
            },
            {
              "internalType": "address",
              "name": "supervisore",
              "type": "address"
            },
            {
              "internalType": "address",
              "name": "cantiniere",
              "type": "address"
            },
            {
              "internalType": "address",
              "name": "corriere",
              "type": "address"
            },
            {
              "internalType": "address",
              "name": "distributore",
              "type": "address"
            }
          ],
          "internalType": "struct WineProduction.Lotto[]",
          "name": "",
          "type": "tuple[]"
        }
      ],
      "stateMutability": "view",
      "type": "function",
      "constant": true
    },
    {
      "inputs": [],
      "name": "getAllUserAddresses",
      "outputs": [
        {
          "internalType": "address[]",
          "name": "",
          "type": "address[]"
        }
      ],
      "stateMutability": "view",
      "type": "function",
      "constant": true
    }
  ],
  "bytecode": "0x6080604052600160045534801561001557600080fd5b507fdf8b4c520ffe197c5343c6f5aec59570151ef9a492f2c624fd45ddde6135ec426000803373ffffffffffffffffffffffffffffffffffffffff1673ffffffffffffffffffffffffffffffffffffffff1681526020019081526020016000208190555061307d806100886000396000f3fe608060405234801561001057600080fd5b506004361061010b5760003560e01c8063742e3811116100a2578063a87430ba11610071578063a87430ba146102b0578063b009d7a1146102e2578063b619bd9614610300578063d7554a681461031e578063f674a9161461033a5761010b565b8063742e38111461022c5780637721158b146102485780638520e6781461026457806399374642146102805761010b565b80633709ad78116100de5780633709ad78146101a2578063502c9bd5146101c0578063602eb2f6146101f057806361b8ce8c1461020e5761010b565b806305422772146101105780632a0acc6a146101485780632f33002314610166578063363efa0a14610184575b600080fd5b61012a60048036038101906101259190611d9c565b610358565b60405161013f99989796959493929190611f20565b60405180910390f35b6101506104eb565b60405161015d9190611fcd565b60405180910390f35b61016e61050f565b60405161017b91906120a6565b60405180910390f35b61018c61059d565b6040516101999190611fcd565b60405180910390f35b6101aa6105c1565b6040516101b79190611fcd565b60405180910390f35b6101da60048036038101906101d59190611d9c565b6105e5565b6040516101e791906120c8565b60405180910390f35b6101f8610624565b6040516102059190611fcd565b60405180910390f35b610216610648565b60405161022391906120e3565b60405180910390f35b6102466004803603810190610241919061225f565b61064e565b005b610262600480360381019061025d9190611d9c565b6109bc565b005b61027e60048036038101906102799190611d9c565b610e89565b005b61029a60048036038101906102959190612308565b611596565b6040516102a79190611fcd565b60405180910390f35b6102ca60048036038101906102c59190612308565b6115ae565b6040516102d993929190612350565b60405180910390f35b6102ea6116f5565b6040516102f79190611fcd565b60405180910390f35b610308611719565b6040516103159190612584565b60405180910390f35b610338600480360381019061033391906125a6565b611a08565b005b610342611cd1565b60405161034f9190611fcd565b60405180910390f35b6003818154811061036857600080fd5b906000526020600020906009020160009150905080600001549080600101805461039190612660565b80601f01602080910402602001604051908101604052809291908181526020018280546103bd90612660565b801561040a5780601f106103df5761010080835404028352916020019161040a565b820191906000526020600020905b8154815290600101906020018083116103ed57829003601f168201915b5050505050908060020160009054906101000a900460ff16908060030154908060040160009054906101000a900473ffffffffffffffffffffffffffffffffffffffff16908060050160009054906101000a900473ffffffffffffffffffffffffffffffffffffffff16908060060160009054906101000a900473ffffffffffffffffffffffffffffffffffffffff16908060070160009054906101000a900473ffffffffffffffffffffffffffffffffffffffff16908060080160009054906101000a900473ffffffffffffffffffffffffffffffffffffffff16905089565b7fdf8b4c520ffe197c5343c6f5aec59570151ef9a492f2c624fd45ddde6135ec4281565b6060600280548060200260200160405190810160405280929190818152602001828054801561059357602002820191906000526020600020905b8160009054906101000a900473ffffffffffffffffffffffffffffffffffffffff1673ffffffffffffffffffffffffffffffffffffffff1681526020019060010190808311610549575b5050505050905090565b7ffbf573f3c4bccce46c1dbf63795f7fadf7bb39d8917933246b61e08ad44b1be581565b7fef3622f293edb090d8a3b2cc5caa5df142b73c51f9f008eb8c34c66a9377593a81565b600281815481106105f557600080fd5b906000526020600020016000915054906101000a900473ffffffffffffffffffffffffffffffffffffffff1681565b7f2cf85fe15d4ee363be02bc59776a4870c18edd8ff76c49234fa76f6645e4421581565b60045481565b7fdf8b4c520ffe197c5343c6f5aec59570151ef9a492f2c624fd45ddde6135ec426000803373ffffffffffffffffffffffffffffffffffffffff1673ffffffffffffffffffffffffffffffffffffffff16815260200190815260200160002054146106ee576040517f08c379a00000000000000000000000000000000000000000000000000000000081526004016106e5906126dd565b60405180910390fd5b600360405180610120016040528060045481526020018881526020016000600681111561071e5761071d611e68565b5b81526020014281526020018773ffffffffffffffffffffffffffffffffffffffff1681526020018673ffffffffffffffffffffffffffffffffffffffff1681526020018573ffffffffffffffffffffffffffffffffffffffff1681526020018473ffffffffffffffffffffffffffffffffffffffff1681526020018373ffffffffffffffffffffffffffffffffffffffff1681525090806001815401808255809150506001900390600052602060002090600902016000909190919091506000820151816000015560208201518160010190816107fb91906128a9565b5060408201518160020160006101000a81548160ff0219169083600681111561082757610826611e68565b5b02179055506060820151816003015560808201518160040160006101000a81548173ffffffffffffffffffffffffffffffffffffffff021916908373ffffffffffffffffffffffffffffffffffffffff16021790555060a08201518160050160006101000a81548173ffffffffffffffffffffffffffffffffffffffff021916908373ffffffffffffffffffffffffffffffffffffffff16021790555060c08201518160060160006101000a81548173ffffffffffffffffffffffffffffffffffffffff021916908373ffffffffffffffffffffffffffffffffffffffff16021790555060e08201518160070160006101000a81548173ffffffffffffffffffffffffffffffffffffffff021916908373ffffffffffffffffffffffffffffffffffffffff1602179055506101008201518160080160006101000a81548173ffffffffffffffffffffffffffffffffffffffff021916908373ffffffffffffffffffffffffffffffffffffffff1602179055505050600460008154809291906109af906129aa565b9190505550505050505050565b7fdf8b4c520ffe197c5343c6f5aec59570151ef9a492f2c624fd45ddde6135ec426000803373ffffffffffffffffffffffffffffffffffffffff1673ffffffffffffffffffffffffffffffffffffffff1681526020019081526020016000205414610a5c576040517f08c379a0000000000000000000000000000000000000000000000000000000008152600401610a53906126dd565b60405180910390fd5b6003805490508110610aa3576040517f08c379a0000000000000000000000000000000000000000000000000000000008152600401610a9a90612a3e565b60405180910390fd5b60036001600380549050610ab79190612a5e565b81548110610ac857610ac7612a92565b5b906000526020600020906009020160038281548110610aea57610ae9612a92565b5b90600052602060002090600902016000820154816000015560018201816001019081610b169190612ad7565b506002820160009054906101000a900460ff168160020160006101000a81548160ff02191690836006811115610b4f57610b4e611e68565b5b0217905550600382015481600301556004820160009054906101000a900473ffffffffffffffffffffffffffffffffffffffff168160040160006101000a81548173ffffffffffffffffffffffffffffffffffffffff021916908373ffffffffffffffffffffffffffffffffffffffff1602179055506005820160009054906101000a900473ffffffffffffffffffffffffffffffffffffffff168160050160006101000a81548173ffffffffffffffffffffffffffffffffffffffff021916908373ffffffffffffffffffffffffffffffffffffffff1602179055506006820160009054906101000a900473ffffffffffffffffffffffffffffffffffffffff168160060160006101000a81548173ffffffffffffffffffffffffffffffffffffffff021916908373ffffffffffffffffffffffffffffffffffffffff1602179055506007820160009054906101000a900473ffffffffffffffffffffffffffffffffffffffff168160070160006101000a81548173ffffffffffffffffffffffffffffffffffffffff021916908373ffffffffffffffffffffffffffffffffffffffff1602179055506008820160009054906101000a900473ffffffffffffffffffffffffffffffffffffffff168160080160006101000a81548173ffffffffffffffffffffffffffffffffffffffff021916908373ffffffffffffffffffffffffffffffffffffffff1602179055509050506003805480610d7657610d75612bbf565b5b6001900381819060005260206000209060090201600080820160009055600182016000610da39190611cf5565b6002820160006101000a81549060ff021916905560038201600090556004820160006101000a81549073ffffffffffffffffffffffffffffffffffffffff02191690556005820160006101000a81549073ffffffffffffffffffffffffffffffffffffffff02191690556006820160006101000a81549073ffffffffffffffffffffffffffffffffffffffff02191690556007820160006101000a81549073ffffffffffffffffffffffffffffffffffffffff02191690556008820160006101000a81549073ffffffffffffffffffffffffffffffffffffffff02191690555050905550565b6003805490508110610ed0576040517f08c379a0000000000000000000000000000000000000000000000000000000008152600401610ec790612c3a565b60405180910390fd5b600060038281548110610ee657610ee5612a92565b5b9060005260206000209060090201905060008160020160009054906101000a900460ff16905060008060003373ffffffffffffffffffffffffffffffffffffffff1673ffffffffffffffffffffffffffffffffffffffff16815260200190815260200160002054905060006006811115610f6357610f62611e68565b5b826006811115610f7657610f75611e68565b5b0361103d577f2cf85fe15d4ee363be02bc59776a4870c18edd8ff76c49234fa76f6645e4421581148015610ff957508260040160009054906101000a900473ffffffffffffffffffffffffffffffffffffffff1673ffffffffffffffffffffffffffffffffffffffff163373ffffffffffffffffffffffffffffffffffffffff16145b611038576040517f08c379a000000000000000000000000000000000000000000000000000000000815260040161102f90612ca6565b60405180910390fd5b611523565b6001600681111561105157611050611e68565b5b82600681111561106457611063611e68565b5b0361112b577f9337c84965dad9c5be73858d8944f2762885e962d74177742c0a20a7e7ad22ae811480156110e757508260050160009054906101000a900473ffffffffffffffffffffffffffffffffffffffff1673ffffffffffffffffffffffffffffffffffffffff163373ffffffffffffffffffffffffffffffffffffffff16145b611126576040517f08c379a000000000000000000000000000000000000000000000000000000000815260040161111d90612d38565b60405180910390fd5b611522565b6002600681111561113f5761113e611e68565b5b82600681111561115257611151611e68565b5b03611219577f9337c84965dad9c5be73858d8944f2762885e962d74177742c0a20a7e7ad22ae811480156111d557508260050160009054906101000a900473ffffffffffffffffffffffffffffffffffffffff1673ffffffffffffffffffffffffffffffffffffffff163373ffffffffffffffffffffffffffffffffffffffff16145b611214576040517f08c379a000000000000000000000000000000000000000000000000000000000815260040161120b90612dca565b60405180910390fd5b611521565b6003600681111561122d5761122c611e68565b5b8260068111156112405761123f611e68565b5b03611307577fef3622f293edb090d8a3b2cc5caa5df142b73c51f9f008eb8c34c66a9377593a811480156112c357508260060160009054906101000a900473ffffffffffffffffffffffffffffffffffffffff1673ffffffffffffffffffffffffffffffffffffffff163373ffffffffffffffffffffffffffffffffffffffff16145b611302576040517f08c379a00000000000000000000000000000000000000000000000000000000081526004016112f990612e36565b60405180910390fd5b611520565b6004600681111561131b5761131a611e68565b5b82600681111561132e5761132d611e68565b5b036113f5577ffbf573f3c4bccce46c1dbf63795f7fadf7bb39d8917933246b61e08ad44b1be5811480156113b157508260070160009054906101000a900473ffffffffffffffffffffffffffffffffffffffff1673ffffffffffffffffffffffffffffffffffffffff163373ffffffffffffffffffffffffffffffffffffffff16145b6113f0576040517f08c379a00000000000000000000000000000000000000000000000000000000081526004016113e790612ea2565b60405180910390fd5b61151f565b6005600681111561140957611408611e68565b5b82600681111561141c5761141b611e68565b5b036114e3577f0ce117c3e3256b329a75f369991e5099ec385240832e5464fdfe86571d4873268114801561149f57508260080160009054906101000a900473ffffffffffffffffffffffffffffffffffffffff1673ffffffffffffffffffffffffffffffffffffffff163373ffffffffffffffffffffffffffffffffffffffff16145b6114de576040517f08c379a00000000000000000000000000000000000000000000000000000000081526004016114d590612f0e565b60405180910390fd5b61151e565b6040517f08c379a000000000000000000000000000000000000000000000000000000000815260040161151590612fa0565b60405180910390fd5b5b5b5b5b5b60018360020160009054906101000a900460ff16600681111561154957611548611e68565b5b6115539190612fc0565b600681111561156557611564611e68565b5b8360020160006101000a81548160ff0219169083600681111561158b5761158a611e68565b5b021790555050505050565b60006020528060005260406000206000915090505481565b60016020528060005260406000206000915090508060000180546115d190612660565b80601f01602080910402602001604051908101604052809291908181526020018280546115fd90612660565b801561164a5780601f1061161f5761010080835404028352916020019161164a565b820191906000526020600020905b81548152906001019060200180831161162d57829003601f168201915b50505050509080600101805461165f90612660565b80601f016020809104026020016040519081016040528092919081815260200182805461168b90612660565b80156116d85780601f106116ad576101008083540402835291602001916116d8565b820191906000526020600020905b8154815290600101906020018083116116bb57829003601f168201915b5050505050908060020160009054906101000a900460ff16905083565b7f0ce117c3e3256b329a75f369991e5099ec385240832e5464fdfe86571d48732681565b60606003805480602002602001604051908101604052809291908181526020016000905b828210156119ff5783829060005260206000209060090201604051806101200160405290816000820154815260200160018201805461177b90612660565b80601f01602080910402602001604051908101604052809291908181526020018280546117a790612660565b80156117f45780601f106117c9576101008083540402835291602001916117f4565b820191906000526020600020905b8154815290600101906020018083116117d757829003601f168201915b505050505081526020016002820160009054906101000a900460ff16600681111561182257611821611e68565b5b600681111561183457611833611e68565b5b8152602001600382015481526020016004820160009054906101000a900473ffffffffffffffffffffffffffffffffffffffff1673ffffffffffffffffffffffffffffffffffffffff1673ffffffffffffffffffffffffffffffffffffffff1681526020016005820160009054906101000a900473ffffffffffffffffffffffffffffffffffffffff1673ffffffffffffffffffffffffffffffffffffffff1673ffffffffffffffffffffffffffffffffffffffff1681526020016006820160009054906101000a900473ffffffffffffffffffffffffffffffffffffffff1673ffffffffffffffffffffffffffffffffffffffff1673ffffffffffffffffffffffffffffffffffffffff1681526020016007820160009054906101000a900473ffffffffffffffffffffffffffffffffffffffff1673ffffffffffffffffffffffffffffffffffffffff1673ffffffffffffffffffffffffffffffffffffffff1681526020016008820160009054906101000a900473ffffffffffffffffffffffffffffffffffffffff1673ffffffffffffffffffffffffffffffffffffffff1673ffffffffffffffffffffffffffffffffffffffff16815250508152602001906001019061173d565b50505050905090565b7fdf8b4c520ffe197c5343c6f5aec59570151ef9a492f2c624fd45ddde6135ec426000803373ffffffffffffffffffffffffffffffffffffffff1673ffffffffffffffffffffffffffffffffffffffff1681526020019081526020016000205414611aa8576040517f08c379a0000000000000000000000000000000000000000000000000000000008152600401611a9f906126dd565b60405180910390fd5b600081604051602001611abb9190613030565b604051602081830303815290604052805190602001209050806000808673ffffffffffffffffffffffffffffffffffffffff1673ffffffffffffffffffffffffffffffffffffffff16815260200190815260200160002081905550604051806060016040528084815260200183815260200160011515815250600160008673ffffffffffffffffffffffffffffffffffffffff1673ffffffffffffffffffffffffffffffffffffffff1681526020019081526020016000206000820151816000019081611b8891906128a9565b506020820151816001019081611b9e91906128a9565b5060408201518160020160006101000a81548160ff0219169083151502179055509050506000805b600280549050811015611c60578573ffffffffffffffffffffffffffffffffffffffff1660028281548110611bfe57611bfd612a92565b5b9060005260206000200160009054906101000a900473ffffffffffffffffffffffffffffffffffffffff1673ffffffffffffffffffffffffffffffffffffffff1603611c4d5760019150611c60565b8080611c58906129aa565b915050611bc6565b5080611cca576002859080600181540180825580915050600190039060005260206000200160009091909190916101000a81548173ffffffffffffffffffffffffffffffffffffffff021916908373ffffffffffffffffffffffffffffffffffffffff1602179055505b5050505050565b7f9337c84965dad9c5be73858d8944f2762885e962d74177742c0a20a7e7ad22ae81565b508054611d0190612660565b6000825580601f10611d135750611d32565b601f016020900490600052602060002090810190611d319190611d35565b5b50565b5b80821115611d4e576000816000905550600101611d36565b5090565b6000604051905090565b600080fd5b600080fd5b6000819050919050565b611d7981611d66565b8114611d8457600080fd5b50565b600081359050611d9681611d70565b92915050565b600060208284031215611db257611db1611d5c565b5b6000611dc084828501611d87565b91505092915050565b611dd281611d66565b82525050565b600081519050919050565b600082825260208201905092915050565b60005b83811015611e12578082015181840152602081019050611df7565b60008484015250505050565b6000601f19601f8301169050919050565b6000611e3a82611dd8565b611e448185611de3565b9350611e54818560208601611df4565b611e5d81611e1e565b840191505092915050565b7f4e487b7100000000000000000000000000000000000000000000000000000000600052602160045260246000fd5b60078110611ea857611ea7611e68565b5b50565b6000819050611eb982611e97565b919050565b6000611ec982611eab565b9050919050565b611ed981611ebe565b82525050565b600073ffffffffffffffffffffffffffffffffffffffff82169050919050565b6000611f0a82611edf565b9050919050565b611f1a81611eff565b82525050565b600061012082019050611f36600083018c611dc9565b8181036020830152611f48818b611e2f565b9050611f57604083018a611ed0565b611f646060830189611dc9565b611f716080830188611f11565b611f7e60a0830187611f11565b611f8b60c0830186611f11565b611f9860e0830185611f11565b611fa6610100830184611f11565b9a9950505050505050505050565b6000819050919050565b611fc781611fb4565b82525050565b6000602082019050611fe26000830184611fbe565b92915050565b600081519050919050565b600082825260208201905092915050565b6000819050602082019050919050565b61201d81611eff565b82525050565b600061202f8383612014565b60208301905092915050565b6000602082019050919050565b600061205382611fe8565b61205d8185611ff3565b935061206883612004565b8060005b838110156120995781516120808882612023565b975061208b8361203b565b92505060018101905061206c565b5085935050505092915050565b600060208201905081810360008301526120c08184612048565b905092915050565b60006020820190506120dd6000830184611f11565b92915050565b60006020820190506120f86000830184611dc9565b92915050565b600080fd5b600080fd5b7f4e487b7100000000000000000000000000000000000000000000000000000000600052604160045260246000fd5b61214082611e1e565b810181811067ffffffffffffffff8211171561215f5761215e612108565b5b80604052505050565b6000612172611d52565b905061217e8282612137565b919050565b600067ffffffffffffffff82111561219e5761219d612108565b5b6121a782611e1e565b9050602081019050919050565b82818337600083830152505050565b60006121d66121d184612183565b612168565b9050828152602081018484840111156121f2576121f1612103565b5b6121fd8482856121b4565b509392505050565b600082601f83011261221a576122196120fe565b5b813561222a8482602086016121c3565b91505092915050565b61223c81611eff565b811461224757600080fd5b50565b60008135905061225981612233565b92915050565b60008060008060008060c0878903121561227c5761227b611d5c565b5b600087013567ffffffffffffffff81111561229a57612299611d61565b5b6122a689828a01612205565b96505060206122b789828a0161224a565b95505060406122c889828a0161224a565b94505060606122d989828a0161224a565b93505060806122ea89828a0161224a565b92505060a06122fb89828a0161224a565b9150509295509295509295565b60006020828403121561231e5761231d611d5c565b5b600061232c8482850161224a565b91505092915050565b60008115159050919050565b61234a81612335565b82525050565b6000606082019050818103600083015261236a8186611e2f565b9050818103602083015261237e8185611e2f565b905061238d6040830184612341565b949350505050565b600081519050919050565b600082825260208201905092915050565b6000819050602082019050919050565b6123ca81611d66565b82525050565b600082825260208201905092915050565b60006123ec82611dd8565b6123f681856123d0565b9350612406818560208601611df4565b61240f81611e1e565b840191505092915050565b61242381611ebe565b82525050565b60006101208301600083015161244260008601826123c1565b506020830151848203602086015261245a82826123e1565b915050604083015161246f604086018261241a565b50606083015161248260608601826123c1565b5060808301516124956080860182612014565b5060a08301516124a860a0860182612014565b5060c08301516124bb60c0860182612014565b5060e08301516124ce60e0860182612014565b506101008301516124e3610100860182612014565b508091505092915050565b60006124fa8383612429565b905092915050565b6000602082019050919050565b600061251a82612395565b61252481856123a0565b935083602082028501612536856123b1565b8060005b85811015612572578484038952815161255385826124ee565b945061255e83612502565b925060208a0199505060018101905061253a565b50829750879550505050505092915050565b6000602082019050818103600083015261259e818461250f565b905092915050565b6000806000606084860312156125bf576125be611d5c565b5b60006125cd8682870161224a565b935050602084013567ffffffffffffffff8111156125ee576125ed611d61565b5b6125fa86828701612205565b925050604084013567ffffffffffffffff81111561261b5761261a611d61565b5b61262786828701612205565b9150509250925092565b7f4e487b7100000000000000000000000000000000000000000000000000000000600052602260045260246000fd5b6000600282049050600182168061267857607f821691505b60208210810361268b5761268a612631565b5b50919050565b7f536f6c6f2041646d696e00000000000000000000000000000000000000000000600082015250565b60006126c7600a83611de3565b91506126d282612691565b602082019050919050565b600060208201905081810360008301526126f6816126ba565b9050919050565b60008190508160005260206000209050919050565b60006020601f8301049050919050565b600082821b905092915050565b60006008830261275f7fffffffffffffffffffffffffffffffffffffffffffffffffffffffffffffffff82612722565b6127698683612722565b95508019841693508086168417925050509392505050565b6000819050919050565b60006127a66127a161279c84611d66565b612781565b611d66565b9050919050565b6000819050919050565b6127c08361278b565b6127d46127cc826127ad565b84845461272f565b825550505050565b600090565b6127e96127dc565b6127f48184846127b7565b505050565b5b818110156128185761280d6000826127e1565b6001810190506127fa565b5050565b601f82111561285d5761282e816126fd565b61283784612712565b81016020851015612846578190505b61285a61285285612712565b8301826127f9565b50505b505050565b600082821c905092915050565b600061288060001984600802612862565b1980831691505092915050565b6000612899838361286f565b9150826002028217905092915050565b6128b282611dd8565b67ffffffffffffffff8111156128cb576128ca612108565b5b6128d58254612660565b6128e082828561281c565b600060209050601f8311600181146129135760008415612901578287015190505b61290b858261288d565b865550612973565b601f198416612921866126fd565b60005b8281101561294957848901518255600182019150602085019450602081019050612924565b868310156129665784890151612962601f89168261286f565b8355505b6001600288020188555050505b505050505050565b7f4e487b7100000000000000000000000000000000000000000000000000000000600052601160045260246000fd5b60006129b582611d66565b91507fffffffffffffffffffffffffffffffffffffffffffffffffffffffffffffffff82036129e7576129e661297b565b5b600182019050919050565b7f496e64696365206e6f6e2076616c69646f000000000000000000000000000000600082015250565b6000612a28601183611de3565b9150612a33826129f2565b602082019050919050565b60006020820190508181036000830152612a5781612a1b565b9050919050565b6000612a6982611d66565b9150612a7483611d66565b9250828203905081811115612a8c57612a8b61297b565b5b92915050565b7f4e487b7100000000000000000000000000000000000000000000000000000000600052603260045260246000fd5b600081549050612ad081612660565b9050919050565b818103612ae5575050612bbd565b612aee82612ac1565b67ffffffffffffffff811115612b0757612b06612108565b5b612b118254612660565b612b1c82828561281c565b6000601f831160018114612b4b5760008415612b39578287015490505b612b43858261288d565b865550612bb6565b601f198416612b59876126fd565b9650612b64866126fd565b60005b82811015612b8c57848901548255600182019150600185019450602081019050612b67565b86831015612ba95784890154612ba5601f89168261286f565b8355505b6001600288020188555050505b5050505050505b565b7f4e487b7100000000000000000000000000000000000000000000000000000000600052603160045260246000fd5b7f4c6f74746f20696e6573697374656e7465000000000000000000000000000000600082015250565b6000612c24601183611de3565b9150612c2f82612bee565b602082019050919050565b60006020820190508181036000830152612c5381612c17565b9050919050565b7f536f6c6f206c2741677269636f6c746f72652061737365676e61746f00000000600082015250565b6000612c90601c83611de3565b9150612c9b82612c5a565b602082019050919050565b60006020820190508181036000830152612cbf81612c83565b9050919050565b7f536f6c6f20696c2053757065727669736f72652061737365676e61746f20284660008201527f65726d656e74617a696f6e652900000000000000000000000000000000000000602082015250565b6000612d22602d83611de3565b9150612d2d82612cc6565b604082019050919050565b60006020820190508181036000830152612d5181612d15565b9050919050565b7f536f6c6f20696c2053757065727669736f72652061737365676e61746f20284160008201527f6666696e616d656e746f29000000000000000000000000000000000000000000602082015250565b6000612db4602b83611de3565b9150612dbf82612d58565b604082019050919050565b60006020820190508181036000830152612de381612da7565b9050919050565b7f536f6c6f20696c2043616e74696e696572652061737365676e61746f00000000600082015250565b6000612e20601c83611de3565b9150612e2b82612dea565b602082019050919050565b60006020820190508181036000830152612e4f81612e13565b9050919050565b7f536f6c6f20696c20436f7272696572652061737365676e61746f000000000000600082015250565b6000612e8c601a83611de3565b9150612e9782612e56565b602082019050919050565b60006020820190508181036000830152612ebb81612e7f565b9050919050565b7f536f6c6f20696c204469737472696275746f72652061737365676e61746f0000600082015250565b6000612ef8601e83611de3565b9150612f0382612ec2565b602082019050919050565b60006020820190508181036000830152612f2781612eeb565b9050919050565b7f4369636c6f2067696120636f6d706c657461746f206f20737461746f206e6f6e60008201527f206765737469746f000000000000000000000000000000000000000000000000602082015250565b6000612f8a602883611de3565b9150612f9582612f2e565b604082019050919050565b60006020820190508181036000830152612fb981612f7d565b9050919050565b6000612fcb82611d66565b9150612fd683611d66565b9250828201905080821115612fee57612fed61297b565b5b92915050565b600081905092915050565b600061300a82611dd8565b6130148185612ff4565b9350613024818560208601611df4565b80840191505092915050565b600061303c8284612fff565b91508190509291505056fea2646970667358221220308dfc0583c597c12b739da56f41f8ad7a622aab435ea958bc1c4c38b928707f64736f6c63430008110033",
  "immutableReferences": {},
  "source": "// SPDX-License-Identifier: MIT\r\npragma solidity ^0.8.0;\r\n\r\ncontract WineProduction {\r\n    // Definizione Ruoli (Hash)\r\n    bytes32 public constant ADMIN = keccak256(\"ADMIN\");\r\n    bytes32 public constant AGRICOLTORE = keccak256(\"AGRICOLTORE\");\r\n    bytes32 public constant SUPERVISORE = keccak256(\"SUPERVISORE\");\r\n    bytes32 public constant CANTINIERE = keccak256(\"CANTINIERE\");\r\n    bytes32 public constant CORRIERE = keccak256(\"CORRIERE\");\r\n    bytes32 public constant DISTRIBUTORE = keccak256(\"DISTRIBUTORE\");\r\n\r\n    // L'Enum deve essere definito PRIMA dello Struct che lo usa\r\n    enum Stato { \r\n        Creato,         // 0\r\n        Vendemmiato,    // 1\r\n        Fermentato,     // 2\r\n        Affinato,       // 3\r\n        Imbottigliato,  // 4\r\n        Distribuito,    // 5\r\n        Completato      // 6\r\n    }\r\n    \r\n    struct Lotto {\r\n        uint256 id;\r\n        string tipo;\r\n        Stato stato;\r\n        uint256 timestamp;\r\n        address agricoltore;\r\n        address supervisore;\r\n        address cantiniere;\r\n        address corriere;\r\n        address distributore;\r\n    }\r\n\r\n    struct User {\r\n        string name;\r\n        string role;\r\n        bool isActive;\r\n    }\r\n    \r\n    mapping(address => bytes32) public roles;\r\n    mapping(address => User) public users;\r\n    address[] public userAddresses;\r\n    Lotto[] public lotti;\r\n    uint256 public nextId = 1;\r\n\r\n    constructor() {\r\n        // Chi fa il deploy diventa ADMIN\r\n        roles[msg.sender] = ADMIN;\r\n    }\r\n\r\n    // Crea Lotto con tutta la filiera assegnata\r\n    function creaLotto(\r\n        string memory _tipo, \r\n        address _agricoltore,\r\n        address _supervisore,\r\n        address _cantiniere,\r\n        address _corriere,\r\n        address _distributore\r\n    ) public {\r\n        require(roles[msg.sender] == ADMIN, \"Solo Admin\");\r\n        \r\n        lotti.push(Lotto({\r\n            id: nextId,\r\n            tipo: _tipo,\r\n            stato: Stato.Creato,\r\n            timestamp: block.timestamp, // <--- FIX: Assegna il tempo attuale\r\n            agricoltore: _agricoltore,\r\n            supervisore: _supervisore,\r\n            cantiniere: _cantiniere,\r\n            corriere: _corriere,\r\n            distributore: _distributore\r\n        }));\r\n        \r\n        nextId++;\r\n    }\r\n\r\n    function avanzaStato(uint256 _index) public {\r\n        require(_index < lotti.length, \"Lotto inesistente\");\r\n        Lotto storage lotto = lotti[_index];\r\n        Stato attuale = lotto.stato;\r\n        bytes32 userRole = roles[msg.sender];\r\n\r\n        if (attuale == Stato.Creato) {\r\n            require(userRole == AGRICOLTORE && msg.sender == lotto.agricoltore, \"Solo l'Agricoltore assegnato\");\r\n        } \r\n        else if (attuale == Stato.Vendemmiato) {\r\n            require(userRole == SUPERVISORE && msg.sender == lotto.supervisore, \"Solo il Supervisore assegnato (Fermentazione)\");\r\n        }\r\n        else if (attuale == Stato.Fermentato) {\r\n            require(userRole == SUPERVISORE && msg.sender == lotto.supervisore, \"Solo il Supervisore assegnato (Affinamento)\");\r\n        }\r\n        else if (attuale == Stato.Affinato) {\r\n            require(userRole == CANTINIERE && msg.sender == lotto.cantiniere, \"Solo il Cantiniere assegnato\");\r\n        }\r\n        else if (attuale == Stato.Imbottigliato) {\r\n            require(userRole == CORRIERE && msg.sender == lotto.corriere, \"Solo il Corriere assegnato\");\r\n        }\r\n        else if (attuale == Stato.Distribuito) {\r\n            require(userRole == DISTRIBUTORE && msg.sender == lotto.distributore, \"Solo il Distributore assegnato\");\r\n        }\r\n        else {\r\n            revert(\"Ciclo gia completato o stato non gestito\");\r\n        }\r\n\r\n        lotto.stato = Stato(uint(lotto.stato) + 1);\r\n    }\r\n\r\n    function addUser(address _user, string memory _name, string memory _roleName) public {\r\n        require(roles[msg.sender] == ADMIN, \"Solo Admin\");\r\n        \r\n        // Assegna il ruolo basato sulla stringa ricevuta\r\n        bytes32 roleHash = keccak256(abi.encodePacked(_roleName));\r\n        roles[_user] = roleHash;\r\n        \r\n        users[_user] = User(_name, _roleName, true);\r\n        \r\n        bool exists = false;\r\n        for(uint i=0; i < userAddresses.length; i++) {\r\n            if(userAddresses[i] == _user) { exists = true; break; }\r\n        }\r\n        if(!exists) userAddresses.push(_user);\r\n    }\r\n\r\n    function eliminaLotto(uint256 _index) public {\r\n        require(roles[msg.sender] == ADMIN, \"Solo Admin\");\r\n        require(_index < lotti.length, \"Indice non valido\");\r\n        lotti[_index] = lotti[lotti.length - 1];\r\n        lotti.pop();\r\n    }\r\n\r\n    function getLotti() public view returns (Lotto[] memory) {\r\n        return lotti;\r\n    }\r\n\r\n    function getAllUserAddresses() public view returns (address[] memory) {\r\n        return userAddresses;\r\n    }\r\n}",
  "sourcePath": "C:\\Utili\\Tutto\\università\\Magistrale\\Blockchain\\vinum-veritas\\backend\\contracts\\WineProduction.sol",
  "compiler": {
    "name": "solc",
    "version": "0.8.17+commit.8df45f5f.Emscripten.clang"
  },
  "schemaVersion": "3.4.14",
  "updatedAt": "2025-12-30T15:04:04.842Z",
  "networkType": "ethereum",
  "devdoc": {
    "kind": "dev",
    "methods": {},
    "version": 1
  },
  "userdoc": {
    "kind": "user",
    "methods": {},
    "version": 1
  }
}