{
  "contractName": "WineProduction",
  "abi": [
    {
      "anonymous": false,
      "inputs": [
        {
          "indexed": false,
          "internalType": "uint256",
          "name": "id",
          "type": "uint256"
        },
        {
          "indexed": false,
          "internalType": "string",
          "name": "tipo",
          "type": "string"
        },
        {
          "indexed": false,
          "internalType": "address",
          "name": "produttore",
          "type": "address"
        }
      ],
      "name": "LottoCreato",
      "type": "event"
    },
    {
      "anonymous": false,
      "inputs": [
        {
          "indexed": false,
          "internalType": "uint256",
          "name": "id",
          "type": "uint256"
        },
        {
          "indexed": false,
          "internalType": "enum WineProduction.Stato",
          "name": "nuovoStato",
          "type": "uint8"
        }
      ],
      "name": "StatoAggiornato",
      "type": "event"
    },
    {
      "inputs": [
        {
          "internalType": "uint256",
          "name": "",
          "type": "uint256"
        }
      ],
      "name": "lotti",
      "outputs": [
        {
          "internalType": "uint256",
          "name": "id",
          "type": "uint256"
        },
        {
          "internalType": "string",
          "name": "tipo",
          "type": "string"
        },
        {
          "internalType": "enum WineProduction.Stato",
          "name": "stato",
          "type": "uint8"
        },
        {
          "internalType": "address",
          "name": "produttore",
          "type": "address"
        },
        {
          "internalType": "uint256",
          "name": "timestamp",
          "type": "uint256"
        }
      ],
      "stateMutability": "view",
      "type": "function",
      "constant": true
    },
    {
      "inputs": [],
      "name": "nextId",
      "outputs": [
        {
          "internalType": "uint256",
          "name": "",
          "type": "uint256"
        }
      ],
      "stateMutability": "view",
      "type": "function",
      "constant": true
    },
    {
      "inputs": [
        {
          "internalType": "string",
          "name": "_tipo",
          "type": "string"
        }
      ],
      "name": "creaLotto",
      "outputs": [],
      "stateMutability": "nonpayable",
      "type": "function"
    },
    {
      "inputs": [
        {
          "internalType": "uint256",
          "name": "_index",
          "type": "uint256"
        }
      ],
      "name": "avanzaStato",
      "outputs": [],
      "stateMutability": "nonpayable",
      "type": "function"
    },
    {
      "inputs": [],
      "name": "getLotti",
      "outputs": [
        {
          "components": [
            {
              "internalType": "uint256",
              "name": "id",
              "type": "uint256"
            },
            {
              "internalType": "string",
              "name": "tipo",
              "type": "string"
            },
            {
              "internalType": "enum WineProduction.Stato",
              "name": "stato",
              "type": "uint8"
            },
            {
              "internalType": "address",
              "name": "produttore",
              "type": "address"
            },
            {
              "internalType": "uint256",
              "name": "timestamp",
              "type": "uint256"
            }
          ],
          "internalType": "struct WineProduction.Lotto[]",
          "name": "",
          "type": "tuple[]"
        }
      ],
      "stateMutability": "view",
      "type": "function",
      "constant": true
    }
  ],
  "bytecode": "0x60806040526001805534801561001457600080fd5b5061129a806100246000396000f3fe608060405234801561001057600080fd5b50600436106100575760003560e01c8063054227721461005c57806356aeb0e71461009057806361b8ce8c146100ac5780638520e678146100ca578063b619bd96146100e6575b600080fd5b610076600480360381019061007191906107c7565b610104565b60405161008795949392919061094b565b60405180910390f35b6100aa60048036038101906100a59190610ada565b6101ff565b005b6100b4610377565b6040516100c19190610b23565b60405180910390f35b6100e460048036038101906100df91906107c7565b61037d565b005b6100ee6105e7565b6040516100fb9190610ced565b60405180910390f35b6000818154811061011457600080fd5b906000526020600020906004020160009150905080600001549080600101805461013d90610d3e565b80601f016020809104026020016040519081016040528092919081815260200182805461016990610d3e565b80156101b65780601f1061018b576101008083540402835291602001916101b6565b820191906000526020600020905b81548152906001019060200180831161019957829003601f168201915b5050505050908060020160009054906101000a900460ff16908060020160019054906101000a900473ffffffffffffffffffffffffffffffffffffffff16908060030154905085565b60006040518060a0016040528060015481526020018381526020016000600281111561022e5761022d610893565b5b81526020013373ffffffffffffffffffffffffffffffffffffffff16815260200142815250908060018154018082558091505060019003906000526020600020906004020160009091909190915060008201518160000155602082015181600101908161029b9190610f1b565b5060408201518160020160006101000a81548160ff021916908360028111156102c7576102c6610893565b5b021790555060608201518160020160016101000a81548173ffffffffffffffffffffffffffffffffffffffff021916908373ffffffffffffffffffffffffffffffffffffffff1602179055506080820151816003015550507fe537ec0a956a6f958e38a8e8b2286b72697a9a677e42619fc203c802d02a2269600154823360405161035493929190610fed565b60405180910390a16001600081548092919061036f9061105a565b919050555050565b60015481565b60008054905081106103c4576040517f08c379a00000000000000000000000000000000000000000000000000000000081526004016103bb906110ee565b60405180910390fd5b60008082815481106103d9576103d861110e565b5b906000526020600020906004020190508060020160019054906101000a900473ffffffffffffffffffffffffffffffffffffffff1673ffffffffffffffffffffffffffffffffffffffff163373ffffffffffffffffffffffffffffffffffffffff161461047b576040517f08c379a0000000000000000000000000000000000000000000000000000000008152600401610472906111af565b60405180910390fd5b6000600281111561048f5761048e610893565b5b8160020160009054906101000a900460ff1660028111156104b3576104b2610893565b5b036104ea5760018160020160006101000a81548160ff021916908360028111156104e0576104df610893565b5b0217905550610595565b600160028111156104fe576104fd610893565b5b8160020160009054906101000a900460ff16600281111561052257610521610893565b5b036105595760028160020160006101000a81548160ff0219169083600281111561054f5761054e610893565b5b0217905550610594565b6040517f08c379a000000000000000000000000000000000000000000000000000000000815260040161058b9061121b565b60405180910390fd5b5b7fb17c83f2ea1a6a959b8e44ec5149c94a3c9c65ed6590968b6ad07486dbdcc52a81600001548260020160009054906101000a900460ff166040516105db92919061123b565b60405180910390a15050565b60606000805480602002602001604051908101604052809291908181526020016000905b8282101561077457838290600052602060002090600402016040518060a00160405290816000820154815260200160018201805461064890610d3e565b80601f016020809104026020016040519081016040528092919081815260200182805461067490610d3e565b80156106c15780601f10610696576101008083540402835291602001916106c1565b820191906000526020600020905b8154815290600101906020018083116106a457829003601f168201915b505050505081526020016002820160009054906101000a900460ff1660028111156106ef576106ee610893565b5b600281111561070157610700610893565b5b81526020016002820160019054906101000a900473ffffffffffffffffffffffffffffffffffffffff1673ffffffffffffffffffffffffffffffffffffffff1673ffffffffffffffffffffffffffffffffffffffff1681526020016003820154815250508152602001906001019061060b565b50505050905090565b6000604051905090565b600080fd5b600080fd5b6000819050919050565b6107a481610791565b81146107af57600080fd5b50565b6000813590506107c18161079b565b92915050565b6000602082840312156107dd576107dc610787565b5b60006107eb848285016107b2565b91505092915050565b6107fd81610791565b82525050565b600081519050919050565b600082825260208201905092915050565b60005b8381101561083d578082015181840152602081019050610822565b60008484015250505050565b6000601f19601f8301169050919050565b600061086582610803565b61086f818561080e565b935061087f81856020860161081f565b61088881610849565b840191505092915050565b7f4e487b7100000000000000000000000000000000000000000000000000000000600052602160045260246000fd5b600381106108d3576108d2610893565b5b50565b60008190506108e4826108c2565b919050565b60006108f4826108d6565b9050919050565b610904816108e9565b82525050565b600073ffffffffffffffffffffffffffffffffffffffff82169050919050565b60006109358261090a565b9050919050565b6109458161092a565b82525050565b600060a08201905061096060008301886107f4565b8181036020830152610972818761085a565b905061098160408301866108fb565b61098e606083018561093c565b61099b60808301846107f4565b9695505050505050565b600080fd5b600080fd5b7f4e487b7100000000000000000000000000000000000000000000000000000000600052604160045260246000fd5b6109e782610849565b810181811067ffffffffffffffff82111715610a0657610a056109af565b5b80604052505050565b6000610a1961077d565b9050610a2582826109de565b919050565b600067ffffffffffffffff821115610a4557610a446109af565b5b610a4e82610849565b9050602081019050919050565b82818337600083830152505050565b6000610a7d610a7884610a2a565b610a0f565b905082815260208101848484011115610a9957610a986109aa565b5b610aa4848285610a5b565b509392505050565b600082601f830112610ac157610ac06109a5565b5b8135610ad1848260208601610a6a565b91505092915050565b600060208284031215610af057610aef610787565b5b600082013567ffffffffffffffff811115610b0e57610b0d61078c565b5b610b1a84828501610aac565b91505092915050565b6000602082019050610b3860008301846107f4565b92915050565b600081519050919050565b600082825260208201905092915050565b6000819050602082019050919050565b610b7381610791565b82525050565b600082825260208201905092915050565b6000610b9582610803565b610b9f8185610b79565b9350610baf81856020860161081f565b610bb881610849565b840191505092915050565b610bcc816108e9565b82525050565b610bdb8161092a565b82525050565b600060a083016000830151610bf96000860182610b6a565b5060208301518482036020860152610c118282610b8a565b9150506040830151610c266040860182610bc3565b506060830151610c396060860182610bd2565b506080830151610c4c6080860182610b6a565b508091505092915050565b6000610c638383610be1565b905092915050565b6000602082019050919050565b6000610c8382610b3e565b610c8d8185610b49565b935083602082028501610c9f85610b5a565b8060005b85811015610cdb5784840389528151610cbc8582610c57565b9450610cc783610c6b565b925060208a01995050600181019050610ca3565b50829750879550505050505092915050565b60006020820190508181036000830152610d078184610c78565b905092915050565b7f4e487b7100000000000000000000000000000000000000000000000000000000600052602260045260246000fd5b60006002820490506001821680610d5657607f821691505b602082108103610d6957610d68610d0f565b5b50919050565b60008190508160005260206000209050919050565b60006020601f8301049050919050565b600082821b905092915050565b600060088302610dd17fffffffffffffffffffffffffffffffffffffffffffffffffffffffffffffffff82610d94565b610ddb8683610d94565b95508019841693508086168417925050509392505050565b6000819050919050565b6000610e18610e13610e0e84610791565b610df3565b610791565b9050919050565b6000819050919050565b610e3283610dfd565b610e46610e3e82610e1f565b848454610da1565b825550505050565b600090565b610e5b610e4e565b610e66818484610e29565b505050565b5b81811015610e8a57610e7f600082610e53565b600181019050610e6c565b5050565b601f821115610ecf57610ea081610d6f565b610ea984610d84565b81016020851015610eb8578190505b610ecc610ec485610d84565b830182610e6b565b50505b505050565b600082821c905092915050565b6000610ef260001984600802610ed4565b1980831691505092915050565b6000610f0b8383610ee1565b9150826002028217905092915050565b610f2482610803565b67ffffffffffffffff811115610f3d57610f3c6109af565b5b610f478254610d3e565b610f52828285610e8e565b600060209050601f831160018114610f855760008415610f73578287015190505b610f7d8582610eff565b865550610fe5565b601f198416610f9386610d6f565b60005b82811015610fbb57848901518255600182019150602085019450602081019050610f96565b86831015610fd85784890151610fd4601f891682610ee1565b8355505b6001600288020188555050505b505050505050565b600060608201905061100260008301866107f4565b8181036020830152611014818561085a565b9050611023604083018461093c565b949350505050565b7f4e487b7100000000000000000000000000000000000000000000000000000000600052601160045260246000fd5b600061106582610791565b91507fffffffffffffffffffffffffffffffffffffffffffffffffffffffffffffffff82036110975761109661102b565b5b600182019050919050565b7f4c6f74746f20696e6573697374656e7465000000000000000000000000000000600082015250565b60006110d860118361080e565b91506110e3826110a2565b602082019050919050565b60006020820190508181036000830152611107816110cb565b9050919050565b7f4e487b7100000000000000000000000000000000000000000000000000000000600052603260045260246000fd5b7f536f6c6f20696c2070726f647574746f72652070756f20616767696f726e617260008201527f6500000000000000000000000000000000000000000000000000000000000000602082015250565b600061119960218361080e565b91506111a48261113d565b604082019050919050565b600060208201905081810360008301526111c88161118c565b9050919050565b7f4369636c6f2064692070726f64757a696f6e6520636f6d706c657461746f0000600082015250565b6000611205601e8361080e565b9150611210826111cf565b602082019050919050565b60006020820190508181036000830152611234816111f8565b9050919050565b600060408201905061125060008301856107f4565b61125d60208301846108fb565b939250505056fea264697066735822122029ed8a38a2a1cc857d7b5a6442b47e9f1e4626d5c9ca092e7e53bbb36f92c8dd64736f6c63430008110033",
  "immutableReferences": {},
  "source": "// SPDX-License-Identifier: MIT\r\npragma solidity ^0.8.0;\r\n\r\ncontract WineProduction {\r\n    enum Stato { Creato, Vendemmiato, Fermentato }\r\n\r\n    struct Lotto {\r\n        uint256 id;\r\n        string tipo;\r\n        Stato stato;\r\n        address produttore;\r\n        uint256 timestamp;\r\n    }\r\n\r\n    Lotto[] public lotti;\r\n    uint256 public nextId = 1;\r\n\r\n    event LottoCreato(uint256 id, string tipo, address produttore);\r\n    event StatoAggiornato(uint256 id, Stato nuovoStato);\r\n\r\n    // Funzione per creare un nuovo lotto\r\n    function creaLotto(string memory _tipo) public {\r\n        lotti.push(Lotto(nextId, _tipo, Stato.Creato, msg.sender, block.timestamp));\r\n        emit LottoCreato(nextId, _tipo, msg.sender);\r\n        nextId++;\r\n    }\r\n\r\n    // Funzione per avanzare lo stato (Sequenziale)\r\n    function avanzaStato(uint256 _index) public {\r\n        require(_index < lotti.length, \"Lotto inesistente\");\r\n        Lotto storage lotto = lotti[_index];\r\n        require(msg.sender == lotto.produttore, \"Solo il produttore puo aggiornare\");\r\n\r\n        if (lotto.stato == Stato.Creato) {\r\n            lotto.stato = Stato.Vendemmiato;\r\n        } else if (lotto.stato == Stato.Vendemmiato) {\r\n            lotto.stato = Stato.Fermentato;\r\n        } else {\r\n            revert(\"Ciclo di produzione completato\");\r\n        }\r\n\r\n        emit StatoAggiornato(lotto.id, lotto.stato);\r\n    }\r\n\r\n    // Funzione per leggere tutti i lotti\r\n    function getLotti() public view returns (Lotto[] memory) {\r\n        return lotti;\r\n    }\r\n}",
  "sourcePath": "C:\\Utili\\Tutto\\università\\Magistrale\\Blockchain\\vinum-veritas\\backend\\contracts\\WineProduction.sol",
  "compiler": {
    "name": "solc",
    "version": "0.8.17+commit.8df45f5f.Emscripten.clang"
  },
  "schemaVersion": "3.4.14",
  "updatedAt": "2025-12-22T15:04:58.458Z",
  "networkType": "ethereum",
  "devdoc": {
    "kind": "dev",
    "methods": {},
    "version": 1
  },
  "userdoc": {
    "kind": "user",
    "methods": {},
    "version": 1
  }
}