{
  "contractName": "WineProduction",
  "abi": [
    {
      "inputs": [],
      "stateMutability": "nonpayable",
      "type": "constructor"
    },
    {
      "anonymous": false,
      "inputs": [
        {
          "indexed": true,
          "internalType": "uint256",
          "name": "lottoId",
          "type": "uint256"
        },
        {
          "indexed": false,
          "internalType": "string",
          "name": "motivazione",
          "type": "string"
        },
        {
          "indexed": false,
          "internalType": "address",
          "name": "utente",
          "type": "address"
        }
      ],
      "name": "FaseSegnalata",
      "type": "event"
    },
    {
      "anonymous": false,
      "inputs": [
        {
          "indexed": true,
          "internalType": "uint256",
          "name": "lottoId",
          "type": "uint256"
        },
        {
          "indexed": false,
          "internalType": "enum WineProduction.Stato",
          "name": "nuovoStato",
          "type": "uint8"
        }
      ],
      "name": "LottoRiabilitato",
      "type": "event"
    },
    {
      "inputs": [],
      "name": "ADMIN",
      "outputs": [
        {
          "internalType": "bytes32",
          "name": "",
          "type": "bytes32"
        }
      ],
      "stateMutability": "view",
      "type": "function",
      "constant": true
    },
    {
      "inputs": [],
      "name": "AGRICOLTORE",
      "outputs": [
        {
          "internalType": "bytes32",
          "name": "",
          "type": "bytes32"
        }
      ],
      "stateMutability": "view",
      "type": "function",
      "constant": true
    },
    {
      "inputs": [],
      "name": "CANTINIERE",
      "outputs": [
        {
          "internalType": "bytes32",
          "name": "",
          "type": "bytes32"
        }
      ],
      "stateMutability": "view",
      "type": "function",
      "constant": true
    },
    {
      "inputs": [],
      "name": "CORRIERE",
      "outputs": [
        {
          "internalType": "bytes32",
          "name": "",
          "type": "bytes32"
        }
      ],
      "stateMutability": "view",
      "type": "function",
      "constant": true
    },
    {
      "inputs": [],
      "name": "DISTRIBUTORE",
      "outputs": [
        {
          "internalType": "bytes32",
          "name": "",
          "type": "bytes32"
        }
      ],
      "stateMutability": "view",
      "type": "function",
      "constant": true
    },
    {
      "inputs": [],
      "name": "SUPERVISORE",
      "outputs": [
        {
          "internalType": "bytes32",
          "name": "",
          "type": "bytes32"
        }
      ],
      "stateMutability": "view",
      "type": "function",
      "constant": true
    },
    {
      "inputs": [
        {
          "internalType": "uint256",
          "name": "",
          "type": "uint256"
        }
      ],
      "name": "lotti",
      "outputs": [
        {
          "internalType": "uint256",
          "name": "id",
          "type": "uint256"
        },
        {
          "internalType": "string",
          "name": "tipo",
          "type": "string"
        },
        {
          "internalType": "enum WineProduction.Stato",
          "name": "stato",
          "type": "uint8"
        },
        {
          "internalType": "address",
          "name": "agricoltore",
          "type": "address"
        },
        {
          "internalType": "address",
          "name": "supervisore",
          "type": "address"
        },
        {
          "internalType": "address",
          "name": "cantiniere",
          "type": "address"
        },
        {
          "internalType": "address",
          "name": "corriere",
          "type": "address"
        },
        {
          "internalType": "address",
          "name": "distributore",
          "type": "address"
        }
      ],
      "stateMutability": "view",
      "type": "function",
      "constant": true
    },
    {
      "inputs": [],
      "name": "nextId",
      "outputs": [
        {
          "internalType": "uint256",
          "name": "",
          "type": "uint256"
        }
      ],
      "stateMutability": "view",
      "type": "function",
      "constant": true
    },
    {
      "inputs": [
        {
          "internalType": "address",
          "name": "",
          "type": "address"
        }
      ],
      "name": "roles",
      "outputs": [
        {
          "internalType": "bytes32",
          "name": "",
          "type": "bytes32"
        }
      ],
      "stateMutability": "view",
      "type": "function",
      "constant": true
    },
    {
      "inputs": [
        {
          "internalType": "uint256",
          "name": "",
          "type": "uint256"
        }
      ],
      "name": "userAddresses",
      "outputs": [
        {
          "internalType": "address",
          "name": "",
          "type": "address"
        }
      ],
      "stateMutability": "view",
      "type": "function",
      "constant": true
    },
    {
      "inputs": [
        {
          "internalType": "address",
          "name": "",
          "type": "address"
        }
      ],
      "name": "users",
      "outputs": [
        {
          "internalType": "string",
          "name": "name",
          "type": "string"
        },
        {
          "internalType": "string",
          "name": "role",
          "type": "string"
        },
        {
          "internalType": "bool",
          "name": "isActive",
          "type": "bool"
        }
      ],
      "stateMutability": "view",
      "type": "function",
      "constant": true
    },
    {
      "inputs": [
        {
          "internalType": "string",
          "name": "_tipo",
          "type": "string"
        },
        {
          "internalType": "address",
          "name": "_agricoltore",
          "type": "address"
        },
        {
          "internalType": "address",
          "name": "_supervisore",
          "type": "address"
        },
        {
          "internalType": "address",
          "name": "_cantiniere",
          "type": "address"
        },
        {
          "internalType": "address",
          "name": "_corriere",
          "type": "address"
        },
        {
          "internalType": "address",
          "name": "_distributore",
          "type": "address"
        }
      ],
      "name": "creaLotto",
      "outputs": [],
      "stateMutability": "nonpayable",
      "type": "function"
    },
    {
      "inputs": [
        {
          "internalType": "uint256",
          "name": "_index",
          "type": "uint256"
        },
        {
          "internalType": "string",
          "name": "_luogo",
          "type": "string"
        }
      ],
      "name": "avanzaStato",
      "outputs": [],
      "stateMutability": "nonpayable",
      "type": "function"
    },
    {
      "inputs": [
        {
          "internalType": "uint256",
          "name": "_index",
          "type": "uint256"
        },
        {
          "internalType": "string",
          "name": "_motivazione",
          "type": "string"
        }
      ],
      "name": "segnalaProblema",
      "outputs": [],
      "stateMutability": "nonpayable",
      "type": "function"
    },
    {
      "inputs": [
        {
          "internalType": "uint256",
          "name": "_index",
          "type": "uint256"
        },
        {
          "internalType": "enum WineProduction.Stato",
          "name": "_nuovoStato",
          "type": "uint8"
        }
      ],
      "name": "riabilitaLotto",
      "outputs": [],
      "stateMutability": "nonpayable",
      "type": "function"
    },
    {
      "inputs": [
        {
          "internalType": "uint256",
          "name": "_index",
          "type": "uint256"
        }
      ],
      "name": "eliminaLotto",
      "outputs": [],
      "stateMutability": "nonpayable",
      "type": "function"
    },
    {
      "inputs": [
        {
          "internalType": "uint256",
          "name": "_index",
          "type": "uint256"
        }
      ],
      "name": "getLotto",
      "outputs": [
        {
          "internalType": "uint256",
          "name": "id",
          "type": "uint256"
        },
        {
          "internalType": "string",
          "name": "tipo",
          "type": "string"
        },
        {
          "internalType": "enum WineProduction.Stato",
          "name": "stato",
          "type": "uint8"
        },
        {
          "internalType": "address",
          "name": "agricoltore",
          "type": "address"
        },
        {
          "internalType": "address",
          "name": "supervisore",
          "type": "address"
        },
        {
          "internalType": "address",
          "name": "cantiniere",
          "type": "address"
        },
        {
          "internalType": "address",
          "name": "corriere",
          "type": "address"
        },
        {
          "internalType": "address",
          "name": "distributore",
          "type": "address"
        },
        {
          "internalType": "uint256[]",
          "name": "timestamps",
          "type": "uint256[]"
        },
        {
          "internalType": "string[]",
          "name": "luoghi",
          "type": "string[]"
        }
      ],
      "stateMutability": "view",
      "type": "function",
      "constant": true
    },
    {
      "inputs": [],
      "name": "getLotti",
      "outputs": [
        {
          "components": [
            {
              "internalType": "uint256",
              "name": "id",
              "type": "uint256"
            },
            {
              "internalType": "string",
              "name": "tipo",
              "type": "string"
            },
            {
              "internalType": "enum WineProduction.Stato",
              "name": "stato",
              "type": "uint8"
            },
            {
              "internalType": "uint256[]",
              "name": "timestamps",
              "type": "uint256[]"
            },
            {
              "internalType": "string[]",
              "name": "luoghi",
              "type": "string[]"
            },
            {
              "internalType": "address",
              "name": "agricoltore",
              "type": "address"
            },
            {
              "internalType": "address",
              "name": "supervisore",
              "type": "address"
            },
            {
              "internalType": "address",
              "name": "cantiniere",
              "type": "address"
            },
            {
              "internalType": "address",
              "name": "corriere",
              "type": "address"
            },
            {
              "internalType": "address",
              "name": "distributore",
              "type": "address"
            }
          ],
          "internalType": "struct WineProduction.Lotto[]",
          "name": "",
          "type": "tuple[]"
        }
      ],
      "stateMutability": "view",
      "type": "function",
      "constant": true
    },
    {
      "inputs": [
        {
          "internalType": "address",
          "name": "_user",
          "type": "address"
        },
        {
          "internalType": "string",
          "name": "_name",
          "type": "string"
        },
        {
          "internalType": "string",
          "name": "_roleName",
          "type": "string"
        }
      ],
      "name": "addUser",
      "outputs": [],
      "stateMutability": "nonpayable",
      "type": "function"
    },
    {
      "inputs": [],
      "name": "getAllUserAddresses",
      "outputs": [
        {
          "internalType": "address[]",
          "name": "",
          "type": "address[]"
        }
      ],
      "stateMutability": "view",
      "type": "function",
      "constant": true
    },
    {
      "inputs": [
        {
          "internalType": "address",
          "name": "_user",
          "type": "address"
        }
      ],
      "name": "eliminaUtente",
      "outputs": [],
      "stateMutability": "nonpayable",
      "type": "function"
    },
    {
      "inputs": [
        {
          "internalType": "uint256",
          "name": "_index",
          "type": "uint256"
        }
      ],
      "name": "getLottoTimestamps",
      "outputs": [
        {
          "internalType": "uint256[]",
          "name": "",
          "type": "uint256[]"
        }
      ],
      "stateMutability": "view",
      "type": "function",
      "constant": true
    },
    {
      "inputs": [
        {
          "internalType": "uint256",
          "name": "_index",
          "type": "uint256"
        }
      ],
      "name": "getLottoLuoghi",
      "outputs": [
        {
          "internalType": "string[]",
          "name": "",
          "type": "string[]"
        }
      ],
      "stateMutability": "view",
      "type": "function",
      "constant": true
    }
  ],
  "bytecode": "0x6080604052600160045534801561001557600080fd5b507fdf8b4c520ffe197c5343c6f5aec59570151ef9a492f2c624fd45ddde6135ec426000803373ffffffffffffffffffffffffffffffffffffffff1673ffffffffffffffffffffffffffffffffffffffff1681526020019081526020016000208190555061471d806100886000396000f3fe608060405234801561001057600080fd5b506004361061014c5760003560e01c8063530aef10116100c3578063993746421161007c57806399374642146103ad578063a87430ba146103dd578063b009d7a11461040f578063b619bd961461042d578063d7554a681461044b578063f674a916146104675761014c565b8063530aef10146102d9578063602eb2f61461030957806361b8ce8c1461032757806372fa260f14610345578063742e3811146103755780637721158b146103915761014c565b8063363efa0a11610115578063363efa0a146102195780633709ad78146102375780633d47fd40146102555780633dc6e7b3146102715780634de5626c1461028d578063502c9bd5146102a95761014c565b8062d281da14610151578063054227721461016d5780630c657478146101a45780632a0acc6a146101dd5780632f330023146101fb575b600080fd5b61016b60048036038101906101669190612fc7565b610485565b005b61018760048036038101906101829190613023565b610bad565b60405161019b989796959493929190613196565b60405180910390f35b6101be60048036038101906101b99190613023565b610d3a565b6040516101d49a999897969594939291906133e5565b60405180910390f35b6101e5611066565b6040516101f291906134af565b60405180910390f35b61020361108a565b6040516102109190613588565b60405180910390f35b610221611118565b60405161022e91906134af565b60405180910390f35b61023f61113c565b60405161024c91906134af565b60405180910390f35b61026f600480360381019061026a9190612fc7565b611160565b005b61028b600480360381019061028691906135d6565b611374565b005b6102a760048036038101906102a29190613628565b6116d4565b005b6102c360048036038101906102be9190613023565b6119b2565b6040516102d09190613668565b60405180910390f35b6102f360048036038101906102ee9190613023565b6119f1565b6040516103009190613683565b60405180910390f35b610311611b36565b60405161031e91906134af565b60405180910390f35b61032f611b5a565b60405161033c91906136a5565b60405180910390f35b61035f600480360381019061035a9190613023565b611b60565b60405161036c91906136c0565b60405180910390f35b61038f600480360381019061038a91906136e2565b611c24565b005b6103ab60048036038101906103a69190613023565b611f32565b005b6103c760048036038101906103c291906135d6565b61243b565b6040516103d491906134af565b60405180910390f35b6103f760048036038101906103f291906135d6565b612453565b604051610406939291906137a6565b60405180910390f35b61041761259a565b60405161042491906134af565b60405180910390f35b6104356125be565b6040516104429190613a99565b60405180910390f35b61046560048036038101906104609190613abb565b6129d4565b005b61046f612ca1565b60405161047c91906134af565b60405180910390f35b60038054905082106104cc576040517f08c379a00000000000000000000000000000000000000000000000000000000081526004016104c390613b92565b60405180910390fd5b6000600383815481106104e2576104e1613bb2565b5b90600052602060002090600a02019050600880811115610505576105046130de565b5b8160020160009054906101000a900460ff166008811115610529576105286130de565b5b03610569576040517f08c379a000000000000000000000000000000000000000000000000000000000815260040161056090613c2d565b60405180910390fd5b60008160020160009054906101000a900460ff16905060008060003373ffffffffffffffffffffffffffffffffffffffff1673ffffffffffffffffffffffffffffffffffffffff168152602001908152602001600020549050600060088111156105d6576105d56130de565b5b8260088111156105e9576105e86130de565b5b036106b0577f2cf85fe15d4ee363be02bc59776a4870c18edd8ff76c49234fa76f6645e442158114801561066c57508260050160009054906101000a900473ffffffffffffffffffffffffffffffffffffffff1673ffffffffffffffffffffffffffffffffffffffff163373ffffffffffffffffffffffffffffffffffffffff16145b6106ab576040517f08c379a00000000000000000000000000000000000000000000000000000000081526004016106a290613c99565b60405180910390fd5b610ad7565b600160088111156106c4576106c36130de565b5b8260088111156106d7576106d66130de565b5b14806107075750600260088111156106f2576106f16130de565b5b826008811115610705576107046130de565b5b145b156107ce577f9337c84965dad9c5be73858d8944f2762885e962d74177742c0a20a7e7ad22ae8114801561078a57508260060160009054906101000a900473ffffffffffffffffffffffffffffffffffffffff1673ffffffffffffffffffffffffffffffffffffffff163373ffffffffffffffffffffffffffffffffffffffff16145b6107c9576040517f08c379a00000000000000000000000000000000000000000000000000000000081526004016107c090613d05565b60405180910390fd5b610ad6565b600360088111156107e2576107e16130de565b5b8260088111156107f5576107f46130de565b5b036108bc577fef3622f293edb090d8a3b2cc5caa5df142b73c51f9f008eb8c34c66a9377593a8114801561087857508260070160009054906101000a900473ffffffffffffffffffffffffffffffffffffffff1673ffffffffffffffffffffffffffffffffffffffff163373ffffffffffffffffffffffffffffffffffffffff16145b6108b7576040517f08c379a00000000000000000000000000000000000000000000000000000000081526004016108ae90613d71565b60405180910390fd5b610ad5565b600460088111156108d0576108cf6130de565b5b8260088111156108e3576108e26130de565b5b036109aa577ffbf573f3c4bccce46c1dbf63795f7fadf7bb39d8917933246b61e08ad44b1be58114801561096657508260080160009054906101000a900473ffffffffffffffffffffffffffffffffffffffff1673ffffffffffffffffffffffffffffffffffffffff163373ffffffffffffffffffffffffffffffffffffffff16145b6109a5576040517f08c379a000000000000000000000000000000000000000000000000000000000815260040161099c90613ddd565b60405180910390fd5b610ad4565b600560088111156109be576109bd6130de565b5b8260088111156109d1576109d06130de565b5b03610a98577f0ce117c3e3256b329a75f369991e5099ec385240832e5464fdfe86571d48732681148015610a5457508260090160009054906101000a900473ffffffffffffffffffffffffffffffffffffffff1673ffffffffffffffffffffffffffffffffffffffff163373ffffffffffffffffffffffffffffffffffffffff16145b610a93576040517f08c379a0000000000000000000000000000000000000000000000000000000008152600401610a8a90613e49565b60405180910390fd5b610ad3565b6040517f08c379a0000000000000000000000000000000000000000000000000000000008152600401610aca90613eb5565b60405180910390fd5b5b5b5b5b60018360020160009054906101000a900460ff166008811115610afd57610afc6130de565b5b610b079190613f04565b6008811115610b1957610b186130de565b5b8360020160006101000a81548160ff02191690836008811115610b3f57610b3e6130de565b5b0217905550826003014290806001815401808255809150506001900390600052602060002001600090919091909150558260040184908060018154018082558091505060019003906000526020600020016000909190919091509081610ba59190614144565b505050505050565b60038181548110610bbd57600080fd5b90600052602060002090600a0201600091509050806000015490806001018054610be690613f67565b80601f0160208091040260200160405190810160405280929190818152602001828054610c1290613f67565b8015610c5f5780601f10610c3457610100808354040283529160200191610c5f565b820191906000526020600020905b815481529060010190602001808311610c4257829003601f168201915b5050505050908060020160009054906101000a900460ff16908060050160009054906101000a900473ffffffffffffffffffffffffffffffffffffffff16908060060160009054906101000a900473ffffffffffffffffffffffffffffffffffffffff16908060070160009054906101000a900473ffffffffffffffffffffffffffffffffffffffff16908060080160009054906101000a900473ffffffffffffffffffffffffffffffffffffffff16908060090160009054906101000a900473ffffffffffffffffffffffffffffffffffffffff16905088565b600060606000806000806000806060806003805490508b10610d91576040517f08c379a0000000000000000000000000000000000000000000000000000000008152600401610d8890614262565b60405180910390fd5b600060038c81548110610da757610da6613bb2565b5b90600052602060002090600a020190508060000154816001018260020160009054906101000a900460ff168360050160009054906101000a900473ffffffffffffffffffffffffffffffffffffffff168460060160009054906101000a900473ffffffffffffffffffffffffffffffffffffffff168560070160009054906101000a900473ffffffffffffffffffffffffffffffffffffffff168660080160009054906101000a900473ffffffffffffffffffffffffffffffffffffffff168760090160009054906101000a900473ffffffffffffffffffffffffffffffffffffffff168860030189600401888054610e9f90613f67565b80601f0160208091040260200160405190810160405280929190818152602001828054610ecb90613f67565b8015610f185780601f10610eed57610100808354040283529160200191610f18565b820191906000526020600020905b815481529060010190602001808311610efb57829003601f168201915b5050505050985081805480602002602001604051908101604052809291908181526020018280548015610f6a57602002820191906000526020600020905b815481526020019060010190808311610f56575b5050505050915080805480602002602001604051908101604052809291908181526020016000905b8282101561103e578382906000526020600020018054610fb190613f67565b80601f0160208091040260200160405190810160405280929190818152602001828054610fdd90613f67565b801561102a5780601f10610fff5761010080835404028352916020019161102a565b820191906000526020600020905b81548152906001019060200180831161100d57829003601f168201915b505050505081526020019060010190610f92565b5050505090509a509a509a509a509a509a509a509a509a509a50509193959799509193959799565b7fdf8b4c520ffe197c5343c6f5aec59570151ef9a492f2c624fd45ddde6135ec4281565b6060600280548060200260200160405190810160405280929190818152602001828054801561110e57602002820191906000526020600020905b8160009054906101000a900473ffffffffffffffffffffffffffffffffffffffff1673ffffffffffffffffffffffffffffffffffffffff16815260200190600101908083116110c4575b5050505050905090565b7ffbf573f3c4bccce46c1dbf63795f7fadf7bb39d8917933246b61e08ad44b1be581565b7fef3622f293edb090d8a3b2cc5caa5df142b73c51f9f008eb8c34c66a9377593a81565b60038054905082106111a7576040517f08c379a000000000000000000000000000000000000000000000000000000000815260040161119e90613b92565b60405180910390fd5b6000600383815481106111bd576111bc613bb2565b5b90600052602060002090600a020190506008808111156111e0576111df6130de565b5b8160020160009054906101000a900460ff166008811115611204576112036130de565b5b14158015611248575060076008811115611221576112206130de565b5b8160020160009054906101000a900460ff166008811115611245576112446130de565b5b14155b611287576040517f08c379a000000000000000000000000000000000000000000000000000000000815260040161127e906142ce565b60405180910390fd5b60088160020160006101000a81548160ff021916908360088111156112af576112ae6130de565b5b02179055508060030142908060018154018082558091505060019003906000526020600020016000909190919091505580600401826040516020016112f49190614376565b6040516020818303038152906040529080600181540180825580915050600190039060005260206000200160009091909190915090816113349190614144565b50827f19c5182144f2eea3707bed9cd15649e5cc896c5cf213ace30b8247a73214d9af8333604051611367929190614398565b60405180910390a2505050565b7fdf8b4c520ffe197c5343c6f5aec59570151ef9a492f2c624fd45ddde6135ec426000803373ffffffffffffffffffffffffffffffffffffffff1673ffffffffffffffffffffffffffffffffffffffff1681526020019081526020016000205414611414576040517f08c379a000000000000000000000000000000000000000000000000000000000815260040161140b90614414565b60405180910390fd5b600160008273ffffffffffffffffffffffffffffffffffffffff1673ffffffffffffffffffffffffffffffffffffffff16815260200190815260200160002060020160009054906101000a900460ff166114a3576040517f08c379a000000000000000000000000000000000000000000000000000000000815260040161149a90614480565b60405180910390fd5b6000600160008373ffffffffffffffffffffffffffffffffffffffff1673ffffffffffffffffffffffffffffffffffffffff16815260200190815260200160002060020160006101000a81548160ff0219169083151502179055506000801b6000808373ffffffffffffffffffffffffffffffffffffffff1673ffffffffffffffffffffffffffffffffffffffff1681526020019081526020016000208190555060005b6002805490508110156116d0578173ffffffffffffffffffffffffffffffffffffffff166002828154811061157f5761157e613bb2565b5b9060005260206000200160009054906101000a900473ffffffffffffffffffffffffffffffffffffffff1673ffffffffffffffffffffffffffffffffffffffff16036116bd57600260016002805490506115d991906144a0565b815481106115ea576115e9613bb2565b5b9060005260206000200160009054906101000a900473ffffffffffffffffffffffffffffffffffffffff166002828154811061162957611628613bb2565b5b9060005260206000200160006101000a81548173ffffffffffffffffffffffffffffffffffffffff021916908373ffffffffffffffffffffffffffffffffffffffff1602179055506002805480611683576116826144d4565b5b6001900381819060005260206000200160006101000a81549073ffffffffffffffffffffffffffffffffffffffff021916905590556116d0565b80806116c890614503565b915050611547565b5050565b7fdf8b4c520ffe197c5343c6f5aec59570151ef9a492f2c624fd45ddde6135ec426000803373ffffffffffffffffffffffffffffffffffffffff1673ffffffffffffffffffffffffffffffffffffffff1681526020019081526020016000205414611774576040517f08c379a000000000000000000000000000000000000000000000000000000000815260040161176b90614414565b60405180910390fd5b60038054905082106117bb576040517f08c379a00000000000000000000000000000000000000000000000000000000081526004016117b290613b92565b60405180910390fd5b6008808111156117ce576117cd6130de565b5b600383815481106117e2576117e1613bb2565b5b90600052602060002090600a020160020160009054906101000a900460ff166008811115611813576118126130de565b5b14611853576040517f08c379a000000000000000000000000000000000000000000000000000000000815260040161184a90614597565b60405180910390fd5b806003838154811061186857611867613bb2565b5b90600052602060002090600a020160020160006101000a81548160ff0219169083600881111561189b5761189a6130de565b5b0217905550600382815481106118b4576118b3613bb2565b5b90600052602060002090600a020160030142908060018154018082558091505060019003906000526020600020016000909190919091505560038281548110611900576118ff613bb2565b5b90600052602060002090600a020160040180600181540180825580915050600190039060005260206000200160006040518060400160405280601481526020017f52696162696c697461746f2064612041646d696e000000000000000000000000815250909190915090816119759190614144565b50817f7e9fb37fde3d3bf4a61f101747d82ec869ff5673b70b9750a3d58747a93953cf826040516119a691906145b7565b60405180910390a25050565b600281815481106119c257600080fd5b906000526020600020016000915054906101000a900473ffffffffffffffffffffffffffffffffffffffff1681565b60606003805490508210611a3a576040517f08c379a0000000000000000000000000000000000000000000000000000000008152600401611a3190614262565b60405180910390fd5b60038281548110611a4e57611a4d613bb2565b5b90600052602060002090600a0201600401805480602002602001604051908101604052809291908181526020016000905b82821015611b2b578382906000526020600020018054611a9e90613f67565b80601f0160208091040260200160405190810160405280929190818152602001828054611aca90613f67565b8015611b175780601f10611aec57610100808354040283529160200191611b17565b820191906000526020600020905b815481529060010190602001808311611afa57829003601f168201915b505050505081526020019060010190611a7f565b505050509050919050565b7f2cf85fe15d4ee363be02bc59776a4870c18edd8ff76c49234fa76f6645e4421581565b60045481565b60606003805490508210611ba9576040517f08c379a0000000000000000000000000000000000000000000000000000000008152600401611ba090614262565b60405180910390fd5b60038281548110611bbd57611bbc613bb2565b5b90600052602060002090600a0201600301805480602002602001604051908101604052809291908181526020018280548015611c1857602002820191906000526020600020905b815481526020019060010190808311611c04575b50505050509050919050565b7fdf8b4c520ffe197c5343c6f5aec59570151ef9a492f2c624fd45ddde6135ec426000803373ffffffffffffffffffffffffffffffffffffffff1673ffffffffffffffffffffffffffffffffffffffff1681526020019081526020016000205414611cc4576040517f08c379a0000000000000000000000000000000000000000000000000000000008152600401611cbb90614414565b60405180910390fd5b600060036001816001815401808255809150500390600052602060002090600a0201905060046000815480929190611cfb90614503565b91905055816000018190555086816001019081611d189190614144565b5060008160020160006101000a81548160ff02191690836008811115611d4157611d406130de565b5b0217905550806003014290806001815401808255809150506001900390600052602060002001600090919091909150558060040180600181540180825580915050600190039060005260206000200160006040518060400160405280600f81526020017f437265617a696f6e65206c6f74746f000000000000000000000000000000000081525090919091509081611dd99190614144565b50858160050160006101000a81548173ffffffffffffffffffffffffffffffffffffffff021916908373ffffffffffffffffffffffffffffffffffffffff160217905550848160060160006101000a81548173ffffffffffffffffffffffffffffffffffffffff021916908373ffffffffffffffffffffffffffffffffffffffff160217905550838160070160006101000a81548173ffffffffffffffffffffffffffffffffffffffff021916908373ffffffffffffffffffffffffffffffffffffffff160217905550828160080160006101000a81548173ffffffffffffffffffffffffffffffffffffffff021916908373ffffffffffffffffffffffffffffffffffffffff160217905550818160090160006101000a81548173ffffffffffffffffffffffffffffffffffffffff021916908373ffffffffffffffffffffffffffffffffffffffff16021790555050505050505050565b7fdf8b4c520ffe197c5343c6f5aec59570151ef9a492f2c624fd45ddde6135ec426000803373ffffffffffffffffffffffffffffffffffffffff1673ffffffffffffffffffffffffffffffffffffffff1681526020019081526020016000205414611fd2576040517f08c379a0000000000000000000000000000000000000000000000000000000008152600401611fc990614414565b60405180910390fd5b6003805490508110612019576040517f08c379a000000000000000000000000000000000000000000000000000000000815260040161201090614262565b60405180910390fd5b6003600160038054905061202d91906144a0565b8154811061203e5761203d613bb2565b5b90600052602060002090600a0201600382815481106120605761205f613bb2565b5b90600052602060002090600a0201600082015481600001556001820181600101908161208c91906145e8565b506002820160009054906101000a900460ff168160020160006101000a81548160ff021916908360088111156120c5576120c46130de565b5b021790555060038201816003019080546120e0929190612cc5565b5060048201816004019080546120f7929190612d17565b506005820160009054906101000a900473ffffffffffffffffffffffffffffffffffffffff168160050160006101000a81548173ffffffffffffffffffffffffffffffffffffffff021916908373ffffffffffffffffffffffffffffffffffffffff1602179055506006820160009054906101000a900473ffffffffffffffffffffffffffffffffffffffff168160060160006101000a81548173ffffffffffffffffffffffffffffffffffffffff021916908373ffffffffffffffffffffffffffffffffffffffff1602179055506007820160009054906101000a900473ffffffffffffffffffffffffffffffffffffffff168160070160006101000a81548173ffffffffffffffffffffffffffffffffffffffff021916908373ffffffffffffffffffffffffffffffffffffffff1602179055506008820160009054906101000a900473ffffffffffffffffffffffffffffffffffffffff168160080160006101000a81548173ffffffffffffffffffffffffffffffffffffffff021916908373ffffffffffffffffffffffffffffffffffffffff1602179055506009820160009054906101000a900473ffffffffffffffffffffffffffffffffffffffff168160090160006101000a81548173ffffffffffffffffffffffffffffffffffffffff021916908373ffffffffffffffffffffffffffffffffffffffff16021790555090505060038054806123105761230f6144d4565b5b60019003818190600052602060002090600a020160008082016000905560018201600061233d9190612d74565b6002820160006101000a81549060ff02191690556003820160006123619190612db4565b6004820160006123719190612dd5565b6005820160006101000a81549073ffffffffffffffffffffffffffffffffffffffff02191690556006820160006101000a81549073ffffffffffffffffffffffffffffffffffffffff02191690556007820160006101000a81549073ffffffffffffffffffffffffffffffffffffffff02191690556008820160006101000a81549073ffffffffffffffffffffffffffffffffffffffff02191690556009820160006101000a81549073ffffffffffffffffffffffffffffffffffffffff02191690555050905550565b60006020528060005260406000206000915090505481565b600160205280600052604060002060009150905080600001805461247690613f67565b80601f01602080910402602001604051908101604052809291908181526020018280546124a290613f67565b80156124ef5780601f106124c4576101008083540402835291602001916124ef565b820191906000526020600020905b8154815290600101906020018083116124d257829003601f168201915b50505050509080600101805461250490613f67565b80601f016020809104026020016040519081016040528092919081815260200182805461253090613f67565b801561257d5780601f106125525761010080835404028352916020019161257d565b820191906000526020600020905b81548152906001019060200180831161256057829003601f168201915b5050505050908060020160009054906101000a900460ff16905083565b7f0ce117c3e3256b329a75f369991e5099ec385240832e5464fdfe86571d48732681565b60606003805480602002602001604051908101604052809291908181526020016000905b828210156129cb57838290600052602060002090600a0201604051806101400160405290816000820154815260200160018201805461262090613f67565b80601f016020809104026020016040519081016040528092919081815260200182805461264c90613f67565b80156126995780601f1061266e57610100808354040283529160200191612699565b820191906000526020600020905b81548152906001019060200180831161267c57829003601f168201915b505050505081526020016002820160009054906101000a900460ff1660088111156126c7576126c66130de565b5b60088111156126d9576126d86130de565b5b81526020016003820180548060200260200160405190810160405280929190818152602001828054801561272c57602002820191906000526020600020905b815481526020019060010190808311612718575b5050505050815260200160048201805480602002602001604051908101604052809291908181526020016000905b8282101561280657838290600052602060002001805461277990613f67565b80601f01602080910402602001604051908101604052809291908181526020018280546127a590613f67565b80156127f25780601f106127c7576101008083540402835291602001916127f2565b820191906000526020600020905b8154815290600101906020018083116127d557829003601f168201915b50505050508152602001906001019061275a565b5050505081526020016005820160009054906101000a900473ffffffffffffffffffffffffffffffffffffffff1673ffffffffffffffffffffffffffffffffffffffff1673ffffffffffffffffffffffffffffffffffffffff1681526020016006820160009054906101000a900473ffffffffffffffffffffffffffffffffffffffff1673ffffffffffffffffffffffffffffffffffffffff1673ffffffffffffffffffffffffffffffffffffffff1681526020016007820160009054906101000a900473ffffffffffffffffffffffffffffffffffffffff1673ffffffffffffffffffffffffffffffffffffffff1673ffffffffffffffffffffffffffffffffffffffff1681526020016008820160009054906101000a900473ffffffffffffffffffffffffffffffffffffffff1673ffffffffffffffffffffffffffffffffffffffff1673ffffffffffffffffffffffffffffffffffffffff1681526020016009820160009054906101000a900473ffffffffffffffffffffffffffffffffffffffff1673ffffffffffffffffffffffffffffffffffffffff1673ffffffffffffffffffffffffffffffffffffffff1681525050815260200190600101906125e2565b50505050905090565b7fdf8b4c520ffe197c5343c6f5aec59570151ef9a492f2c624fd45ddde6135ec426000803373ffffffffffffffffffffffffffffffffffffffff1673ffffffffffffffffffffffffffffffffffffffff1681526020019081526020016000205414612a74576040517f08c379a0000000000000000000000000000000000000000000000000000000008152600401612a6b90614414565b60405180910390fd5b600081604051602001612a8791906146d0565b604051602081830303815290604052805190602001209050806000808673ffffffffffffffffffffffffffffffffffffffff1673ffffffffffffffffffffffffffffffffffffffff16815260200190815260200160002081905550604051806060016040528084815260200183815260200160011515815250600160008673ffffffffffffffffffffffffffffffffffffffff1673ffffffffffffffffffffffffffffffffffffffff1681526020019081526020016000206000820151816000019081612b549190614144565b506020820151816001019081612b6a9190614144565b5060408201518160020160006101000a81548160ff021916908315150217905550905050600080600090505b600280549050811015612c30578573ffffffffffffffffffffffffffffffffffffffff1660028281548110612bce57612bcd613bb2565b5b9060005260206000200160009054906101000a900473ffffffffffffffffffffffffffffffffffffffff1673ffffffffffffffffffffffffffffffffffffffff1603612c1d5760019150612c30565b8080612c2890614503565b915050612b96565b5080612c9a576002859080600181540180825580915050600190039060005260206000200160009091909190916101000a81548173ffffffffffffffffffffffffffffffffffffffff021916908373ffffffffffffffffffffffffffffffffffffffff1602179055505b5050505050565b7f9337c84965dad9c5be73858d8944f2762885e962d74177742c0a20a7e7ad22ae81565b828054828255906000526020600020908101928215612d065760005260206000209182015b82811115612d05578254825591600101919060010190612cea565b5b509050612d139190612df6565b5090565b828054828255906000526020600020908101928215612d635760005260206000209182015b82811115612d625782829081612d5291906145e8565b5091600101919060010190612d3c565b5b509050612d709190612e13565b5090565b508054612d8090613f67565b6000825580601f10612d925750612db1565b601f016020900490600052602060002090810190612db09190612df6565b5b50565b5080546000825590600052602060002090810190612dd29190612df6565b50565b5080546000825590600052602060002090810190612df39190612e13565b50565b5b80821115612e0f576000816000905550600101612df7565b5090565b5b80821115612e335760008181612e2a9190612d74565b50600101612e14565b5090565b6000604051905090565b600080fd5b600080fd5b6000819050919050565b612e5e81612e4b565b8114612e6957600080fd5b50565b600081359050612e7b81612e55565b92915050565b600080fd5b600080fd5b6000601f19601f8301169050919050565b7f4e487b7100000000000000000000000000000000000000000000000000000000600052604160045260246000fd5b612ed482612e8b565b810181811067ffffffffffffffff82111715612ef357612ef2612e9c565b5b80604052505050565b6000612f06612e37565b9050612f128282612ecb565b919050565b600067ffffffffffffffff821115612f3257612f31612e9c565b5b612f3b82612e8b565b9050602081019050919050565b82818337600083830152505050565b6000612f6a612f6584612f17565b612efc565b905082815260208101848484011115612f8657612f85612e86565b5b612f91848285612f48565b509392505050565b600082601f830112612fae57612fad612e81565b5b8135612fbe848260208601612f57565b91505092915050565b60008060408385031215612fde57612fdd612e41565b5b6000612fec85828601612e6c565b925050602083013567ffffffffffffffff81111561300d5761300c612e46565b5b61301985828601612f99565b9150509250929050565b60006020828403121561303957613038612e41565b5b600061304784828501612e6c565b91505092915050565b61305981612e4b565b82525050565b600081519050919050565b600082825260208201905092915050565b60005b8381101561309957808201518184015260208101905061307e565b60008484015250505050565b60006130b08261305f565b6130ba818561306a565b93506130ca81856020860161307b565b6130d381612e8b565b840191505092915050565b7f4e487b7100000000000000000000000000000000000000000000000000000000600052602160045260246000fd5b6009811061311e5761311d6130de565b5b50565b600081905061312f8261310d565b919050565b600061313f82613121565b9050919050565b61314f81613134565b82525050565b600073ffffffffffffffffffffffffffffffffffffffff82169050919050565b600061318082613155565b9050919050565b61319081613175565b82525050565b6000610100820190506131ac600083018b613050565b81810360208301526131be818a6130a5565b90506131cd6040830189613146565b6131da6060830188613187565b6131e76080830187613187565b6131f460a0830186613187565b61320160c0830185613187565b61320e60e0830184613187565b9998505050505050505050565b600081519050919050565b600082825260208201905092915050565b6000819050602082019050919050565b61325081612e4b565b82525050565b60006132628383613247565b60208301905092915050565b6000602082019050919050565b60006132868261321b565b6132908185613226565b935061329b83613237565b8060005b838110156132cc5781516132b38882613256565b97506132be8361326e565b92505060018101905061329f565b5085935050505092915050565b600081519050919050565b600082825260208201905092915050565b6000819050602082019050919050565b600082825260208201905092915050565b60006133218261305f565b61332b8185613305565b935061333b81856020860161307b565b61334481612e8b565b840191505092915050565b600061335b8383613316565b905092915050565b6000602082019050919050565b600061337b826132d9565b61338581856132e4565b935083602082028501613397856132f5565b8060005b858110156133d357848403895281516133b4858261334f565b94506133bf83613363565b925060208a0199505060018101905061339b565b50829750879550505050505092915050565b6000610140820190506133fb600083018d613050565b818103602083015261340d818c6130a5565b905061341c604083018b613146565b613429606083018a613187565b6134366080830189613187565b61344360a0830188613187565b61345060c0830187613187565b61345d60e0830186613187565b818103610100830152613470818561327b565b90508181036101208301526134858184613370565b90509b9a5050505050505050505050565b6000819050919050565b6134a981613496565b82525050565b60006020820190506134c460008301846134a0565b92915050565b600081519050919050565b600082825260208201905092915050565b6000819050602082019050919050565b6134ff81613175565b82525050565b600061351183836134f6565b60208301905092915050565b6000602082019050919050565b6000613535826134ca565b61353f81856134d5565b935061354a836134e6565b8060005b8381101561357b5781516135628882613505565b975061356d8361351d565b92505060018101905061354e565b5085935050505092915050565b600060208201905081810360008301526135a2818461352a565b905092915050565b6135b381613175565b81146135be57600080fd5b50565b6000813590506135d0816135aa565b92915050565b6000602082840312156135ec576135eb612e41565b5b60006135fa848285016135c1565b91505092915050565b6009811061361057600080fd5b50565b60008135905061362281613603565b92915050565b6000806040838503121561363f5761363e612e41565b5b600061364d85828601612e6c565b925050602061365e85828601613613565b9150509250929050565b600060208201905061367d6000830184613187565b92915050565b6000602082019050818103600083015261369d8184613370565b905092915050565b60006020820190506136ba6000830184613050565b92915050565b600060208201905081810360008301526136da818461327b565b905092915050565b60008060008060008060c087890312156136ff576136fe612e41565b5b600087013567ffffffffffffffff81111561371d5761371c612e46565b5b61372989828a01612f99565b965050602061373a89828a016135c1565b955050604061374b89828a016135c1565b945050606061375c89828a016135c1565b935050608061376d89828a016135c1565b92505060a061377e89828a016135c1565b9150509295509295509295565b60008115159050919050565b6137a08161378b565b82525050565b600060608201905081810360008301526137c081866130a5565b905081810360208301526137d481856130a5565b90506137e36040830184613797565b949350505050565b600081519050919050565b600082825260208201905092915050565b6000819050602082019050919050565b61382081613134565b82525050565b600082825260208201905092915050565b60006138428261321b565b61384c8185613826565b935061385783613237565b8060005b8381101561388857815161386f8882613256565b975061387a8361326e565b92505060018101905061385b565b5085935050505092915050565b600082825260208201905092915050565b60006138b1826132d9565b6138bb8185613895565b9350836020820285016138cd856132f5565b8060005b8581101561390957848403895281516138ea858261334f565b94506138f583613363565b925060208a019950506001810190506138d1565b50829750879550505050505092915050565b6000610140830160008301516139346000860182613247565b506020830151848203602086015261394c8282613316565b91505060408301516139616040860182613817565b50606083015184820360608601526139798282613837565b9150506080830151848203608086015261399382826138a6565b91505060a08301516139a860a08601826134f6565b5060c08301516139bb60c08601826134f6565b5060e08301516139ce60e08601826134f6565b506101008301516139e36101008601826134f6565b506101208301516139f86101208601826134f6565b508091505092915050565b6000613a0f838361391b565b905092915050565b6000602082019050919050565b6000613a2f826137eb565b613a3981856137f6565b935083602082028501613a4b85613807565b8060005b85811015613a875784840389528151613a688582613a03565b9450613a7383613a17565b925060208a01995050600181019050613a4f565b50829750879550505050505092915050565b60006020820190508181036000830152613ab38184613a24565b905092915050565b600080600060608486031215613ad457613ad3612e41565b5b6000613ae2868287016135c1565b935050602084013567ffffffffffffffff811115613b0357613b02612e46565b5b613b0f86828701612f99565b925050604084013567ffffffffffffffff811115613b3057613b2f612e46565b5b613b3c86828701612f99565b9150509250925092565b7f4c6f74746f20696e6573697374656e7465000000000000000000000000000000600082015250565b6000613b7c60118361306a565b9150613b8782613b46565b602082019050919050565b60006020820190508181036000830152613bab81613b6f565b9050919050565b7f4e487b7100000000000000000000000000000000000000000000000000000000600052603260045260246000fd5b7f4c6f74746f20626c6f636361746f3a20696e207265766973696f6e6500000000600082015250565b6000613c17601c8361306a565b9150613c2282613be1565b602082019050919050565b60006020820190508181036000830152613c4681613c0a565b9050919050565b7f536f6c6f2041677269636f6c746f726500000000000000000000000000000000600082015250565b6000613c8360108361306a565b9150613c8e82613c4d565b602082019050919050565b60006020820190508181036000830152613cb281613c76565b9050919050565b7f536f6c6f2053757065727669736f726500000000000000000000000000000000600082015250565b6000613cef60108361306a565b9150613cfa82613cb9565b602082019050919050565b60006020820190508181036000830152613d1e81613ce2565b9050919050565b7f536f6c6f2043616e74696e696572650000000000000000000000000000000000600082015250565b6000613d5b600f8361306a565b9150613d6682613d25565b602082019050919050565b60006020820190508181036000830152613d8a81613d4e565b9050919050565b7f536f6c6f20436f72726965726500000000000000000000000000000000000000600082015250565b6000613dc7600d8361306a565b9150613dd282613d91565b602082019050919050565b60006020820190508181036000830152613df681613dba565b9050919050565b7f536f6c6f204469737472696275746f7265000000000000000000000000000000600082015250565b6000613e3360118361306a565b9150613e3e82613dfd565b602082019050919050565b60006020820190508181036000830152613e6281613e26565b9050919050565b7f50726f636573736f20636f6d706c657461746f00000000000000000000000000600082015250565b6000613e9f60138361306a565b9150613eaa82613e69565b602082019050919050565b60006020820190508181036000830152613ece81613e92565b9050919050565b7f4e487b7100000000000000000000000000000000000000000000000000000000600052601160045260246000fd5b6000613f0f82612e4b565b9150613f1a83612e4b565b9250828201905080821115613f3257613f31613ed5565b5b92915050565b7f4e487b7100000000000000000000000000000000000000000000000000000000600052602260045260246000fd5b60006002820490506001821680613f7f57607f821691505b602082108103613f9257613f91613f38565b5b50919050565b60008190508160005260206000209050919050565b60006020601f8301049050919050565b600082821b905092915050565b600060088302613ffa7fffffffffffffffffffffffffffffffffffffffffffffffffffffffffffffffff82613fbd565b6140048683613fbd565b95508019841693508086168417925050509392505050565b6000819050919050565b600061404161403c61403784612e4b565b61401c565b612e4b565b9050919050565b6000819050919050565b61405b83614026565b61406f61406782614048565b848454613fca565b825550505050565b600090565b614084614077565b61408f818484614052565b505050565b5b818110156140b3576140a860008261407c565b600181019050614095565b5050565b601f8211156140f8576140c981613f98565b6140d284613fad565b810160208510156140e1578190505b6140f56140ed85613fad565b830182614094565b50505b505050565b600082821c905092915050565b600061411b600019846008026140fd565b1980831691505092915050565b6000614134838361410a565b9150826002028217905092915050565b61414d8261305f565b67ffffffffffffffff81111561416657614165612e9c565b5b6141708254613f67565b61417b8282856140b7565b600060209050601f8311600181146141ae576000841561419c578287015190505b6141a68582614128565b86555061420e565b601f1984166141bc86613f98565b60005b828110156141e4578489015182556001820191506020850194506020810190506141bf565b8683101561420157848901516141fd601f89168261410a565b8355505b6001600288020188555050505b505050505050565b7f496e64696365206e6f6e2076616c69646f000000000000000000000000000000600082015250565b600061424c60118361306a565b915061425782614216565b602082019050919050565b6000602082019050818103600083015261427b8161423f565b9050919050565b7f537461746f206e6f6e206d6f64696669636162696c6500000000000000000000600082015250565b60006142b860168361306a565b91506142c382614282565b602082019050919050565b600060208201905081810360008301526142e7816142ab565b9050919050565b600081905092915050565b7f50524f424c454d413a2000000000000000000000000000000000000000000000600082015250565b600061432f600a836142ee565b915061433a826142f9565b600a82019050919050565b60006143508261305f565b61435a81856142ee565b935061436a81856020860161307b565b80840191505092915050565b600061438182614322565b915061438d8284614345565b915081905092915050565b600060408201905081810360008301526143b281856130a5565b90506143c16020830184613187565b9392505050565b7f536f6c6f2041646d696e00000000000000000000000000000000000000000000600082015250565b60006143fe600a8361306a565b9150614409826143c8565b602082019050919050565b6000602082019050818103600083015261442d816143f1565b9050919050565b7f5574656e7465206e6f6e2061747469766f000000000000000000000000000000600082015250565b600061446a60118361306a565b915061447582614434565b602082019050919050565b600060208201905081810360008301526144998161445d565b9050919050565b60006144ab82612e4b565b91506144b683612e4b565b92508282039050818111156144ce576144cd613ed5565b5b92915050565b7f4e487b7100000000000000000000000000000000000000000000000000000000600052603160045260246000fd5b600061450e82612e4b565b91507fffffffffffffffffffffffffffffffffffffffffffffffffffffffffffffffff82036145405761453f613ed5565b5b600182019050919050565b7f4e6f6e20696e207265766973696f6e6500000000000000000000000000000000600082015250565b600061458160108361306a565b915061458c8261454b565b602082019050919050565b600060208201905081810360008301526145b081614574565b9050919050565b60006020820190506145cc6000830184613146565b92915050565b6000815490506145e181613f67565b9050919050565b8181036145f65750506146ce565b6145ff826145d2565b67ffffffffffffffff81111561461857614617612e9c565b5b6146228254613f67565b61462d8282856140b7565b6000601f83116001811461465c576000841561464a578287015490505b6146548582614128565b8655506146c7565b601f19841661466a87613f98565b965061467586613f98565b60005b8281101561469d57848901548255600182019150600185019450602081019050614678565b868310156146ba57848901546146b6601f89168261410a565b8355505b6001600288020188555050505b5050505050505b565b60006146dc8284614345565b91508190509291505056fea2646970667358221220202e22789667b2d517c713cbe3147498dd06ce1191c26f211f6855c1d9056e6464736f6c63430008110033",
  "immutableReferences": {},
  "source": "// SPDX-License-Identifier: MIT\r\npragma solidity ^0.8.0;\r\n\r\ncontract WineProduction {\r\n    // ===================== RUOLI =====================\r\n    bytes32 public constant ADMIN = keccak256(\"ADMIN\");\r\n    bytes32 public constant AGRICOLTORE = keccak256(\"AGRICOLTORE\");\r\n    bytes32 public constant SUPERVISORE = keccak256(\"SUPERVISORE\");\r\n    bytes32 public constant CANTINIERE = keccak256(\"CANTINIERE\");\r\n    bytes32 public constant CORRIERE = keccak256(\"CORRIERE\");\r\n    bytes32 public constant DISTRIBUTORE = keccak256(\"DISTRIBUTORE\");\r\n\r\n    // ===================== STATI =====================\r\n    enum Stato {\r\n        Creato,         // 0\r\n        Vendemmiato,    // 1\r\n        Fermentato,     // 2\r\n        Affinato,       // 3\r\n        Imbottigliato,  // 4\r\n        Spedito,        // 5\r\n        Distribuito,    // 6\r\n        Completato,     // 7\r\n        Revisione       // 8\r\n    }\r\n\r\n    // ===================== STRUCT =====================\r\n    struct Lotto {\r\n        uint256 id;\r\n        string tipo;\r\n        Stato stato;\r\n        uint256[] timestamps;\r\n        string[] luoghi;\r\n        address agricoltore;\r\n        address supervisore;\r\n        address cantiniere;\r\n        address corriere;\r\n        address distributore;\r\n    }\r\n\r\n    struct User {\r\n        string name;\r\n        string role;\r\n        bool isActive;\r\n    }\r\n\r\n    // ===================== STORAGE =====================\r\n    mapping(address => bytes32) public roles;\r\n    mapping(address => User) public users;\r\n    address[] public userAddresses;\r\n    Lotto[] public lotti;\r\n    uint256 public nextId = 1;\r\n\r\n    // ===================== EVENTI =====================\r\n    event FaseSegnalata(uint256 indexed lottoId, string motivazione, address utente);\r\n    event LottoRiabilitato(uint256 indexed lottoId, Stato nuovoStato);\r\n\r\n    constructor() {\r\n        roles[msg.sender] = ADMIN;\r\n    }\r\n\r\n    // ===================== CREA LOTTO =====================\r\n    function creaLotto(\r\n        string memory _tipo,\r\n        address _agricoltore,\r\n        address _supervisore,\r\n        address _cantiniere,\r\n        address _corriere,\r\n        address _distributore\r\n    ) public {\r\n        require(roles[msg.sender] == ADMIN, \"Solo Admin\");\r\n\r\n        Lotto storage lotto = lotti.push();\r\n        lotto.id = nextId++;\r\n        lotto.tipo = _tipo;\r\n        lotto.stato = Stato.Creato;\r\n        lotto.timestamps.push(block.timestamp);\r\n        lotto.luoghi.push(\"Creazione lotto\");\r\n        lotto.agricoltore = _agricoltore;\r\n        lotto.supervisore = _supervisore;\r\n        lotto.cantiniere = _cantiniere;\r\n        lotto.corriere = _corriere;\r\n        lotto.distributore = _distributore;\r\n    }\r\n\r\n    // ===================== AVANZA STATO =====================\r\n    function avanzaStato(uint256 _index, string memory _luogo) public {\r\n        require(_index < lotti.length, \"Lotto inesistente\");\r\n        Lotto storage lotto = lotti[_index];\r\n        \r\n        require(lotto.stato != Stato.Revisione, \"Lotto bloccato: in revisione\");\r\n        \r\n        Stato attuale = lotto.stato;\r\n        bytes32 userRole = roles[msg.sender];\r\n\r\n        if (attuale == Stato.Creato) {\r\n            require(userRole == AGRICOLTORE && msg.sender == lotto.agricoltore, \"Solo Agricoltore\");\r\n        } else if (attuale == Stato.Vendemmiato || attuale == Stato.Fermentato) {\r\n            require(userRole == SUPERVISORE && msg.sender == lotto.supervisore, \"Solo Supervisore\");\r\n        } else if (attuale == Stato.Affinato) {\r\n            require(userRole == CANTINIERE && msg.sender == lotto.cantiniere, \"Solo Cantiniere\");\r\n        } else if (attuale == Stato.Imbottigliato) {\r\n            require(userRole == CORRIERE && msg.sender == lotto.corriere, \"Solo Corriere\");\r\n        } else if (attuale == Stato.Spedito) {\r\n            require(userRole == DISTRIBUTORE && msg.sender == lotto.distributore, \"Solo Distributore\");\r\n        } else {\r\n            revert(\"Processo completato\");\r\n        }\r\n\r\n        lotto.stato = Stato(uint(lotto.stato) + 1);\r\n        lotto.timestamps.push(block.timestamp);\r\n        lotto.luoghi.push(_luogo);\r\n    }\r\n\r\n    // ===================== GESTIONE PROBLEMI =====================\r\n    function segnalaProblema(uint256 _index, string memory _motivazione) public {\r\n        require(_index < lotti.length, \"Lotto inesistente\");\r\n        Lotto storage lotto = lotti[_index];\r\n        \r\n        require(lotto.stato != Stato.Revisione && lotto.stato != Stato.Completato, \"Stato non modificabile\");\r\n        \r\n        lotto.stato = Stato.Revisione;\r\n        lotto.timestamps.push(block.timestamp);\r\n        lotto.luoghi.push(string(abi.encodePacked(\"PROBLEMA: \", _motivazione)));\r\n        \r\n        emit FaseSegnalata(_index, _motivazione, msg.sender);\r\n    }\r\n\r\n    function riabilitaLotto(uint256 _index, Stato _nuovoStato) public {\r\n        require(roles[msg.sender] == ADMIN, \"Solo Admin\");\r\n        require(_index < lotti.length, \"Lotto inesistente\");\r\n        require(lotti[_index].stato == Stato.Revisione, \"Non in revisione\");\r\n\r\n        lotti[_index].stato = _nuovoStato;\r\n        lotti[_index].timestamps.push(block.timestamp);\r\n        lotti[_index].luoghi.push(\"Riabilitato da Admin\");\r\n\r\n        emit LottoRiabilitato(_index, _nuovoStato);\r\n    }\r\n\r\n    // ===================== ADMIN & UTILITY =====================\r\n    function eliminaLotto(uint256 _index) public {\r\n        require(roles[msg.sender] == ADMIN, \"Solo Admin\");\r\n        require(_index < lotti.length, \"Indice non valido\");\r\n\r\n        lotti[_index] = lotti[lotti.length - 1];\r\n        lotti.pop();\r\n    }\r\n\r\n    function getLotto(uint256 _index) public view returns (uint256 id, string memory tipo, Stato stato, address agricoltore, address supervisore, address cantiniere, address corriere, address distributore, uint256[] memory timestamps, string[] memory luoghi) {\r\n        require(_index < lotti.length, \"Indice non valido\");\r\n        Lotto storage l = lotti[_index];\r\n        return (l.id, l.tipo, l.stato, l.agricoltore, l.supervisore, l.cantiniere, l.corriere, l.distributore, l.timestamps, l.luoghi);\r\n    }\r\n\r\n    function getLotti() public view returns (Lotto[] memory) {\r\n        return lotti;\r\n    }\r\n\r\n    function addUser(address _user, string memory _name, string memory _roleName) public {\r\n        require(roles[msg.sender] == ADMIN, \"Solo Admin\");\r\n        bytes32 roleHash = keccak256(abi.encodePacked(_roleName));\r\n        roles[_user] = roleHash;\r\n        users[_user] = User(_name, _roleName, true);\r\n\r\n        bool exists;\r\n        for (uint i = 0; i < userAddresses.length; i++) {\r\n            if (userAddresses[i] == _user) {\r\n                exists = true;\r\n                break;\r\n            }\r\n        }\r\n        if (!exists) userAddresses.push(_user);\r\n    }\r\n\r\n    function getAllUserAddresses() public view returns (address[] memory) {\r\n        return userAddresses;\r\n    }\r\n\r\n    function eliminaUtente(address _user) public {\r\n        require(roles[msg.sender] == ADMIN, \"Solo Admin\");\r\n        require(users[_user].isActive, \"Utente non attivo\");\r\n\r\n        users[_user].isActive = false;\r\n        roles[_user] = 0x0;\r\n\r\n        for (uint i = 0; i < userAddresses.length; i++) {\r\n            if (userAddresses[i] == _user) {\r\n                userAddresses[i] = userAddresses[userAddresses.length - 1];\r\n                userAddresses.pop();\r\n                break;\r\n            }\r\n        }\r\n    }\r\n\r\n    function getLottoTimestamps(uint256 _index) public view returns (uint256[] memory) {\r\n        require(_index < lotti.length, \"Indice non valido\");\r\n        return lotti[_index].timestamps;\r\n    }\r\n\r\n    function getLottoLuoghi(uint256 _index) public view returns (string[] memory) {\r\n        require(_index < lotti.length, \"Indice non valido\");\r\n        return lotti[_index].luoghi;\r\n    }\r\n}",
  "sourcePath": "C:\\Utili\\Tutto\\università\\Magistrale\\Blockchain\\vinum-veritas\\backend\\contracts\\WineProduction.sol",
  "compiler": {
    "name": "solc",
    "version": "0.8.17+commit.8df45f5f.Emscripten.clang"
  },
  "schemaVersion": "3.4.14",
  "updatedAt": "2026-01-04T15:02:13.176Z",
  "networkType": "ethereum",
  "devdoc": {
    "kind": "dev",
    "methods": {},
    "version": 1
  },
  "userdoc": {
    "kind": "user",
    "methods": {},
    "version": 1
  }
}