{
  "contractName": "WineProduction",
  "abi": [
    {
      "inputs": [],
      "stateMutability": "nonpayable",
      "type": "constructor"
    },
    {
      "inputs": [],
      "name": "ADMIN",
      "outputs": [
        {
          "internalType": "bytes32",
          "name": "",
          "type": "bytes32"
        }
      ],
      "stateMutability": "view",
      "type": "function",
      "constant": true
    },
    {
      "inputs": [],
      "name": "AGRICOLTORE",
      "outputs": [
        {
          "internalType": "bytes32",
          "name": "",
          "type": "bytes32"
        }
      ],
      "stateMutability": "view",
      "type": "function",
      "constant": true
    },
    {
      "inputs": [],
      "name": "CANTINIERE",
      "outputs": [
        {
          "internalType": "bytes32",
          "name": "",
          "type": "bytes32"
        }
      ],
      "stateMutability": "view",
      "type": "function",
      "constant": true
    },
    {
      "inputs": [],
      "name": "CORRIERE",
      "outputs": [
        {
          "internalType": "bytes32",
          "name": "",
          "type": "bytes32"
        }
      ],
      "stateMutability": "view",
      "type": "function",
      "constant": true
    },
    {
      "inputs": [],
      "name": "DISTRIBUTORE",
      "outputs": [
        {
          "internalType": "bytes32",
          "name": "",
          "type": "bytes32"
        }
      ],
      "stateMutability": "view",
      "type": "function",
      "constant": true
    },
    {
      "inputs": [],
      "name": "SUPERVISORE",
      "outputs": [
        {
          "internalType": "bytes32",
          "name": "",
          "type": "bytes32"
        }
      ],
      "stateMutability": "view",
      "type": "function",
      "constant": true
    },
    {
      "inputs": [
        {
          "internalType": "uint256",
          "name": "",
          "type": "uint256"
        }
      ],
      "name": "lotti",
      "outputs": [
        {
          "internalType": "uint256",
          "name": "id",
          "type": "uint256"
        },
        {
          "internalType": "string",
          "name": "tipo",
          "type": "string"
        },
        {
          "internalType": "enum WineProduction.Stato",
          "name": "stato",
          "type": "uint8"
        },
        {
          "internalType": "address",
          "name": "creatore",
          "type": "address"
        }
      ],
      "stateMutability": "view",
      "type": "function",
      "constant": true
    },
    {
      "inputs": [],
      "name": "nextId",
      "outputs": [
        {
          "internalType": "uint256",
          "name": "",
          "type": "uint256"
        }
      ],
      "stateMutability": "view",
      "type": "function",
      "constant": true
    },
    {
      "inputs": [
        {
          "internalType": "address",
          "name": "",
          "type": "address"
        }
      ],
      "name": "roles",
      "outputs": [
        {
          "internalType": "bytes32",
          "name": "",
          "type": "bytes32"
        }
      ],
      "stateMutability": "view",
      "type": "function",
      "constant": true
    },
    {
      "inputs": [
        {
          "internalType": "string",
          "name": "_tipo",
          "type": "string"
        }
      ],
      "name": "creaLotto",
      "outputs": [],
      "stateMutability": "nonpayable",
      "type": "function"
    },
    {
      "inputs": [
        {
          "internalType": "uint256",
          "name": "_index",
          "type": "uint256"
        }
      ],
      "name": "eliminaLotto",
      "outputs": [],
      "stateMutability": "nonpayable",
      "type": "function"
    },
    {
      "inputs": [
        {
          "internalType": "uint256",
          "name": "_index",
          "type": "uint256"
        }
      ],
      "name": "avanzaStato",
      "outputs": [],
      "stateMutability": "nonpayable",
      "type": "function"
    },
    {
      "inputs": [
        {
          "internalType": "address",
          "name": "_user",
          "type": "address"
        },
        {
          "internalType": "bytes32",
          "name": "_role",
          "type": "bytes32"
        }
      ],
      "name": "assignRole",
      "outputs": [],
      "stateMutability": "nonpayable",
      "type": "function"
    },
    {
      "inputs": [],
      "name": "getLotti",
      "outputs": [
        {
          "components": [
            {
              "internalType": "uint256",
              "name": "id",
              "type": "uint256"
            },
            {
              "internalType": "string",
              "name": "tipo",
              "type": "string"
            },
            {
              "internalType": "enum WineProduction.Stato",
              "name": "stato",
              "type": "uint8"
            },
            {
              "internalType": "address",
              "name": "creatore",
              "type": "address"
            }
          ],
          "internalType": "struct WineProduction.Lotto[]",
          "name": "",
          "type": "tuple[]"
        }
      ],
      "stateMutability": "view",
      "type": "function",
      "constant": true
    }
  ],
  "bytecode": "0x608060405260016002553480156200001657600080fd5b506040516020016200002890620000e1565b604051602081830303815290604052805190602001206000803373ffffffffffffffffffffffffffffffffffffffff1673ffffffffffffffffffffffffffffffffffffffff16815260200190815260200160002081905550620000f8565b600081905092915050565b7f41444d494e000000000000000000000000000000000000000000000000000000600082015250565b6000620000c960058362000086565b9150620000d68262000091565b600582019050919050565b6000620000ee82620000ba565b9150819050919050565b61215780620001086000396000f3fe608060405234801561001057600080fd5b50600436106100ea5760003560e01c806361b8ce8c1161008c57806399374642116100665780639937464214610228578063b009d7a114610258578063b619bd9614610276578063f674a91614610294576100ea565b806361b8ce8c146101d25780637721158b146101f05780638520e6781461020c576100ea565b8063363efa0a116100c8578063363efa0a1461015c5780633709ad781461017a57806356aeb0e714610198578063602eb2f6146101b4576100ea565b806305422772146100ef5780631d9486de146101225780632a0acc6a1461013e575b600080fd5b61010960048036038101906101049190611086565b6102b2565b604051610119949392919061120a565b60405180910390f35b61013c600480360381019061013791906112b8565b6103a7565b005b61014661048e565b6040516101539190611307565b60405180910390f35b6101646104b2565b6040516101719190611307565b60405180910390f35b6101826104d6565b60405161018f9190611307565b60405180910390f35b6101b260048036038101906101ad9190611457565b6104fa565b005b6101bc6106c5565b6040516101c99190611307565b60405180910390f35b6101da6106e9565b6040516101e791906114a0565b60405180910390f35b61020a60048036038101906102059190611086565b6106ef565b005b61022660048036038101906102219190611086565b610970565b005b610242600480360381019061023d91906114bb565b610df3565b60405161024f9190611307565b60405180910390f35b610260610e0b565b60405161026d9190611307565b60405180910390f35b61027e610e2f565b60405161028b9190611684565b60405180910390f35b61029c610fbb565b6040516102a99190611307565b60405180910390f35b600181815481106102c257600080fd5b90600052602060002090600302016000915090508060000154908060010180546102eb906116d5565b80601f0160208091040260200160405190810160405280929190818152602001828054610317906116d5565b80156103645780601f1061033957610100808354040283529160200191610364565b820191906000526020600020905b81548152906001019060200180831161034757829003601f168201915b5050505050908060020160009054906101000a900460ff16908060020160019054906101000a900473ffffffffffffffffffffffffffffffffffffffff16905084565b7fdf8b4c520ffe197c5343c6f5aec59570151ef9a492f2c624fd45ddde6135ec426000803373ffffffffffffffffffffffffffffffffffffffff1673ffffffffffffffffffffffffffffffffffffffff1681526020019081526020016000205414610447576040517f08c379a000000000000000000000000000000000000000000000000000000000815260040161043e90611752565b60405180910390fd5b806000808473ffffffffffffffffffffffffffffffffffffffff1673ffffffffffffffffffffffffffffffffffffffff168152602001908152602001600020819055505050565b7fdf8b4c520ffe197c5343c6f5aec59570151ef9a492f2c624fd45ddde6135ec4281565b7ffbf573f3c4bccce46c1dbf63795f7fadf7bb39d8917933246b61e08ad44b1be581565b7fef3622f293edb090d8a3b2cc5caa5df142b73c51f9f008eb8c34c66a9377593a81565b7fdf8b4c520ffe197c5343c6f5aec59570151ef9a492f2c624fd45ddde6135ec426000803373ffffffffffffffffffffffffffffffffffffffff1673ffffffffffffffffffffffffffffffffffffffff168152602001908152602001600020541461059a576040517f08c379a0000000000000000000000000000000000000000000000000000000008152600401610591906117be565b60405180910390fd5b600160405180608001604052806002548152602001838152602001600060058111156105c9576105c8611152565b5b81526020013373ffffffffffffffffffffffffffffffffffffffff168152509080600181540180825580915050600190039060005260206000209060030201600090919091909150600082015181600001556020820151816001019081610630919061198a565b5060408201518160020160006101000a81548160ff0219169083600581111561065c5761065b611152565b5b021790555060608201518160020160016101000a81548173ffffffffffffffffffffffffffffffffffffffff021916908373ffffffffffffffffffffffffffffffffffffffff1602179055505050600260008154809291906106bd90611a8b565b919050555050565b7f2cf85fe15d4ee363be02bc59776a4870c18edd8ff76c49234fa76f6645e4421581565b60025481565b7fdf8b4c520ffe197c5343c6f5aec59570151ef9a492f2c624fd45ddde6135ec426000803373ffffffffffffffffffffffffffffffffffffffff1673ffffffffffffffffffffffffffffffffffffffff168152602001908152602001600020541461078f576040517f08c379a000000000000000000000000000000000000000000000000000000000815260040161078690611b1f565b60405180910390fd5b60018054905081106107d6576040517f08c379a00000000000000000000000000000000000000000000000000000000081526004016107cd90611b8b565b60405180910390fd5b60018080805490506107e89190611bab565b815481106107f9576107f8611bdf565b5b90600052602060002090600302016001828154811061081b5761081a611bdf565b5b906000526020600020906003020160008201548160000155600182018160010190816108479190611c24565b506002820160009054906101000a900460ff168160020160006101000a81548160ff021916908360058111156108805761087f611152565b5b02179055506002820160019054906101000a900473ffffffffffffffffffffffffffffffffffffffff168160020160016101000a81548173ffffffffffffffffffffffffffffffffffffffff021916908373ffffffffffffffffffffffffffffffffffffffff160217905550905050600180548061090157610900611d0c565b5b600190038181906000526020600020906003020160008082016000905560018201600061092e9190610fdf565b6002820160006101000a81549060ff02191690556002820160016101000a81549073ffffffffffffffffffffffffffffffffffffffff02191690555050905550565b60018054905081106109b7576040517f08c379a00000000000000000000000000000000000000000000000000000000081526004016109ae90611d87565b60405180910390fd5b6000600182815481106109cd576109cc611bdf565b5b9060005260206000209060030201905060008160020160009054906101000a900460ff16905060008060003373ffffffffffffffffffffffffffffffffffffffff1673ffffffffffffffffffffffffffffffffffffffff16815260200190815260200160002054905060006005811115610a4a57610a49611152565b5b826005811115610a5d57610a5c611152565b5b03610ac9577f2cf85fe15d4ee363be02bc59776a4870c18edd8ff76c49234fa76f6645e442158114610ac4576040517f08c379a0000000000000000000000000000000000000000000000000000000008152600401610abb90611e19565b60405180910390fd5b610d80565b60016005811115610add57610adc611152565b5b826005811115610af057610aef611152565b5b03610b5c577f9337c84965dad9c5be73858d8944f2762885e962d74177742c0a20a7e7ad22ae8114610b57576040517f08c379a0000000000000000000000000000000000000000000000000000000008152600401610b4e90611eab565b60405180910390fd5b610d7f565b60026005811115610b7057610b6f611152565b5b826005811115610b8357610b82611152565b5b03610bef577f9337c84965dad9c5be73858d8944f2762885e962d74177742c0a20a7e7ad22ae8114610bea576040517f08c379a0000000000000000000000000000000000000000000000000000000008152600401610be190611f3d565b60405180910390fd5b610d7e565b60036005811115610c0357610c02611152565b5b826005811115610c1657610c15611152565b5b03610c82577fef3622f293edb090d8a3b2cc5caa5df142b73c51f9f008eb8c34c66a9377593a8114610c7d576040517f08c379a0000000000000000000000000000000000000000000000000000000008152600401610c7490611fcf565b60405180910390fd5b610d7d565b60046005811115610c9657610c95611152565b5b826005811115610ca957610ca8611152565b5b03610d15577ffbf573f3c4bccce46c1dbf63795f7fadf7bb39d8917933246b61e08ad44b1be58114610d10576040517f08c379a0000000000000000000000000000000000000000000000000000000008152600401610d0790612061565b60405180910390fd5b610d7c565b600580811115610d2857610d27611152565b5b826005811115610d3b57610d3a611152565b5b03610d7b576040517f08c379a0000000000000000000000000000000000000000000000000000000008152600401610d72906120cd565b60405180910390fd5b5b5b5b5b5b60018360020160009054906101000a900460ff166005811115610da657610da5611152565b5b610db091906120ed565b6005811115610dc257610dc1611152565b5b8360020160006101000a81548160ff02191690836005811115610de857610de7611152565b5b021790555050505050565b60006020528060005260406000206000915090505481565b7f0ce117c3e3256b329a75f369991e5099ec385240832e5464fdfe86571d48732681565b60606001805480602002602001604051908101604052809291908181526020016000905b82821015610fb2578382906000526020600020906003020160405180608001604052908160008201548152602001600182018054610e90906116d5565b80601f0160208091040260200160405190810160405280929190818152602001828054610ebc906116d5565b8015610f095780601f10610ede57610100808354040283529160200191610f09565b820191906000526020600020905b815481529060010190602001808311610eec57829003601f168201915b505050505081526020016002820160009054906101000a900460ff166005811115610f3757610f36611152565b5b6005811115610f4957610f48611152565b5b81526020016002820160019054906101000a900473ffffffffffffffffffffffffffffffffffffffff1673ffffffffffffffffffffffffffffffffffffffff1673ffffffffffffffffffffffffffffffffffffffff168152505081526020019060010190610e53565b50505050905090565b7f9337c84965dad9c5be73858d8944f2762885e962d74177742c0a20a7e7ad22ae81565b508054610feb906116d5565b6000825580601f10610ffd575061101c565b601f01602090049060005260206000209081019061101b919061101f565b5b50565b5b80821115611038576000816000905550600101611020565b5090565b6000604051905090565b600080fd5b600080fd5b6000819050919050565b61106381611050565b811461106e57600080fd5b50565b6000813590506110808161105a565b92915050565b60006020828403121561109c5761109b611046565b5b60006110aa84828501611071565b91505092915050565b6110bc81611050565b82525050565b600081519050919050565b600082825260208201905092915050565b60005b838110156110fc5780820151818401526020810190506110e1565b60008484015250505050565b6000601f19601f8301169050919050565b6000611124826110c2565b61112e81856110cd565b935061113e8185602086016110de565b61114781611108565b840191505092915050565b7f4e487b7100000000000000000000000000000000000000000000000000000000600052602160045260246000fd5b6006811061119257611191611152565b5b50565b60008190506111a382611181565b919050565b60006111b382611195565b9050919050565b6111c3816111a8565b82525050565b600073ffffffffffffffffffffffffffffffffffffffff82169050919050565b60006111f4826111c9565b9050919050565b611204816111e9565b82525050565b600060808201905061121f60008301876110b3565b81810360208301526112318186611119565b905061124060408301856111ba565b61124d60608301846111fb565b95945050505050565b61125f816111e9565b811461126a57600080fd5b50565b60008135905061127c81611256565b92915050565b6000819050919050565b61129581611282565b81146112a057600080fd5b50565b6000813590506112b28161128c565b92915050565b600080604083850312156112cf576112ce611046565b5b60006112dd8582860161126d565b92505060206112ee858286016112a3565b9150509250929050565b61130181611282565b82525050565b600060208201905061131c60008301846112f8565b92915050565b600080fd5b600080fd5b7f4e487b7100000000000000000000000000000000000000000000000000000000600052604160045260246000fd5b61136482611108565b810181811067ffffffffffffffff821117156113835761138261132c565b5b80604052505050565b600061139661103c565b90506113a2828261135b565b919050565b600067ffffffffffffffff8211156113c2576113c161132c565b5b6113cb82611108565b9050602081019050919050565b82818337600083830152505050565b60006113fa6113f5846113a7565b61138c565b90508281526020810184848401111561141657611415611327565b5b6114218482856113d8565b509392505050565b600082601f83011261143e5761143d611322565b5b813561144e8482602086016113e7565b91505092915050565b60006020828403121561146d5761146c611046565b5b600082013567ffffffffffffffff81111561148b5761148a61104b565b5b61149784828501611429565b91505092915050565b60006020820190506114b560008301846110b3565b92915050565b6000602082840312156114d1576114d0611046565b5b60006114df8482850161126d565b91505092915050565b600081519050919050565b600082825260208201905092915050565b6000819050602082019050919050565b61151d81611050565b82525050565b600082825260208201905092915050565b600061153f826110c2565b6115498185611523565b93506115598185602086016110de565b61156281611108565b840191505092915050565b611576816111a8565b82525050565b611585816111e9565b82525050565b60006080830160008301516115a36000860182611514565b50602083015184820360208601526115bb8282611534565b91505060408301516115d0604086018261156d565b5060608301516115e3606086018261157c565b508091505092915050565b60006115fa838361158b565b905092915050565b6000602082019050919050565b600061161a826114e8565b61162481856114f3565b93508360208202850161163685611504565b8060005b85811015611672578484038952815161165385826115ee565b945061165e83611602565b925060208a0199505060018101905061163a565b50829750879550505050505092915050565b6000602082019050818103600083015261169e818461160f565b905092915050565b7f4e487b7100000000000000000000000000000000000000000000000000000000600052602260045260246000fd5b600060028204905060018216806116ed57607f821691505b602082108103611700576116ff6116a6565b5b50919050565b7f536f6c6f2041646d696e2070756f2061737365676e6172652072756f6c690000600082015250565b600061173c601e836110cd565b915061174782611706565b602082019050919050565b6000602082019050818103600083015261176b8161172f565b9050919050565b7f536f6c6f206c2741646d696e2070756f20637265617265206c6f747469000000600082015250565b60006117a8601d836110cd565b91506117b382611772565b602082019050919050565b600060208201905081810360008301526117d78161179b565b9050919050565b60008190508160005260206000209050919050565b60006020601f8301049050919050565b600082821b905092915050565b6000600883026118407fffffffffffffffffffffffffffffffffffffffffffffffffffffffffffffffff82611803565b61184a8683611803565b95508019841693508086168417925050509392505050565b6000819050919050565b600061188761188261187d84611050565b611862565b611050565b9050919050565b6000819050919050565b6118a18361186c565b6118b56118ad8261188e565b848454611810565b825550505050565b600090565b6118ca6118bd565b6118d5818484611898565b505050565b5b818110156118f9576118ee6000826118c2565b6001810190506118db565b5050565b601f82111561193e5761190f816117de565b611918846117f3565b81016020851015611927578190505b61193b611933856117f3565b8301826118da565b50505b505050565b600082821c905092915050565b600061196160001984600802611943565b1980831691505092915050565b600061197a8383611950565b9150826002028217905092915050565b611993826110c2565b67ffffffffffffffff8111156119ac576119ab61132c565b5b6119b682546116d5565b6119c18282856118fd565b600060209050601f8311600181146119f457600084156119e2578287015190505b6119ec858261196e565b865550611a54565b601f198416611a02866117de565b60005b82811015611a2a57848901518255600182019150602085019450602081019050611a05565b86831015611a475784890151611a43601f891682611950565b8355505b6001600288020188555050505b505050505050565b7f4e487b7100000000000000000000000000000000000000000000000000000000600052601160045260246000fd5b6000611a9682611050565b91507fffffffffffffffffffffffffffffffffffffffffffffffffffffffffffffffff8203611ac857611ac7611a5c565b5b600182019050919050565b7f536f6c6f206c2741646d696e2070756f20656c696d696e617265000000000000600082015250565b6000611b09601a836110cd565b9150611b1482611ad3565b602082019050919050565b60006020820190508181036000830152611b3881611afc565b9050919050565b7f496e64696365206e6f6e2076616c69646f000000000000000000000000000000600082015250565b6000611b756011836110cd565b9150611b8082611b3f565b602082019050919050565b60006020820190508181036000830152611ba481611b68565b9050919050565b6000611bb682611050565b9150611bc183611050565b9250828203905081811115611bd957611bd8611a5c565b5b92915050565b7f4e487b7100000000000000000000000000000000000000000000000000000000600052603260045260246000fd5b600081549050611c1d816116d5565b9050919050565b818103611c32575050611d0a565b611c3b82611c0e565b67ffffffffffffffff811115611c5457611c5361132c565b5b611c5e82546116d5565b611c698282856118fd565b6000601f831160018114611c985760008415611c86578287015490505b611c90858261196e565b865550611d03565b601f198416611ca6876117de565b9650611cb1866117de565b60005b82811015611cd957848901548255600182019150600185019450602081019050611cb4565b86831015611cf65784890154611cf2601f891682611950565b8355505b6001600288020188555050505b5050505050505b565b7f4e487b7100000000000000000000000000000000000000000000000000000000600052603160045260246000fd5b7f4c6f74746f20696e6573697374656e7465000000000000000000000000000000600082015250565b6000611d716011836110cd565b9150611d7c82611d3b565b602082019050919050565b60006020820190508181036000830152611da081611d64565b9050919050565b7f536f6c6f206c2741677269636f6c746f726520636f6e6665726d61206c61205660008201527f656e64656d6d6961000000000000000000000000000000000000000000000000602082015250565b6000611e036028836110cd565b9150611e0e82611da7565b604082019050919050565b60006020820190508181036000830152611e3281611df6565b9050919050565b7f536f6c6f20696c2053757065727669736f726520636f6e6665726d61206c612060008201527f4665726d656e74617a696f6e6500000000000000000000000000000000000000602082015250565b6000611e95602d836110cd565b9150611ea082611e39565b604082019050919050565b60006020820190508181036000830152611ec481611e88565b9050919050565b7f536f6c6f20696c2053757065727669736f726520636f6e6665726d61206c274160008201527f6666696e616d656e746f00000000000000000000000000000000000000000000602082015250565b6000611f27602a836110cd565b9150611f3282611ecb565b604082019050919050565b60006020820190508181036000830152611f5681611f1a565b9050919050565b7f536f6c6f20696c2043616e74696e6965726520636f6e6665726d61206c27496d60008201527f626f747469676c69616d656e746f000000000000000000000000000000000000602082015250565b6000611fb9602e836110cd565b9150611fc482611f5d565b604082019050919050565b60006020820190508181036000830152611fe881611fac565b9050919050565b7f536f6c6f20696c20436f727269657265206765737469736365206c612044697360008201527f74726962757a696f6e6500000000000000000000000000000000000000000000602082015250565b600061204b602a836110cd565b915061205682611fef565b604082019050919050565b6000602082019050818103600083015261207a8161203e565b9050919050565b7f4369636c6f20636f6d706c657461746f00000000000000000000000000000000600082015250565b60006120b76010836110cd565b91506120c282612081565b602082019050919050565b600060208201905081810360008301526120e6816120aa565b9050919050565b60006120f882611050565b915061210383611050565b925082820190508082111561211b5761211a611a5c565b5b9291505056fea26469706673582212200a8864e110163e2b54dda2c51117502644493e88f374c0c1432ff1454ef97d4a64736f6c63430008110033",
  "immutableReferences": {},
  "source": "// SPDX-License-Identifier: MIT\r\npragma solidity ^0.8.0;\r\n\r\ncontract WineProduction {\r\n    // Definizione Ruoli (Hash per risparmiare gas)\r\n    bytes32 public constant ADMIN = keccak256(\"ADMIN\");\r\n    bytes32 public constant AGRICOLTORE = keccak256(\"AGRICOLTORE\");\r\n    bytes32 public constant SUPERVISORE = keccak256(\"SUPERVISORE\");\r\n    bytes32 public constant CANTINIERE = keccak256(\"CANTINIERE\");\r\n    bytes32 public constant CORRIERE = keccak256(\"CORRIERE\");\r\n    bytes32 public constant DISTRIBUTORE = keccak256(\"DISTRIBUTORE\");\r\n\r\n    enum Stato { Creato, Vendemmiato, Fermentato, Affinato, Imbottigliato, Distribuito }\r\n    \r\n    struct Lotto {\r\n        uint256 id;\r\n        string tipo;\r\n        Stato stato;\r\n        address creatore;\r\n    }\r\n    \r\n    mapping(address => bytes32) public roles;\r\n    Lotto[] public lotti;\r\n    uint256 public nextId = 1;\r\n\r\n    constructor() {\r\n    // Chi fa il deploy diventa automaticamente ADMIN\r\n    roles[msg.sender] = keccak256(abi.encodePacked(\"ADMIN\"));\r\n}\r\n\r\n    // Solo l'Admin può creare lotti\r\n    function creaLotto(string memory _tipo) public {\r\n        require(roles[msg.sender] == ADMIN, \"Solo l'Admin puo creare lotti\");\r\n        lotti.push(Lotto(nextId, _tipo, Stato.Creato, msg.sender));\r\n        nextId++;\r\n    }\r\n    function eliminaLotto(uint256 _index) public {\r\n    require(roles[msg.sender] == keccak256(\"ADMIN\"), \"Solo l'Admin puo eliminare\");\r\n    require(_index < lotti.length, \"Indice non valido\");\r\n\r\n    // Sposta l'ultimo elemento al posto di quello da eliminare e accorcia l'array\r\n    // (Tecnica standard Solidity per eliminare da array dinamici)\r\n    lotti[_index] = lotti[lotti.length - 1];\r\n    lotti.pop();\r\n}\r\n\r\n    function avanzaStato(uint256 _index) public {\r\n        require(_index < lotti.length, \"Lotto inesistente\");\r\n        Lotto storage lotto = lotti[_index];\r\n        Stato attuale = lotto.stato;\r\n        bytes32 userRole = roles[msg.sender];\r\n\r\n        if (attuale == Stato.Creato) {\r\n            require(userRole == AGRICOLTORE, \"Solo l'Agricoltore conferma la Vendemmia\");\r\n        } \r\n        else if (attuale == Stato.Vendemmiato) {\r\n            require(userRole == SUPERVISORE, \"Solo il Supervisore conferma la Fermentazione\");\r\n        }\r\n        else if (attuale == Stato.Fermentato) {\r\n            require(userRole == SUPERVISORE, \"Solo il Supervisore conferma l'Affinamento\");\r\n        }\r\n        else if (attuale == Stato.Affinato) {\r\n            require(userRole == CANTINIERE, \"Solo il Cantiniere conferma l'Imbottigliamento\");\r\n        }\r\n        else if (attuale == Stato.Imbottigliato) {\r\n            require(userRole == CORRIERE, \"Solo il Corriere gestisce la Distribuzione\");\r\n        }\r\n        else if (attuale == Stato.Distribuito) {\r\n            revert(\"Ciclo completato\");\r\n        }\r\n\r\n        lotto.stato = Stato(uint(lotto.stato) + 1);\r\n    }\r\n\r\n    function assignRole(address _user, bytes32 _role) public {\r\n        require(roles[msg.sender] == ADMIN, \"Solo Admin puo assegnare ruoli\");\r\n        roles[_user] = _role;\r\n    }\r\n\r\n    function getLotti() public view returns (Lotto[] memory) {\r\n        return lotti;\r\n    }\r\n}",
  "sourcePath": "C:\\Utili\\Tutto\\università\\Magistrale\\Blockchain\\vinum-veritas\\backend\\contracts\\WineProduction.sol",
  "compiler": {
    "name": "solc",
    "version": "0.8.17+commit.8df45f5f.Emscripten.clang"
  },
  "schemaVersion": "3.4.14",
  "updatedAt": "2025-12-26T16:29:27.716Z",
  "networkType": "ethereum",
  "devdoc": {
    "kind": "dev",
    "methods": {},
    "version": 1
  },
  "userdoc": {
    "kind": "user",
    "methods": {},
    "version": 1
  }
}