{
  "contractName": "WineProduction",
  "abi": [
    {
      "inputs": [],
      "stateMutability": "nonpayable",
      "type": "constructor"
    },
    {
      "inputs": [],
      "name": "ADMIN",
      "outputs": [
        {
          "internalType": "bytes32",
          "name": "",
          "type": "bytes32"
        }
      ],
      "stateMutability": "view",
      "type": "function",
      "constant": true
    },
    {
      "inputs": [],
      "name": "AGRICOLTORE",
      "outputs": [
        {
          "internalType": "bytes32",
          "name": "",
          "type": "bytes32"
        }
      ],
      "stateMutability": "view",
      "type": "function",
      "constant": true
    },
    {
      "inputs": [],
      "name": "CANTINIERE",
      "outputs": [
        {
          "internalType": "bytes32",
          "name": "",
          "type": "bytes32"
        }
      ],
      "stateMutability": "view",
      "type": "function",
      "constant": true
    },
    {
      "inputs": [],
      "name": "CORRIERE",
      "outputs": [
        {
          "internalType": "bytes32",
          "name": "",
          "type": "bytes32"
        }
      ],
      "stateMutability": "view",
      "type": "function",
      "constant": true
    },
    {
      "inputs": [],
      "name": "DISTRIBUTORE",
      "outputs": [
        {
          "internalType": "bytes32",
          "name": "",
          "type": "bytes32"
        }
      ],
      "stateMutability": "view",
      "type": "function",
      "constant": true
    },
    {
      "inputs": [],
      "name": "SUPERVISORE",
      "outputs": [
        {
          "internalType": "bytes32",
          "name": "",
          "type": "bytes32"
        }
      ],
      "stateMutability": "view",
      "type": "function",
      "constant": true
    },
    {
      "inputs": [
        {
          "internalType": "uint256",
          "name": "",
          "type": "uint256"
        }
      ],
      "name": "lotti",
      "outputs": [
        {
          "internalType": "uint256",
          "name": "id",
          "type": "uint256"
        },
        {
          "internalType": "string",
          "name": "tipo",
          "type": "string"
        },
        {
          "internalType": "enum WineProduction.Stato",
          "name": "stato",
          "type": "uint8"
        },
        {
          "internalType": "address",
          "name": "agricoltore",
          "type": "address"
        },
        {
          "internalType": "address",
          "name": "supervisore",
          "type": "address"
        },
        {
          "internalType": "address",
          "name": "cantiniere",
          "type": "address"
        },
        {
          "internalType": "address",
          "name": "corriere",
          "type": "address"
        },
        {
          "internalType": "address",
          "name": "distributore",
          "type": "address"
        }
      ],
      "stateMutability": "view",
      "type": "function",
      "constant": true
    },
    {
      "inputs": [],
      "name": "nextId",
      "outputs": [
        {
          "internalType": "uint256",
          "name": "",
          "type": "uint256"
        }
      ],
      "stateMutability": "view",
      "type": "function",
      "constant": true
    },
    {
      "inputs": [
        {
          "internalType": "address",
          "name": "",
          "type": "address"
        }
      ],
      "name": "roles",
      "outputs": [
        {
          "internalType": "bytes32",
          "name": "",
          "type": "bytes32"
        }
      ],
      "stateMutability": "view",
      "type": "function",
      "constant": true
    },
    {
      "inputs": [
        {
          "internalType": "uint256",
          "name": "",
          "type": "uint256"
        }
      ],
      "name": "userAddresses",
      "outputs": [
        {
          "internalType": "address",
          "name": "",
          "type": "address"
        }
      ],
      "stateMutability": "view",
      "type": "function",
      "constant": true
    },
    {
      "inputs": [
        {
          "internalType": "address",
          "name": "",
          "type": "address"
        }
      ],
      "name": "users",
      "outputs": [
        {
          "internalType": "string",
          "name": "name",
          "type": "string"
        },
        {
          "internalType": "string",
          "name": "role",
          "type": "string"
        },
        {
          "internalType": "bool",
          "name": "isActive",
          "type": "bool"
        }
      ],
      "stateMutability": "view",
      "type": "function",
      "constant": true
    },
    {
      "inputs": [
        {
          "internalType": "string",
          "name": "_tipo",
          "type": "string"
        },
        {
          "internalType": "address",
          "name": "_agricoltore",
          "type": "address"
        },
        {
          "internalType": "address",
          "name": "_supervisore",
          "type": "address"
        },
        {
          "internalType": "address",
          "name": "_cantiniere",
          "type": "address"
        },
        {
          "internalType": "address",
          "name": "_corriere",
          "type": "address"
        },
        {
          "internalType": "address",
          "name": "_distributore",
          "type": "address"
        }
      ],
      "name": "creaLotto",
      "outputs": [],
      "stateMutability": "nonpayable",
      "type": "function"
    },
    {
      "inputs": [
        {
          "internalType": "uint256",
          "name": "_index",
          "type": "uint256"
        }
      ],
      "name": "avanzaStato",
      "outputs": [],
      "stateMutability": "nonpayable",
      "type": "function"
    },
    {
      "inputs": [
        {
          "internalType": "address",
          "name": "_user",
          "type": "address"
        },
        {
          "internalType": "string",
          "name": "_name",
          "type": "string"
        },
        {
          "internalType": "string",
          "name": "_roleName",
          "type": "string"
        }
      ],
      "name": "addUser",
      "outputs": [],
      "stateMutability": "nonpayable",
      "type": "function"
    },
    {
      "inputs": [
        {
          "internalType": "uint256",
          "name": "_index",
          "type": "uint256"
        }
      ],
      "name": "eliminaLotto",
      "outputs": [],
      "stateMutability": "nonpayable",
      "type": "function"
    },
    {
      "inputs": [],
      "name": "getLotti",
      "outputs": [
        {
          "components": [
            {
              "internalType": "uint256",
              "name": "id",
              "type": "uint256"
            },
            {
              "internalType": "string",
              "name": "tipo",
              "type": "string"
            },
            {
              "internalType": "enum WineProduction.Stato",
              "name": "stato",
              "type": "uint8"
            },
            {
              "internalType": "address",
              "name": "agricoltore",
              "type": "address"
            },
            {
              "internalType": "address",
              "name": "supervisore",
              "type": "address"
            },
            {
              "internalType": "address",
              "name": "cantiniere",
              "type": "address"
            },
            {
              "internalType": "address",
              "name": "corriere",
              "type": "address"
            },
            {
              "internalType": "address",
              "name": "distributore",
              "type": "address"
            }
          ],
          "internalType": "struct WineProduction.Lotto[]",
          "name": "",
          "type": "tuple[]"
        }
      ],
      "stateMutability": "view",
      "type": "function",
      "constant": true
    },
    {
      "inputs": [],
      "name": "getAllUserAddresses",
      "outputs": [
        {
          "internalType": "address[]",
          "name": "",
          "type": "address[]"
        }
      ],
      "stateMutability": "view",
      "type": "function",
      "constant": true
    }
  ],
  "bytecode": "0x6080604052600160045534801561001557600080fd5b507fdf8b4c520ffe197c5343c6f5aec59570151ef9a492f2c624fd45ddde6135ec426000803373ffffffffffffffffffffffffffffffffffffffff1673ffffffffffffffffffffffffffffffffffffffff16815260200190815260200160002081905550613025806100886000396000f3fe608060405234801561001057600080fd5b506004361061010b5760003560e01c8063742e3811116100a2578063a87430ba11610071578063a87430ba146102af578063b009d7a1146102e1578063b619bd96146102ff578063d7554a681461031d578063f674a916146103395761010b565b8063742e38111461022b5780637721158b146102475780638520e67814610263578063993746421461027f5761010b565b80633709ad78116100de5780633709ad78146101a1578063502c9bd5146101bf578063602eb2f6146101ef57806361b8ce8c1461020d5761010b565b806305422772146101105780632a0acc6a146101475780632f33002314610165578063363efa0a14610183575b600080fd5b61012a60048036038101906101259190611d68565b610357565b60405161013e989796959493929190611eec565b60405180910390f35b61014f6104e4565b60405161015c9190611f8a565b60405180910390f35b61016d610508565b60405161017a9190612063565b60405180910390f35b61018b610596565b6040516101989190611f8a565b60405180910390f35b6101a96105ba565b6040516101b69190611f8a565b60405180910390f35b6101d960048036038101906101d49190611d68565b6105de565b6040516101e69190612085565b60405180910390f35b6101f761061d565b6040516102049190611f8a565b60405180910390f35b610215610641565b60405161022291906120a0565b60405180910390f35b6102456004803603810190610240919061221c565b610647565b005b610261600480360381019061025c9190611d68565b6109a4565b005b61027d60048036038101906102789190611d68565b610e5f565b005b610299600480360381019061029491906122c5565b61156c565b6040516102a69190611f8a565b60405180910390f35b6102c960048036038101906102c491906122c5565b611584565b6040516102d89392919061230d565b60405180910390f35b6102e96116cb565b6040516102f69190611f8a565b60405180910390f35b6103076116ef565b604051610314919061252c565b60405180910390f35b6103376004803603810190610332919061254e565b6119d4565b005b610341611c9d565b60405161034e9190611f8a565b60405180910390f35b6003818154811061036757600080fd5b906000526020600020906007020160009150905080600001549080600101805461039090612608565b80601f01602080910402602001604051908101604052809291908181526020018280546103bc90612608565b80156104095780601f106103de57610100808354040283529160200191610409565b820191906000526020600020905b8154815290600101906020018083116103ec57829003601f168201915b5050505050908060020160009054906101000a900460ff16908060020160019054906101000a900473ffffffffffffffffffffffffffffffffffffffff16908060030160009054906101000a900473ffffffffffffffffffffffffffffffffffffffff16908060040160009054906101000a900473ffffffffffffffffffffffffffffffffffffffff16908060050160009054906101000a900473ffffffffffffffffffffffffffffffffffffffff16908060060160009054906101000a900473ffffffffffffffffffffffffffffffffffffffff16905088565b7fdf8b4c520ffe197c5343c6f5aec59570151ef9a492f2c624fd45ddde6135ec4281565b6060600280548060200260200160405190810160405280929190818152602001828054801561058c57602002820191906000526020600020905b8160009054906101000a900473ffffffffffffffffffffffffffffffffffffffff1673ffffffffffffffffffffffffffffffffffffffff1681526020019060010190808311610542575b5050505050905090565b7ffbf573f3c4bccce46c1dbf63795f7fadf7bb39d8917933246b61e08ad44b1be581565b7fef3622f293edb090d8a3b2cc5caa5df142b73c51f9f008eb8c34c66a9377593a81565b600281815481106105ee57600080fd5b906000526020600020016000915054906101000a900473ffffffffffffffffffffffffffffffffffffffff1681565b7f2cf85fe15d4ee363be02bc59776a4870c18edd8ff76c49234fa76f6645e4421581565b60045481565b7fdf8b4c520ffe197c5343c6f5aec59570151ef9a492f2c624fd45ddde6135ec426000803373ffffffffffffffffffffffffffffffffffffffff1673ffffffffffffffffffffffffffffffffffffffff16815260200190815260200160002054146106e7576040517f08c379a00000000000000000000000000000000000000000000000000000000081526004016106de90612685565b60405180910390fd5b600360405180610100016040528060045481526020018881526020016000600681111561071757610716611e34565b5b81526020018773ffffffffffffffffffffffffffffffffffffffff1681526020018673ffffffffffffffffffffffffffffffffffffffff1681526020018573ffffffffffffffffffffffffffffffffffffffff1681526020018473ffffffffffffffffffffffffffffffffffffffff1681526020018373ffffffffffffffffffffffffffffffffffffffff1681525090806001815401808255809150506001900390600052602060002090600702016000909190919091506000820151816000015560208201518160010190816107ee9190612851565b5060408201518160020160006101000a81548160ff0219169083600681111561081a57610819611e34565b5b021790555060608201518160020160016101000a81548173ffffffffffffffffffffffffffffffffffffffff021916908373ffffffffffffffffffffffffffffffffffffffff16021790555060808201518160030160006101000a81548173ffffffffffffffffffffffffffffffffffffffff021916908373ffffffffffffffffffffffffffffffffffffffff16021790555060a08201518160040160006101000a81548173ffffffffffffffffffffffffffffffffffffffff021916908373ffffffffffffffffffffffffffffffffffffffff16021790555060c08201518160050160006101000a81548173ffffffffffffffffffffffffffffffffffffffff021916908373ffffffffffffffffffffffffffffffffffffffff16021790555060e08201518160060160006101000a81548173ffffffffffffffffffffffffffffffffffffffff021916908373ffffffffffffffffffffffffffffffffffffffff16021790555050506004600081548092919061099790612952565b9190505550505050505050565b7fdf8b4c520ffe197c5343c6f5aec59570151ef9a492f2c624fd45ddde6135ec426000803373ffffffffffffffffffffffffffffffffffffffff1673ffffffffffffffffffffffffffffffffffffffff1681526020019081526020016000205414610a44576040517f08c379a0000000000000000000000000000000000000000000000000000000008152600401610a3b90612685565b60405180910390fd5b6003805490508110610a8b576040517f08c379a0000000000000000000000000000000000000000000000000000000008152600401610a82906129e6565b60405180910390fd5b60036001600380549050610a9f9190612a06565b81548110610ab057610aaf612a3a565b5b906000526020600020906007020160038281548110610ad257610ad1612a3a565b5b90600052602060002090600702016000820154816000015560018201816001019081610afe9190612a7f565b506002820160009054906101000a900460ff168160020160006101000a81548160ff02191690836006811115610b3757610b36611e34565b5b02179055506002820160019054906101000a900473ffffffffffffffffffffffffffffffffffffffff168160020160016101000a81548173ffffffffffffffffffffffffffffffffffffffff021916908373ffffffffffffffffffffffffffffffffffffffff1602179055506003820160009054906101000a900473ffffffffffffffffffffffffffffffffffffffff168160030160006101000a81548173ffffffffffffffffffffffffffffffffffffffff021916908373ffffffffffffffffffffffffffffffffffffffff1602179055506004820160009054906101000a900473ffffffffffffffffffffffffffffffffffffffff168160040160006101000a81548173ffffffffffffffffffffffffffffffffffffffff021916908373ffffffffffffffffffffffffffffffffffffffff1602179055506005820160009054906101000a900473ffffffffffffffffffffffffffffffffffffffff168160050160006101000a81548173ffffffffffffffffffffffffffffffffffffffff021916908373ffffffffffffffffffffffffffffffffffffffff1602179055506006820160009054906101000a900473ffffffffffffffffffffffffffffffffffffffff168160060160006101000a81548173ffffffffffffffffffffffffffffffffffffffff021916908373ffffffffffffffffffffffffffffffffffffffff1602179055509050506003805480610d5457610d53612b67565b5b6001900381819060005260206000209060070201600080820160009055600182016000610d819190611cc1565b6002820160006101000a81549060ff02191690556002820160016101000a81549073ffffffffffffffffffffffffffffffffffffffff02191690556003820160006101000a81549073ffffffffffffffffffffffffffffffffffffffff02191690556004820160006101000a81549073ffffffffffffffffffffffffffffffffffffffff02191690556005820160006101000a81549073ffffffffffffffffffffffffffffffffffffffff02191690556006820160006101000a81549073ffffffffffffffffffffffffffffffffffffffff02191690555050905550565b6003805490508110610ea6576040517f08c379a0000000000000000000000000000000000000000000000000000000008152600401610e9d90612be2565b60405180910390fd5b600060038281548110610ebc57610ebb612a3a565b5b9060005260206000209060070201905060008160020160009054906101000a900460ff16905060008060003373ffffffffffffffffffffffffffffffffffffffff1673ffffffffffffffffffffffffffffffffffffffff16815260200190815260200160002054905060006006811115610f3957610f38611e34565b5b826006811115610f4c57610f4b611e34565b5b03611013577f2cf85fe15d4ee363be02bc59776a4870c18edd8ff76c49234fa76f6645e4421581148015610fcf57508260020160019054906101000a900473ffffffffffffffffffffffffffffffffffffffff1673ffffffffffffffffffffffffffffffffffffffff163373ffffffffffffffffffffffffffffffffffffffff16145b61100e576040517f08c379a000000000000000000000000000000000000000000000000000000000815260040161100590612c4e565b60405180910390fd5b6114f9565b6001600681111561102757611026611e34565b5b82600681111561103a57611039611e34565b5b03611101577f9337c84965dad9c5be73858d8944f2762885e962d74177742c0a20a7e7ad22ae811480156110bd57508260030160009054906101000a900473ffffffffffffffffffffffffffffffffffffffff1673ffffffffffffffffffffffffffffffffffffffff163373ffffffffffffffffffffffffffffffffffffffff16145b6110fc576040517f08c379a00000000000000000000000000000000000000000000000000000000081526004016110f390612ce0565b60405180910390fd5b6114f8565b6002600681111561111557611114611e34565b5b82600681111561112857611127611e34565b5b036111ef577f9337c84965dad9c5be73858d8944f2762885e962d74177742c0a20a7e7ad22ae811480156111ab57508260030160009054906101000a900473ffffffffffffffffffffffffffffffffffffffff1673ffffffffffffffffffffffffffffffffffffffff163373ffffffffffffffffffffffffffffffffffffffff16145b6111ea576040517f08c379a00000000000000000000000000000000000000000000000000000000081526004016111e190612d72565b60405180910390fd5b6114f7565b6003600681111561120357611202611e34565b5b82600681111561121657611215611e34565b5b036112dd577fef3622f293edb090d8a3b2cc5caa5df142b73c51f9f008eb8c34c66a9377593a8114801561129957508260040160009054906101000a900473ffffffffffffffffffffffffffffffffffffffff1673ffffffffffffffffffffffffffffffffffffffff163373ffffffffffffffffffffffffffffffffffffffff16145b6112d8576040517f08c379a00000000000000000000000000000000000000000000000000000000081526004016112cf90612dde565b60405180910390fd5b6114f6565b600460068111156112f1576112f0611e34565b5b82600681111561130457611303611e34565b5b036113cb577ffbf573f3c4bccce46c1dbf63795f7fadf7bb39d8917933246b61e08ad44b1be58114801561138757508260050160009054906101000a900473ffffffffffffffffffffffffffffffffffffffff1673ffffffffffffffffffffffffffffffffffffffff163373ffffffffffffffffffffffffffffffffffffffff16145b6113c6576040517f08c379a00000000000000000000000000000000000000000000000000000000081526004016113bd90612e4a565b60405180910390fd5b6114f5565b600560068111156113df576113de611e34565b5b8260068111156113f2576113f1611e34565b5b036114b9577f0ce117c3e3256b329a75f369991e5099ec385240832e5464fdfe86571d4873268114801561147557508260060160009054906101000a900473ffffffffffffffffffffffffffffffffffffffff1673ffffffffffffffffffffffffffffffffffffffff163373ffffffffffffffffffffffffffffffffffffffff16145b6114b4576040517f08c379a00000000000000000000000000000000000000000000000000000000081526004016114ab90612eb6565b60405180910390fd5b6114f4565b6040517f08c379a00000000000000000000000000000000000000000000000000000000081526004016114eb90612f48565b60405180910390fd5b5b5b5b5b5b60018360020160009054906101000a900460ff16600681111561151f5761151e611e34565b5b6115299190612f68565b600681111561153b5761153a611e34565b5b8360020160006101000a81548160ff0219169083600681111561156157611560611e34565b5b021790555050505050565b60006020528060005260406000206000915090505481565b60016020528060005260406000206000915090508060000180546115a790612608565b80601f01602080910402602001604051908101604052809291908181526020018280546115d390612608565b80156116205780601f106115f557610100808354040283529160200191611620565b820191906000526020600020905b81548152906001019060200180831161160357829003601f168201915b50505050509080600101805461163590612608565b80601f016020809104026020016040519081016040528092919081815260200182805461166190612608565b80156116ae5780601f10611683576101008083540402835291602001916116ae565b820191906000526020600020905b81548152906001019060200180831161169157829003601f168201915b5050505050908060020160009054906101000a900460ff16905083565b7f0ce117c3e3256b329a75f369991e5099ec385240832e5464fdfe86571d48732681565b60606003805480602002602001604051908101604052809291908181526020016000905b828210156119cb5783829060005260206000209060070201604051806101000160405290816000820154815260200160018201805461175190612608565b80601f016020809104026020016040519081016040528092919081815260200182805461177d90612608565b80156117ca5780601f1061179f576101008083540402835291602001916117ca565b820191906000526020600020905b8154815290600101906020018083116117ad57829003601f168201915b505050505081526020016002820160009054906101000a900460ff1660068111156117f8576117f7611e34565b5b600681111561180a57611809611e34565b5b81526020016002820160019054906101000a900473ffffffffffffffffffffffffffffffffffffffff1673ffffffffffffffffffffffffffffffffffffffff1673ffffffffffffffffffffffffffffffffffffffff1681526020016003820160009054906101000a900473ffffffffffffffffffffffffffffffffffffffff1673ffffffffffffffffffffffffffffffffffffffff1673ffffffffffffffffffffffffffffffffffffffff1681526020016004820160009054906101000a900473ffffffffffffffffffffffffffffffffffffffff1673ffffffffffffffffffffffffffffffffffffffff1673ffffffffffffffffffffffffffffffffffffffff1681526020016005820160009054906101000a900473ffffffffffffffffffffffffffffffffffffffff1673ffffffffffffffffffffffffffffffffffffffff1673ffffffffffffffffffffffffffffffffffffffff1681526020016006820160009054906101000a900473ffffffffffffffffffffffffffffffffffffffff1673ffffffffffffffffffffffffffffffffffffffff1673ffffffffffffffffffffffffffffffffffffffff168152505081526020019060010190611713565b50505050905090565b7fdf8b4c520ffe197c5343c6f5aec59570151ef9a492f2c624fd45ddde6135ec426000803373ffffffffffffffffffffffffffffffffffffffff1673ffffffffffffffffffffffffffffffffffffffff1681526020019081526020016000205414611a74576040517f08c379a0000000000000000000000000000000000000000000000000000000008152600401611a6b90612685565b60405180910390fd5b600081604051602001611a879190612fd8565b604051602081830303815290604052805190602001209050806000808673ffffffffffffffffffffffffffffffffffffffff1673ffffffffffffffffffffffffffffffffffffffff16815260200190815260200160002081905550604051806060016040528084815260200183815260200160011515815250600160008673ffffffffffffffffffffffffffffffffffffffff1673ffffffffffffffffffffffffffffffffffffffff1681526020019081526020016000206000820151816000019081611b549190612851565b506020820151816001019081611b6a9190612851565b5060408201518160020160006101000a81548160ff0219169083151502179055509050506000805b600280549050811015611c2c578573ffffffffffffffffffffffffffffffffffffffff1660028281548110611bca57611bc9612a3a565b5b9060005260206000200160009054906101000a900473ffffffffffffffffffffffffffffffffffffffff1673ffffffffffffffffffffffffffffffffffffffff1603611c195760019150611c2c565b8080611c2490612952565b915050611b92565b5080611c96576002859080600181540180825580915050600190039060005260206000200160009091909190916101000a81548173ffffffffffffffffffffffffffffffffffffffff021916908373ffffffffffffffffffffffffffffffffffffffff1602179055505b5050505050565b7f9337c84965dad9c5be73858d8944f2762885e962d74177742c0a20a7e7ad22ae81565b508054611ccd90612608565b6000825580601f10611cdf5750611cfe565b601f016020900490600052602060002090810190611cfd9190611d01565b5b50565b5b80821115611d1a576000816000905550600101611d02565b5090565b6000604051905090565b600080fd5b600080fd5b6000819050919050565b611d4581611d32565b8114611d5057600080fd5b50565b600081359050611d6281611d3c565b92915050565b600060208284031215611d7e57611d7d611d28565b5b6000611d8c84828501611d53565b91505092915050565b611d9e81611d32565b82525050565b600081519050919050565b600082825260208201905092915050565b60005b83811015611dde578082015181840152602081019050611dc3565b60008484015250505050565b6000601f19601f8301169050919050565b6000611e0682611da4565b611e108185611daf565b9350611e20818560208601611dc0565b611e2981611dea565b840191505092915050565b7f4e487b7100000000000000000000000000000000000000000000000000000000600052602160045260246000fd5b60078110611e7457611e73611e34565b5b50565b6000819050611e8582611e63565b919050565b6000611e9582611e77565b9050919050565b611ea581611e8a565b82525050565b600073ffffffffffffffffffffffffffffffffffffffff82169050919050565b6000611ed682611eab565b9050919050565b611ee681611ecb565b82525050565b600061010082019050611f02600083018b611d95565b8181036020830152611f14818a611dfb565b9050611f236040830189611e9c565b611f306060830188611edd565b611f3d6080830187611edd565b611f4a60a0830186611edd565b611f5760c0830185611edd565b611f6460e0830184611edd565b9998505050505050505050565b6000819050919050565b611f8481611f71565b82525050565b6000602082019050611f9f6000830184611f7b565b92915050565b600081519050919050565b600082825260208201905092915050565b6000819050602082019050919050565b611fda81611ecb565b82525050565b6000611fec8383611fd1565b60208301905092915050565b6000602082019050919050565b600061201082611fa5565b61201a8185611fb0565b935061202583611fc1565b8060005b8381101561205657815161203d8882611fe0565b975061204883611ff8565b925050600181019050612029565b5085935050505092915050565b6000602082019050818103600083015261207d8184612005565b905092915050565b600060208201905061209a6000830184611edd565b92915050565b60006020820190506120b56000830184611d95565b92915050565b600080fd5b600080fd5b7f4e487b7100000000000000000000000000000000000000000000000000000000600052604160045260246000fd5b6120fd82611dea565b810181811067ffffffffffffffff8211171561211c5761211b6120c5565b5b80604052505050565b600061212f611d1e565b905061213b82826120f4565b919050565b600067ffffffffffffffff82111561215b5761215a6120c5565b5b61216482611dea565b9050602081019050919050565b82818337600083830152505050565b600061219361218e84612140565b612125565b9050828152602081018484840111156121af576121ae6120c0565b5b6121ba848285612171565b509392505050565b600082601f8301126121d7576121d66120bb565b5b81356121e7848260208601612180565b91505092915050565b6121f981611ecb565b811461220457600080fd5b50565b600081359050612216816121f0565b92915050565b60008060008060008060c0878903121561223957612238611d28565b5b600087013567ffffffffffffffff81111561225757612256611d2d565b5b61226389828a016121c2565b965050602061227489828a01612207565b955050604061228589828a01612207565b945050606061229689828a01612207565b93505060806122a789828a01612207565b92505060a06122b889828a01612207565b9150509295509295509295565b6000602082840312156122db576122da611d28565b5b60006122e984828501612207565b91505092915050565b60008115159050919050565b612307816122f2565b82525050565b600060608201905081810360008301526123278186611dfb565b9050818103602083015261233b8185611dfb565b905061234a60408301846122fe565b949350505050565b600081519050919050565b600082825260208201905092915050565b6000819050602082019050919050565b61238781611d32565b82525050565b600082825260208201905092915050565b60006123a982611da4565b6123b3818561238d565b93506123c3818560208601611dc0565b6123cc81611dea565b840191505092915050565b6123e081611e8a565b82525050565b6000610100830160008301516123ff600086018261237e565b5060208301518482036020860152612417828261239e565b915050604083015161242c60408601826123d7565b50606083015161243f6060860182611fd1565b5060808301516124526080860182611fd1565b5060a083015161246560a0860182611fd1565b5060c083015161247860c0860182611fd1565b5060e083015161248b60e0860182611fd1565b508091505092915050565b60006124a283836123e6565b905092915050565b6000602082019050919050565b60006124c282612352565b6124cc818561235d565b9350836020820285016124de8561236e565b8060005b8581101561251a57848403895281516124fb8582612496565b9450612506836124aa565b925060208a019950506001810190506124e2565b50829750879550505050505092915050565b6000602082019050818103600083015261254681846124b7565b905092915050565b60008060006060848603121561256757612566611d28565b5b600061257586828701612207565b935050602084013567ffffffffffffffff81111561259657612595611d2d565b5b6125a2868287016121c2565b925050604084013567ffffffffffffffff8111156125c3576125c2611d2d565b5b6125cf868287016121c2565b9150509250925092565b7f4e487b7100000000000000000000000000000000000000000000000000000000600052602260045260246000fd5b6000600282049050600182168061262057607f821691505b602082108103612633576126326125d9565b5b50919050565b7f536f6c6f2041646d696e00000000000000000000000000000000000000000000600082015250565b600061266f600a83611daf565b915061267a82612639565b602082019050919050565b6000602082019050818103600083015261269e81612662565b9050919050565b60008190508160005260206000209050919050565b60006020601f8301049050919050565b600082821b905092915050565b6000600883026127077fffffffffffffffffffffffffffffffffffffffffffffffffffffffffffffffff826126ca565b61271186836126ca565b95508019841693508086168417925050509392505050565b6000819050919050565b600061274e61274961274484611d32565b612729565b611d32565b9050919050565b6000819050919050565b61276883612733565b61277c61277482612755565b8484546126d7565b825550505050565b600090565b612791612784565b61279c81848461275f565b505050565b5b818110156127c0576127b5600082612789565b6001810190506127a2565b5050565b601f821115612805576127d6816126a5565b6127df846126ba565b810160208510156127ee578190505b6128026127fa856126ba565b8301826127a1565b50505b505050565b600082821c905092915050565b60006128286000198460080261280a565b1980831691505092915050565b60006128418383612817565b9150826002028217905092915050565b61285a82611da4565b67ffffffffffffffff811115612873576128726120c5565b5b61287d8254612608565b6128888282856127c4565b600060209050601f8311600181146128bb57600084156128a9578287015190505b6128b38582612835565b86555061291b565b601f1984166128c9866126a5565b60005b828110156128f1578489015182556001820191506020850194506020810190506128cc565b8683101561290e578489015161290a601f891682612817565b8355505b6001600288020188555050505b505050505050565b7f4e487b7100000000000000000000000000000000000000000000000000000000600052601160045260246000fd5b600061295d82611d32565b91507fffffffffffffffffffffffffffffffffffffffffffffffffffffffffffffffff820361298f5761298e612923565b5b600182019050919050565b7f496e64696365206e6f6e2076616c69646f000000000000000000000000000000600082015250565b60006129d0601183611daf565b91506129db8261299a565b602082019050919050565b600060208201905081810360008301526129ff816129c3565b9050919050565b6000612a1182611d32565b9150612a1c83611d32565b9250828203905081811115612a3457612a33612923565b5b92915050565b7f4e487b7100000000000000000000000000000000000000000000000000000000600052603260045260246000fd5b600081549050612a7881612608565b9050919050565b818103612a8d575050612b65565b612a9682612a69565b67ffffffffffffffff811115612aaf57612aae6120c5565b5b612ab98254612608565b612ac48282856127c4565b6000601f831160018114612af35760008415612ae1578287015490505b612aeb8582612835565b865550612b5e565b601f198416612b01876126a5565b9650612b0c866126a5565b60005b82811015612b3457848901548255600182019150600185019450602081019050612b0f565b86831015612b515784890154612b4d601f891682612817565b8355505b6001600288020188555050505b5050505050505b565b7f4e487b7100000000000000000000000000000000000000000000000000000000600052603160045260246000fd5b7f4c6f74746f20696e6573697374656e7465000000000000000000000000000000600082015250565b6000612bcc601183611daf565b9150612bd782612b96565b602082019050919050565b60006020820190508181036000830152612bfb81612bbf565b9050919050565b7f536f6c6f206c2741677269636f6c746f72652061737365676e61746f00000000600082015250565b6000612c38601c83611daf565b9150612c4382612c02565b602082019050919050565b60006020820190508181036000830152612c6781612c2b565b9050919050565b7f536f6c6f20696c2053757065727669736f72652061737365676e61746f20284660008201527f65726d656e74617a696f6e652900000000000000000000000000000000000000602082015250565b6000612cca602d83611daf565b9150612cd582612c6e565b604082019050919050565b60006020820190508181036000830152612cf981612cbd565b9050919050565b7f536f6c6f20696c2053757065727669736f72652061737365676e61746f20284160008201527f6666696e616d656e746f29000000000000000000000000000000000000000000602082015250565b6000612d5c602b83611daf565b9150612d6782612d00565b604082019050919050565b60006020820190508181036000830152612d8b81612d4f565b9050919050565b7f536f6c6f20696c2043616e74696e696572652061737365676e61746f00000000600082015250565b6000612dc8601c83611daf565b9150612dd382612d92565b602082019050919050565b60006020820190508181036000830152612df781612dbb565b9050919050565b7f536f6c6f20696c20436f7272696572652061737365676e61746f000000000000600082015250565b6000612e34601a83611daf565b9150612e3f82612dfe565b602082019050919050565b60006020820190508181036000830152612e6381612e27565b9050919050565b7f536f6c6f20696c204469737472696275746f72652061737365676e61746f0000600082015250565b6000612ea0601e83611daf565b9150612eab82612e6a565b602082019050919050565b60006020820190508181036000830152612ecf81612e93565b9050919050565b7f4369636c6f2067696120636f6d706c657461746f206f20737461746f206e6f6e60008201527f206765737469746f000000000000000000000000000000000000000000000000602082015250565b6000612f32602883611daf565b9150612f3d82612ed6565b604082019050919050565b60006020820190508181036000830152612f6181612f25565b9050919050565b6000612f7382611d32565b9150612f7e83611d32565b9250828201905080821115612f9657612f95612923565b5b92915050565b600081905092915050565b6000612fb282611da4565b612fbc8185612f9c565b9350612fcc818560208601611dc0565b80840191505092915050565b6000612fe48284612fa7565b91508190509291505056fea264697066735822122072cd1828f5aa208859ad3594689b0a1c031250f36e74b52f8c598deea0ba1afc64736f6c63430008110033",
  "immutableReferences": {},
  "source": "// SPDX-License-Identifier: MIT\r\npragma solidity ^0.8.0;\r\n\r\ncontract WineProduction {\r\n    // Definizione Ruoli (Hash)\r\n    bytes32 public constant ADMIN = keccak256(\"ADMIN\");\r\n    bytes32 public constant AGRICOLTORE = keccak256(\"AGRICOLTORE\");\r\n    bytes32 public constant SUPERVISORE = keccak256(\"SUPERVISORE\");\r\n    bytes32 public constant CANTINIERE = keccak256(\"CANTINIERE\");\r\n    bytes32 public constant CORRIERE = keccak256(\"CORRIERE\");\r\n    bytes32 public constant DISTRIBUTORE = keccak256(\"DISTRIBUTORE\");\r\n\r\n    // L'Enum deve essere definito PRIMA dello Struct che lo usa\r\n    enum Stato { \r\n        Creato,         // 0\r\n        Vendemmiato,    // 1\r\n        Fermentato,     // 2\r\n        Affinato,       // 3\r\n        Imbottigliato,  // 4\r\n        Distribuito,    // 5\r\n        Completato      // 6\r\n    }\r\n    \r\n    struct Lotto {\r\n        uint256 id;\r\n        string tipo;\r\n        Stato stato;\r\n        address agricoltore;\r\n        address supervisore;\r\n        address cantiniere;\r\n        address corriere;\r\n        address distributore;\r\n    }\r\n\r\n    struct User {\r\n        string name;\r\n        string role;\r\n        bool isActive;\r\n    }\r\n    \r\n    mapping(address => bytes32) public roles;\r\n    mapping(address => User) public users;\r\n    address[] public userAddresses;\r\n    Lotto[] public lotti;\r\n    uint256 public nextId = 1;\r\n\r\n    constructor() {\r\n        // Chi fa il deploy diventa ADMIN\r\n        roles[msg.sender] = ADMIN;\r\n    }\r\n\r\n    // Crea Lotto con tutta la filiera assegnata\r\n    function creaLotto(\r\n        string memory _tipo, \r\n        address _agricoltore,\r\n        address _supervisore,\r\n        address _cantiniere,\r\n        address _corriere,\r\n        address _distributore\r\n    ) public {\r\n        require(roles[msg.sender] == ADMIN, \"Solo Admin\");\r\n        \r\n        lotti.push(Lotto({\r\n            id: nextId,\r\n            tipo: _tipo,\r\n            stato: Stato.Creato,\r\n            agricoltore: _agricoltore,\r\n            supervisore: _supervisore,\r\n            cantiniere: _cantiniere,\r\n            corriere: _corriere,\r\n            distributore: _distributore\r\n        }));\r\n        \r\n        nextId++;\r\n    }\r\n\r\n    function avanzaStato(uint256 _index) public {\r\n        require(_index < lotti.length, \"Lotto inesistente\");\r\n        Lotto storage lotto = lotti[_index];\r\n        Stato attuale = lotto.stato;\r\n        bytes32 userRole = roles[msg.sender];\r\n\r\n        if (attuale == Stato.Creato) {\r\n            require(userRole == AGRICOLTORE && msg.sender == lotto.agricoltore, \"Solo l'Agricoltore assegnato\");\r\n        } \r\n        else if (attuale == Stato.Vendemmiato) {\r\n            require(userRole == SUPERVISORE && msg.sender == lotto.supervisore, \"Solo il Supervisore assegnato (Fermentazione)\");\r\n        }\r\n        else if (attuale == Stato.Fermentato) {\r\n            require(userRole == SUPERVISORE && msg.sender == lotto.supervisore, \"Solo il Supervisore assegnato (Affinamento)\");\r\n        }\r\n        else if (attuale == Stato.Affinato) {\r\n            require(userRole == CANTINIERE && msg.sender == lotto.cantiniere, \"Solo il Cantiniere assegnato\");\r\n        }\r\n        else if (attuale == Stato.Imbottigliato) {\r\n            require(userRole == CORRIERE && msg.sender == lotto.corriere, \"Solo il Corriere assegnato\");\r\n        }\r\n        else if (attuale == Stato.Distribuito) {\r\n            require(userRole == DISTRIBUTORE && msg.sender == lotto.distributore, \"Solo il Distributore assegnato\");\r\n        }\r\n        else {\r\n            revert(\"Ciclo gia completato o stato non gestito\");\r\n        }\r\n\r\n        lotto.stato = Stato(uint(lotto.stato) + 1);\r\n    }\r\n\r\n    function addUser(address _user, string memory _name, string memory _roleName) public {\r\n        require(roles[msg.sender] == ADMIN, \"Solo Admin\");\r\n        \r\n        // Assegna il ruolo basato sulla stringa ricevuta\r\n        bytes32 roleHash = keccak256(abi.encodePacked(_roleName));\r\n        roles[_user] = roleHash;\r\n        \r\n        users[_user] = User(_name, _roleName, true);\r\n        \r\n        bool exists = false;\r\n        for(uint i=0; i < userAddresses.length; i++) {\r\n            if(userAddresses[i] == _user) { exists = true; break; }\r\n        }\r\n        if(!exists) userAddresses.push(_user);\r\n    }\r\n\r\n    function eliminaLotto(uint256 _index) public {\r\n        require(roles[msg.sender] == ADMIN, \"Solo Admin\");\r\n        require(_index < lotti.length, \"Indice non valido\");\r\n        lotti[_index] = lotti[lotti.length - 1];\r\n        lotti.pop();\r\n    }\r\n\r\n    function getLotti() public view returns (Lotto[] memory) {\r\n        return lotti;\r\n    }\r\n\r\n    function getAllUserAddresses() public view returns (address[] memory) {\r\n        return userAddresses;\r\n    }\r\n}",
  "sourcePath": "C:\\Utili\\Tutto\\università\\Magistrale\\Blockchain\\vinum-veritas\\backend\\contracts\\WineProduction.sol",
  "compiler": {
    "name": "solc",
    "version": "0.8.17+commit.8df45f5f.Emscripten.clang"
  },
  "schemaVersion": "3.4.14",
  "updatedAt": "2025-12-29T16:11:34.676Z",
  "networkType": "ethereum",
  "devdoc": {
    "kind": "dev",
    "methods": {},
    "version": 1
  },
  "userdoc": {
    "kind": "user",
    "methods": {},
    "version": 1
  }
}