{
  "contractName": "WineProduction",
  "abi": [
    {
      "inputs": [],
      "stateMutability": "nonpayable",
      "type": "constructor"
    },
    {
      "anonymous": false,
      "inputs": [
        {
          "indexed": false,
          "internalType": "uint256",
          "name": "id",
          "type": "uint256"
        },
        {
          "indexed": false,
          "internalType": "string",
          "name": "tipo",
          "type": "string"
        },
        {
          "indexed": false,
          "internalType": "address",
          "name": "produttore",
          "type": "address"
        }
      ],
      "name": "LottoCreato",
      "type": "event"
    },
    {
      "anonymous": false,
      "inputs": [
        {
          "indexed": false,
          "internalType": "address",
          "name": "utente",
          "type": "address"
        },
        {
          "indexed": false,
          "internalType": "string",
          "name": "ruoloStringa",
          "type": "string"
        }
      ],
      "name": "RuoloAssegnato",
      "type": "event"
    },
    {
      "anonymous": false,
      "inputs": [
        {
          "indexed": false,
          "internalType": "uint256",
          "name": "id",
          "type": "uint256"
        },
        {
          "indexed": false,
          "internalType": "enum WineProduction.Stato",
          "name": "nuovoStato",
          "type": "uint8"
        },
        {
          "indexed": false,
          "internalType": "address",
          "name": "operatore",
          "type": "address"
        }
      ],
      "name": "StatoAggiornato",
      "type": "event"
    },
    {
      "inputs": [],
      "name": "ADMIN",
      "outputs": [
        {
          "internalType": "bytes32",
          "name": "",
          "type": "bytes32"
        }
      ],
      "stateMutability": "view",
      "type": "function",
      "constant": true
    },
    {
      "inputs": [],
      "name": "AGRICOLTORE",
      "outputs": [
        {
          "internalType": "bytes32",
          "name": "",
          "type": "bytes32"
        }
      ],
      "stateMutability": "view",
      "type": "function",
      "constant": true
    },
    {
      "inputs": [],
      "name": "CANTINIERE",
      "outputs": [
        {
          "internalType": "bytes32",
          "name": "",
          "type": "bytes32"
        }
      ],
      "stateMutability": "view",
      "type": "function",
      "constant": true
    },
    {
      "inputs": [],
      "name": "CORRIERE",
      "outputs": [
        {
          "internalType": "bytes32",
          "name": "",
          "type": "bytes32"
        }
      ],
      "stateMutability": "view",
      "type": "function",
      "constant": true
    },
    {
      "inputs": [],
      "name": "DISTRIBUTORE",
      "outputs": [
        {
          "internalType": "bytes32",
          "name": "",
          "type": "bytes32"
        }
      ],
      "stateMutability": "view",
      "type": "function",
      "constant": true
    },
    {
      "inputs": [],
      "name": "SUPERVISORE",
      "outputs": [
        {
          "internalType": "bytes32",
          "name": "",
          "type": "bytes32"
        }
      ],
      "stateMutability": "view",
      "type": "function",
      "constant": true
    },
    {
      "inputs": [],
      "name": "admin",
      "outputs": [
        {
          "internalType": "address",
          "name": "",
          "type": "address"
        }
      ],
      "stateMutability": "view",
      "type": "function",
      "constant": true
    },
    {
      "inputs": [
        {
          "internalType": "uint256",
          "name": "",
          "type": "uint256"
        }
      ],
      "name": "lotti",
      "outputs": [
        {
          "internalType": "uint256",
          "name": "id",
          "type": "uint256"
        },
        {
          "internalType": "string",
          "name": "tipo",
          "type": "string"
        },
        {
          "internalType": "enum WineProduction.Stato",
          "name": "stato",
          "type": "uint8"
        },
        {
          "internalType": "address",
          "name": "produttore",
          "type": "address"
        },
        {
          "internalType": "uint256",
          "name": "timestamp",
          "type": "uint256"
        }
      ],
      "stateMutability": "view",
      "type": "function",
      "constant": true
    },
    {
      "inputs": [],
      "name": "nextId",
      "outputs": [
        {
          "internalType": "uint256",
          "name": "",
          "type": "uint256"
        }
      ],
      "stateMutability": "view",
      "type": "function",
      "constant": true
    },
    {
      "inputs": [
        {
          "internalType": "address",
          "name": "",
          "type": "address"
        }
      ],
      "name": "ruoli",
      "outputs": [
        {
          "internalType": "bytes32",
          "name": "",
          "type": "bytes32"
        }
      ],
      "stateMutability": "view",
      "type": "function",
      "constant": true
    },
    {
      "inputs": [
        {
          "internalType": "address",
          "name": "_utente",
          "type": "address"
        },
        {
          "internalType": "string",
          "name": "_ruoloStringa",
          "type": "string"
        }
      ],
      "name": "impostaRuolo",
      "outputs": [],
      "stateMutability": "nonpayable",
      "type": "function"
    },
    {
      "inputs": [
        {
          "internalType": "address",
          "name": "_utente",
          "type": "address"
        }
      ],
      "name": "getRuolo",
      "outputs": [
        {
          "internalType": "string",
          "name": "",
          "type": "string"
        }
      ],
      "stateMutability": "view",
      "type": "function",
      "constant": true
    },
    {
      "inputs": [
        {
          "internalType": "string",
          "name": "_tipo",
          "type": "string"
        }
      ],
      "name": "creaLotto",
      "outputs": [],
      "stateMutability": "nonpayable",
      "type": "function"
    },
    {
      "inputs": [
        {
          "internalType": "uint256",
          "name": "_index",
          "type": "uint256"
        }
      ],
      "name": "eliminaLotto",
      "outputs": [],
      "stateMutability": "nonpayable",
      "type": "function"
    },
    {
      "inputs": [
        {
          "internalType": "uint256",
          "name": "_index",
          "type": "uint256"
        }
      ],
      "name": "avanzaStato",
      "outputs": [],
      "stateMutability": "nonpayable",
      "type": "function"
    },
    {
      "inputs": [],
      "name": "getLotti",
      "outputs": [
        {
          "components": [
            {
              "internalType": "uint256",
              "name": "id",
              "type": "uint256"
            },
            {
              "internalType": "string",
              "name": "tipo",
              "type": "string"
            },
            {
              "internalType": "enum WineProduction.Stato",
              "name": "stato",
              "type": "uint8"
            },
            {
              "internalType": "address",
              "name": "produttore",
              "type": "address"
            },
            {
              "internalType": "uint256",
              "name": "timestamp",
              "type": "uint256"
            }
          ],
          "internalType": "struct WineProduction.Lotto[]",
          "name": "",
          "type": "tuple[]"
        }
      ],
      "stateMutability": "view",
      "type": "function",
      "constant": true
    }
  ],
  "bytecode": "0x6080604052600180553480156200001557600080fd5b5033600260006101000a81548173ffffffffffffffffffffffffffffffffffffffff021916908373ffffffffffffffffffffffffffffffffffffffff1602179055507fdf8b4c520ffe197c5343c6f5aec59570151ef9a492f2c624fd45ddde6135ec42600360003373ffffffffffffffffffffffffffffffffffffffff1673ffffffffffffffffffffffffffffffffffffffff168152602001908152602001600020819055507e6479b2df71b846aa47e305ddb211a33cea4ef9f8fd014e5ca6d1bda37d764d33604051620000eb91906200019f565b60405180910390a1620001d1565b600073ffffffffffffffffffffffffffffffffffffffff82169050919050565b60006200012682620000f9565b9050919050565b620001388162000119565b82525050565b600082825260208201905092915050565b7f41444d494e000000000000000000000000000000000000000000000000000000600082015250565b6000620001876005836200013e565b915062000194826200014f565b602082019050919050565b6000604082019050620001b660008301846200012d565b8181036020830152620001c98162000178565b905092915050565b61276480620001e16000396000f3fe608060405234801561001057600080fd5b50600436106101005760003560e01c8063602eb2f611610097578063b009d7a111610066578063b009d7a11461029f578063b619bd96146102bd578063f674a916146102db578063f851a440146102f957610100565b8063602eb2f61461022b57806361b8ce8c146102495780637721158b146102675780638520e6781461028357610100565b8063363efa0a116100d3578063363efa0a146101a35780633709ad78146101c1578063494f4ef0146101df57806356aeb0e71461020f57610100565b806305422772146101055780630e7cbd071461013957806316f9e48b146101555780632a0acc6a14610185575b600080fd5b61011f600480360381019061011a9190611692565b610317565b604051610130959493929190611816565b60405180910390f35b610153600480360381019061014e91906119d1565b610412565b005b61016f600480360381019061016a9190611a2d565b610674565b60405161017c9190611a5a565b60405180910390f35b61018d610931565b60405161019a9190611a95565b60405180910390f35b6101ab610955565b6040516101b89190611a95565b60405180910390f35b6101c9610979565b6040516101d69190611a95565b60405180910390f35b6101f960048036038101906101f49190611a2d565b61099d565b6040516102069190611a95565b60405180910390f35b61022960048036038101906102249190611ab0565b6109b5565b005b610233610bce565b6040516102409190611a95565b60405180910390f35b610251610bf2565b60405161025e9190611af9565b60405180910390f35b610281600480360381019061027c9190611692565b610bf8565b005b61029d60048036038101906102989190611692565b610e8e565b005b6102a76113e7565b6040516102b49190611a95565b60405180910390f35b6102c561140b565b6040516102d29190611cc3565b60405180910390f35b6102e36115a1565b6040516102f09190611a95565b60405180910390f35b6103016115c5565b60405161030e9190611ce5565b60405180910390f35b6000818154811061032757600080fd5b906000526020600020906004020160009150905080600001549080600101805461035090611d2f565b80601f016020809104026020016040519081016040528092919081815260200182805461037c90611d2f565b80156103c95780601f1061039e576101008083540402835291602001916103c9565b820191906000526020600020905b8154815290600101906020018083116103ac57829003601f168201915b5050505050908060020160009054906101000a900460ff16908060020160019054906101000a900473ffffffffffffffffffffffffffffffffffffffff16908060030154905085565b7fdf8b4c520ffe197c5343c6f5aec59570151ef9a492f2c624fd45ddde6135ec42600360003373ffffffffffffffffffffffffffffffffffffffff1673ffffffffffffffffffffffffffffffffffffffff16815260200190815260200160002054146104b3576040517f08c379a00000000000000000000000000000000000000000000000000000000081526004016104aa90611dac565b60405180910390fd5b6000818051906020012090507fdf8b4c520ffe197c5343c6f5aec59570151ef9a492f2c624fd45ddde6135ec4281148061050c57507f2cf85fe15d4ee363be02bc59776a4870c18edd8ff76c49234fa76f6645e4421581145b8061053657507f9337c84965dad9c5be73858d8944f2762885e962d74177742c0a20a7e7ad22ae81145b8061056057507fef3622f293edb090d8a3b2cc5caa5df142b73c51f9f008eb8c34c66a9377593a81145b8061058a57507ffbf573f3c4bccce46c1dbf63795f7fadf7bb39d8917933246b61e08ad44b1be581145b806105b457507f0ce117c3e3256b329a75f369991e5099ec385240832e5464fdfe86571d48732681145b6105f3576040517f08c379a00000000000000000000000000000000000000000000000000000000081526004016105ea90611e18565b60405180910390fd5b80600360008573ffffffffffffffffffffffffffffffffffffffff1673ffffffffffffffffffffffffffffffffffffffff168152602001908152602001600020819055507e6479b2df71b846aa47e305ddb211a33cea4ef9f8fd014e5ca6d1bda37d764d8383604051610667929190611e38565b60405180910390a1505050565b60606000600360008473ffffffffffffffffffffffffffffffffffffffff1673ffffffffffffffffffffffffffffffffffffffff1681526020019081526020016000205490507fdf8b4c520ffe197c5343c6f5aec59570151ef9a492f2c624fd45ddde6135ec42810361071f576040518060400160405280600581526020017f41444d494e00000000000000000000000000000000000000000000000000000081525091505061092c565b7f2cf85fe15d4ee363be02bc59776a4870c18edd8ff76c49234fa76f6645e442158103610784576040518060400160405280600b81526020017f41475249434f4c544f524500000000000000000000000000000000000000000081525091505061092c565b7f9337c84965dad9c5be73858d8944f2762885e962d74177742c0a20a7e7ad22ae81036107e9576040518060400160405280600b81526020017f53555045525649534f524500000000000000000000000000000000000000000081525091505061092c565b7fef3622f293edb090d8a3b2cc5caa5df142b73c51f9f008eb8c34c66a9377593a810361084e576040518060400160405280600a81526020017f43414e54494e494552450000000000000000000000000000000000000000000081525091505061092c565b7ffbf573f3c4bccce46c1dbf63795f7fadf7bb39d8917933246b61e08ad44b1be581036108b3576040518060400160405280600881526020017f434f52524945524500000000000000000000000000000000000000000000000081525091505061092c565b7f0ce117c3e3256b329a75f369991e5099ec385240832e5464fdfe86571d4873268103610918576040518060400160405280600c81526020017f4449535452494255544f5245000000000000000000000000000000000000000081525091505061092c565b604051806020016040528060008152509150505b919050565b7fdf8b4c520ffe197c5343c6f5aec59570151ef9a492f2c624fd45ddde6135ec4281565b7ffbf573f3c4bccce46c1dbf63795f7fadf7bb39d8917933246b61e08ad44b1be581565b7fef3622f293edb090d8a3b2cc5caa5df142b73c51f9f008eb8c34c66a9377593a81565b60036020528060005260406000206000915090505481565b7fdf8b4c520ffe197c5343c6f5aec59570151ef9a492f2c624fd45ddde6135ec42600360003373ffffffffffffffffffffffffffffffffffffffff1673ffffffffffffffffffffffffffffffffffffffff1681526020019081526020016000205414610a56576040517f08c379a0000000000000000000000000000000000000000000000000000000008152600401610a4d90611eb4565b60405180910390fd5b60006040518060a00160405280600154815260200183815260200160006005811115610a8557610a8461175e565b5b81526020013373ffffffffffffffffffffffffffffffffffffffff168152602001428152509080600181540180825580915050600190039060005260206000209060040201600090919091909150600082015181600001556020820151816001019081610af29190612080565b5060408201518160020160006101000a81548160ff02191690836005811115610b1e57610b1d61175e565b5b021790555060608201518160020160016101000a81548173ffffffffffffffffffffffffffffffffffffffff021916908373ffffffffffffffffffffffffffffffffffffffff1602179055506080820151816003015550507fe537ec0a956a6f958e38a8e8b2286b72697a9a677e42619fc203c802d02a22696001548233604051610bab93929190612152565b60405180910390a160016000815480929190610bc6906121bf565b919050555050565b7f2cf85fe15d4ee363be02bc59776a4870c18edd8ff76c49234fa76f6645e4421581565b60015481565b7fdf8b4c520ffe197c5343c6f5aec59570151ef9a492f2c624fd45ddde6135ec42600360003373ffffffffffffffffffffffffffffffffffffffff1673ffffffffffffffffffffffffffffffffffffffff1681526020019081526020016000205414610c99576040517f08c379a0000000000000000000000000000000000000000000000000000000008152600401610c9090612253565b60405180910390fd5b6000805490508110610ce0576040517f08c379a0000000000000000000000000000000000000000000000000000000008152600401610cd7906122bf565b60405180910390fd5b60006001600080549050610cf491906122df565b81548110610d0557610d04612313565b5b906000526020600020906004020160008281548110610d2757610d26612313565b5b90600052602060002090600402016000820154816000015560018201816001019081610d539190612358565b506002820160009054906101000a900460ff168160020160006101000a81548160ff02191690836005811115610d8c57610d8b61175e565b5b02179055506002820160019054906101000a900473ffffffffffffffffffffffffffffffffffffffff168160020160016101000a81548173ffffffffffffffffffffffffffffffffffffffff021916908373ffffffffffffffffffffffffffffffffffffffff160217905550600382015481600301559050506000805480610e1757610e16612440565b5b6001900381819060005260206000209060040201600080820160009055600182016000610e4491906115eb565b6002820160006101000a81549060ff02191690556002820160016101000a81549073ffffffffffffffffffffffffffffffffffffffff021916905560038201600090555050905550565b6000805490508110610ed5576040517f08c379a0000000000000000000000000000000000000000000000000000000008152600401610ecc906124bb565b60405180910390fd5b6000808281548110610eea57610ee9612313565b5b906000526020600020906004020190506000600360003373ffffffffffffffffffffffffffffffffffffffff1673ffffffffffffffffffffffffffffffffffffffff16815260200190815260200160002054905060006005811115610f5257610f5161175e565b5b8260020160009054906101000a900460ff166005811115610f7657610f7561175e565b5b0361100f577f2cf85fe15d4ee363be02bc59776a4870c18edd8ff76c49234fa76f6645e442158114610fdd576040517f08c379a0000000000000000000000000000000000000000000000000000000008152600401610fd490612527565b60405180910390fd5b60018260020160006101000a81548160ff021916908360058111156110055761100461175e565b5b0217905550611392565b600160058111156110235761102261175e565b5b8260020160009054906101000a900460ff1660058111156110475761104661175e565b5b036110e0577f9337c84965dad9c5be73858d8944f2762885e962d74177742c0a20a7e7ad22ae81146110ae576040517f08c379a00000000000000000000000000000000000000000000000000000000081526004016110a590612593565b60405180910390fd5b60028260020160006101000a81548160ff021916908360058111156110d6576110d561175e565b5b0217905550611391565b600260058111156110f4576110f361175e565b5b8260020160009054906101000a900460ff1660058111156111185761111761175e565b5b036111b1577f9337c84965dad9c5be73858d8944f2762885e962d74177742c0a20a7e7ad22ae811461117f576040517f08c379a000000000000000000000000000000000000000000000000000000000815260040161117690612593565b60405180910390fd5b60038260020160006101000a81548160ff021916908360058111156111a7576111a661175e565b5b0217905550611390565b600360058111156111c5576111c461175e565b5b8260020160009054906101000a900460ff1660058111156111e9576111e861175e565b5b03611282577fef3622f293edb090d8a3b2cc5caa5df142b73c51f9f008eb8c34c66a9377593a8114611250576040517f08c379a0000000000000000000000000000000000000000000000000000000008152600401611247906125ff565b60405180910390fd5b60048260020160006101000a81548160ff021916908360058111156112785761127761175e565b5b021790555061138f565b600460058111156112965761129561175e565b5b8260020160009054906101000a900460ff1660058111156112ba576112b961175e565b5b03611353577ffbf573f3c4bccce46c1dbf63795f7fadf7bb39d8917933246b61e08ad44b1be58114611321576040517f08c379a00000000000000000000000000000000000000000000000000000000081526004016113189061266b565b60405180910390fd5b60058260020160006101000a81548160ff021916908360058111156113495761134861175e565b5b021790555061138e565b6040517f08c379a0000000000000000000000000000000000000000000000000000000008152600401611385906126d7565b60405180910390fd5b5b5b5b5b7f15d341161c6a817063fb2a5b4319edd6161336a8810c7483a18a9d202bb282af82600001548360020160009054906101000a900460ff16336040516113da939291906126f7565b60405180910390a1505050565b7f0ce117c3e3256b329a75f369991e5099ec385240832e5464fdfe86571d48732681565b60606000805480602002602001604051908101604052809291908181526020016000905b8282101561159857838290600052602060002090600402016040518060a00160405290816000820154815260200160018201805461146c90611d2f565b80601f016020809104026020016040519081016040528092919081815260200182805461149890611d2f565b80156114e55780601f106114ba576101008083540402835291602001916114e5565b820191906000526020600020905b8154815290600101906020018083116114c857829003601f168201915b505050505081526020016002820160009054906101000a900460ff1660058111156115135761151261175e565b5b60058111156115255761152461175e565b5b81526020016002820160019054906101000a900473ffffffffffffffffffffffffffffffffffffffff1673ffffffffffffffffffffffffffffffffffffffff1673ffffffffffffffffffffffffffffffffffffffff1681526020016003820154815250508152602001906001019061142f565b50505050905090565b7f9337c84965dad9c5be73858d8944f2762885e962d74177742c0a20a7e7ad22ae81565b600260009054906101000a900473ffffffffffffffffffffffffffffffffffffffff1681565b5080546115f790611d2f565b6000825580601f106116095750611628565b601f016020900490600052602060002090810190611627919061162b565b5b50565b5b8082111561164457600081600090555060010161162c565b5090565b6000604051905090565b600080fd5b600080fd5b6000819050919050565b61166f8161165c565b811461167a57600080fd5b50565b60008135905061168c81611666565b92915050565b6000602082840312156116a8576116a7611652565b5b60006116b68482850161167d565b91505092915050565b6116c88161165c565b82525050565b600081519050919050565b600082825260208201905092915050565b60005b838110156117085780820151818401526020810190506116ed565b60008484015250505050565b6000601f19601f8301169050919050565b6000611730826116ce565b61173a81856116d9565b935061174a8185602086016116ea565b61175381611714565b840191505092915050565b7f4e487b7100000000000000000000000000000000000000000000000000000000600052602160045260246000fd5b6006811061179e5761179d61175e565b5b50565b60008190506117af8261178d565b919050565b60006117bf826117a1565b9050919050565b6117cf816117b4565b82525050565b600073ffffffffffffffffffffffffffffffffffffffff82169050919050565b6000611800826117d5565b9050919050565b611810816117f5565b82525050565b600060a08201905061182b60008301886116bf565b818103602083015261183d8187611725565b905061184c60408301866117c6565b6118596060830185611807565b61186660808301846116bf565b9695505050505050565b611879816117f5565b811461188457600080fd5b50565b60008135905061189681611870565b92915050565b600080fd5b600080fd5b7f4e487b7100000000000000000000000000000000000000000000000000000000600052604160045260246000fd5b6118de82611714565b810181811067ffffffffffffffff821117156118fd576118fc6118a6565b5b80604052505050565b6000611910611648565b905061191c82826118d5565b919050565b600067ffffffffffffffff82111561193c5761193b6118a6565b5b61194582611714565b9050602081019050919050565b82818337600083830152505050565b600061197461196f84611921565b611906565b9050828152602081018484840111156119905761198f6118a1565b5b61199b848285611952565b509392505050565b600082601f8301126119b8576119b761189c565b5b81356119c8848260208601611961565b91505092915050565b600080604083850312156119e8576119e7611652565b5b60006119f685828601611887565b925050602083013567ffffffffffffffff811115611a1757611a16611657565b5b611a23858286016119a3565b9150509250929050565b600060208284031215611a4357611a42611652565b5b6000611a5184828501611887565b91505092915050565b60006020820190508181036000830152611a748184611725565b905092915050565b6000819050919050565b611a8f81611a7c565b82525050565b6000602082019050611aaa6000830184611a86565b92915050565b600060208284031215611ac657611ac5611652565b5b600082013567ffffffffffffffff811115611ae457611ae3611657565b5b611af0848285016119a3565b91505092915050565b6000602082019050611b0e60008301846116bf565b92915050565b600081519050919050565b600082825260208201905092915050565b6000819050602082019050919050565b611b498161165c565b82525050565b600082825260208201905092915050565b6000611b6b826116ce565b611b758185611b4f565b9350611b858185602086016116ea565b611b8e81611714565b840191505092915050565b611ba2816117b4565b82525050565b611bb1816117f5565b82525050565b600060a083016000830151611bcf6000860182611b40565b5060208301518482036020860152611be78282611b60565b9150506040830151611bfc6040860182611b99565b506060830151611c0f6060860182611ba8565b506080830151611c226080860182611b40565b508091505092915050565b6000611c398383611bb7565b905092915050565b6000602082019050919050565b6000611c5982611b14565b611c638185611b1f565b935083602082028501611c7585611b30565b8060005b85811015611cb15784840389528151611c928582611c2d565b9450611c9d83611c41565b925060208a01995050600181019050611c79565b50829750879550505050505092915050565b60006020820190508181036000830152611cdd8184611c4e565b905092915050565b6000602082019050611cfa6000830184611807565b92915050565b7f4e487b7100000000000000000000000000000000000000000000000000000000600052602260045260246000fd5b60006002820490506001821680611d4757607f821691505b602082108103611d5a57611d59611d00565b5b50919050565b7f536f6c6f206c2761646d696e2070756f206765737469726520692072756f6c69600082015250565b6000611d966020836116d9565b9150611da182611d60565b602082019050919050565b60006020820190508181036000830152611dc581611d89565b9050919050565b7f52756f6c6f206e6f6e2076616c69646f00000000000000000000000000000000600082015250565b6000611e026010836116d9565b9150611e0d82611dcc565b602082019050919050565b60006020820190508181036000830152611e3181611df5565b9050919050565b6000604082019050611e4d6000830185611807565b8181036020830152611e5f8184611725565b90509392505050565b7f536f6c6f206c2741444d494e2070756f20637265617265206c6f747469000000600082015250565b6000611e9e601d836116d9565b9150611ea982611e68565b602082019050919050565b60006020820190508181036000830152611ecd81611e91565b9050919050565b60008190508160005260206000209050919050565b60006020601f8301049050919050565b600082821b905092915050565b600060088302611f367fffffffffffffffffffffffffffffffffffffffffffffffffffffffffffffffff82611ef9565b611f408683611ef9565b95508019841693508086168417925050509392505050565b6000819050919050565b6000611f7d611f78611f738461165c565b611f58565b61165c565b9050919050565b6000819050919050565b611f9783611f62565b611fab611fa382611f84565b848454611f06565b825550505050565b600090565b611fc0611fb3565b611fcb818484611f8e565b505050565b5b81811015611fef57611fe4600082611fb8565b600181019050611fd1565b5050565b601f8211156120345761200581611ed4565b61200e84611ee9565b8101602085101561201d578190505b61203161202985611ee9565b830182611fd0565b50505b505050565b600082821c905092915050565b600061205760001984600802612039565b1980831691505092915050565b60006120708383612046565b9150826002028217905092915050565b612089826116ce565b67ffffffffffffffff8111156120a2576120a16118a6565b5b6120ac8254611d2f565b6120b7828285611ff3565b600060209050601f8311600181146120ea57600084156120d8578287015190505b6120e28582612064565b86555061214a565b601f1984166120f886611ed4565b60005b82811015612120578489015182556001820191506020850194506020810190506120fb565b8683101561213d5784890151612139601f891682612046565b8355505b6001600288020188555050505b505050505050565b600060608201905061216760008301866116bf565b81810360208301526121798185611725565b90506121886040830184611807565b949350505050565b7f4e487b7100000000000000000000000000000000000000000000000000000000600052601160045260246000fd5b60006121ca8261165c565b91507fffffffffffffffffffffffffffffffffffffffffffffffffffffffffffffffff82036121fc576121fb612190565b5b600182019050919050565b7f536f6c6f206c2741646d696e2070756f20656c696d696e617265000000000000600082015250565b600061223d601a836116d9565b915061224882612207565b602082019050919050565b6000602082019050818103600083015261226c81612230565b9050919050565b7f496e64696365206e6f6e2076616c69646f000000000000000000000000000000600082015250565b60006122a96011836116d9565b91506122b482612273565b602082019050919050565b600060208201905081810360008301526122d88161229c565b9050919050565b60006122ea8261165c565b91506122f58361165c565b925082820390508181111561230d5761230c612190565b5b92915050565b7f4e487b7100000000000000000000000000000000000000000000000000000000600052603260045260246000fd5b60008154905061235181611d2f565b9050919050565b81810361236657505061243e565b61236f82612342565b67ffffffffffffffff811115612388576123876118a6565b5b6123928254611d2f565b61239d828285611ff3565b6000601f8311600181146123cc57600084156123ba578287015490505b6123c48582612064565b865550612437565b601f1984166123da87611ed4565b96506123e586611ed4565b60005b8281101561240d578489015482556001820191506001850194506020810190506123e8565b8683101561242a5784890154612426601f891682612046565b8355505b6001600288020188555050505b5050505050505b565b7f4e487b7100000000000000000000000000000000000000000000000000000000600052603160045260246000fd5b7f4c6f74746f20696e6573697374656e7465000000000000000000000000000000600082015250565b60006124a56011836116d9565b91506124b08261246f565b602082019050919050565b600060208201905081810360008301526124d481612498565b9050919050565b7f53657276652072756f6c6f2041475249434f4c544f5245000000000000000000600082015250565b60006125116017836116d9565b915061251c826124db565b602082019050919050565b6000602082019050818103600083015261254081612504565b9050919050565b7f53657276652072756f6c6f2053555045525649534f5245000000000000000000600082015250565b600061257d6017836116d9565b915061258882612547565b602082019050919050565b600060208201905081810360008301526125ac81612570565b9050919050565b7f53657276652072756f6c6f2043414e54494e4945524500000000000000000000600082015250565b60006125e96016836116d9565b91506125f4826125b3565b602082019050919050565b60006020820190508181036000830152612618816125dc565b9050919050565b7f53657276652072756f6c6f20434f525249455245000000000000000000000000600082015250565b60006126556014836116d9565b91506126608261261f565b602082019050919050565b6000602082019050818103600083015261268481612648565b9050919050565b7f4369636c6f20636f6d706c657461746f00000000000000000000000000000000600082015250565b60006126c16010836116d9565b91506126cc8261268b565b602082019050919050565b600060208201905081810360008301526126f0816126b4565b9050919050565b600060608201905061270c60008301866116bf565b61271960208301856117c6565b6127266040830184611807565b94935050505056fea2646970667358221220c1d0be8a31386cbd4ed8db8db4488595e77845abdd9b5124c791ff9f6b78c5a364736f6c63430008110033",
  "immutableReferences": {},
  "source": "// SPDX-License-Identifier: MIT\npragma solidity ^0.8.0;\n\ncontract WineProduction {\n    // Definizione Ruoli (Hash per risparmiare gas)\n    bytes32 public constant ADMIN = keccak256(\"ADMIN\");\n    bytes32 public constant AGRICOLTORE = keccak256(\"AGRICOLTORE\");\n    bytes32 public constant SUPERVISORE = keccak256(\"SUPERVISORE\");\n    bytes32 public constant CANTINIERE = keccak256(\"CANTINIERE\");\n    bytes32 public constant CORRIERE = keccak256(\"CORRIERE\");\n    bytes32 public constant DISTRIBUTORE = keccak256(\"DISTRIBUTORE\");\n\n    enum Stato { Creato, Vendemmiato, Fermentato, Affinato, Imbottigliato, Distribuito }\n    \n    struct Lotto {\n        uint256 id;\n        string tipo;\n        Stato stato;\n        address produttore;\n        uint256 timestamp;\n    }\n    \n    \n    Lotto[] public lotti;\n    uint256 public nextId = 1;\n    address public admin;\n\n    //associamo l'indirizzo ad un bytes32 (non ad una string)\n    mapping(address => bytes32) public ruoli;\n\n    //eventi\n    event LottoCreato(uint256 id, string tipo, address produttore);\n    event StatoAggiornato(uint256 id, Stato nuovoStato, address operatore);\n    event RuoloAssegnato(address utente, string ruoloStringa);\n\n\n    constructor() {\n    admin = msg.sender;\n    //hash di admin assegnato a chi fa il deploy\n    ruoli[msg.sender] = ADMIN;\n    emit RuoloAssegnato(msg.sender, \"ADMIN\");\n    }\n\n    //passiamo la stringa leggibile e viene salvata compressa\n    function impostaRuolo(address _utente, string memory _ruoloStringa) public {\n        require(ruoli[msg.sender] == ADMIN, \"Solo l'admin puo gestire i ruoli\");\n\n        bytes32 hashRuolo = keccak256(bytes(_ruoloStringa));\n\n        //controllo validità con le costanti definite sopra\n        require(\n            hashRuolo == ADMIN ||\n            hashRuolo == AGRICOLTORE ||\n            hashRuolo == SUPERVISORE ||\n            hashRuolo == CANTINIERE ||\n            hashRuolo == CORRIERE ||\n            hashRuolo == DISTRIBUTORE,\n            \"Ruolo non valido\"\n        );\n\n        ruoli[_utente] = hashRuolo;\n        emit RuoloAssegnato(_utente, _ruoloStringa);\n    }\n\n    //salviamo in hash, la seguente funziona ritorna la stringa in maniera leggibile\n    function getRuolo(address _utente) public view returns (string memory){\n        bytes32 h = ruoli[_utente];\n\n        if (h == ADMIN) return \"ADMIN\";\n        if (h == AGRICOLTORE) return \"AGRICOLTORE\";\n        if (h == SUPERVISORE) return \"SUPERVISORE\";\n        if (h == CANTINIERE) return \"CANTINIERE\";\n        if (h == CORRIERE) return \"CORRIERE\";\n        if (h == DISTRIBUTORE) return \"DISTRIBUTORE\";\n        return \"\"; // Nessun ruolo\n    }\n\n    function creaLotto(string memory _tipo) public {\n        // Controllo efficiente usando bytes32\n        require(ruoli[msg.sender] == ADMIN, \"Solo l'ADMIN puo creare lotti\");\n\n        lotti.push(Lotto(nextId, _tipo, Stato.Creato, msg.sender, block.timestamp));\n        emit LottoCreato(nextId, _tipo, msg.sender);\n        nextId++;\n    }\n\n\n    function eliminaLotto(uint256 _index) public {\n    require(ruoli[msg.sender] == ADMIN, \"Solo l'Admin puo eliminare\");\n\n    require(_index < lotti.length, \"Indice non valido\");\n\n    // Sposta l'ultimo elemento al posto di quello da eliminare e accorcia l'array\n    // (Tecnica standard Solidity per eliminare da array dinamici)\n    lotti[_index] = lotti[lotti.length - 1];\n    lotti.pop();\n    }\n\n    function avanzaStato(uint256 _index) public {\n        require(_index < lotti.length, \"Lotto inesistente\");\n        Lotto storage lotto = lotti[_index];\n        \n        // Prendiamo il ruolo dell'utente (formato hash)\n        bytes32 ruoloUtente = ruoli[msg.sender];\n\n        if (lotto.stato == Stato.Creato) {\n            require(ruoloUtente == AGRICOLTORE, \"Serve ruolo AGRICOLTORE\");\n            lotto.stato = Stato.Vendemmiato;\n        } \n        else if (lotto.stato == Stato.Vendemmiato) {\n            require(ruoloUtente == SUPERVISORE, \"Serve ruolo SUPERVISORE\");\n            lotto.stato = Stato.Fermentato;\n        } \n        else if (lotto.stato == Stato.Fermentato) {\n            require(ruoloUtente == SUPERVISORE, \"Serve ruolo SUPERVISORE\");\n            lotto.stato = Stato.Affinato;\n        }\n        else if (lotto.stato == Stato.Affinato) {\n            require(ruoloUtente == CANTINIERE, \"Serve ruolo CANTINIERE\");\n            lotto.stato = Stato.Imbottigliato;\n        }\n        else if (lotto.stato == Stato.Imbottigliato) {\n            require(ruoloUtente == CORRIERE, \"Serve ruolo CORRIERE\");\n            lotto.stato = Stato.Distribuito;\n        }\n        else {\n            revert(\"Ciclo completato\");\n        }\n\n        emit StatoAggiornato(lotto.id, lotto.stato, msg.sender);\n    }\n\n    function getLotti() public view returns (Lotto[] memory) {\n        return lotti;\n    }\n}",
  "sourcePath": "/Users/Gaetano/Documents/GitHub/vinum-veritas/backend/contracts/WineProduction.sol",
  "compiler": {
    "name": "solc",
    "version": "0.8.17+commit.8df45f5f.Emscripten.clang"
  },
  "schemaVersion": "3.4.14",
  "updatedAt": "2025-12-29T15:31:13.971Z",
  "networkType": "ethereum",
  "devdoc": {
    "kind": "dev",
    "methods": {},
    "version": 1
  },
  "userdoc": {
    "kind": "user",
    "methods": {},
    "version": 1
  }
}