{
  "contractName": "WineProduction",
  "abi": [
    {
      "anonymous": false,
      "inputs": [
        {
          "indexed": false,
          "internalType": "uint256",
          "name": "id",
          "type": "uint256"
        },
        {
          "indexed": false,
          "internalType": "string",
          "name": "tipo",
          "type": "string"
        },
        {
          "indexed": false,
          "internalType": "address",
          "name": "produttore",
          "type": "address"
        }
      ],
      "name": "LottoCreato",
      "type": "event"
    },
    {
      "anonymous": false,
      "inputs": [
        {
          "indexed": false,
          "internalType": "uint256",
          "name": "id",
          "type": "uint256"
        },
        {
          "indexed": false,
          "internalType": "enum WineProduction.Stato",
          "name": "nuovoStato",
          "type": "uint8"
        }
      ],
      "name": "StatoAggiornato",
      "type": "event"
    },
    {
      "inputs": [
        {
          "internalType": "uint256",
          "name": "",
          "type": "uint256"
        }
      ],
      "name": "lotti",
      "outputs": [
        {
          "internalType": "uint256",
          "name": "id",
          "type": "uint256"
        },
        {
          "internalType": "string",
          "name": "tipo",
          "type": "string"
        },
        {
          "internalType": "enum WineProduction.Stato",
          "name": "stato",
          "type": "uint8"
        },
        {
          "internalType": "address",
          "name": "produttore",
          "type": "address"
        },
        {
          "internalType": "uint256",
          "name": "timestamp",
          "type": "uint256"
        }
      ],
      "stateMutability": "view",
      "type": "function",
      "constant": true
    },
    {
      "inputs": [],
      "name": "nextId",
      "outputs": [
        {
          "internalType": "uint256",
          "name": "",
          "type": "uint256"
        }
      ],
      "stateMutability": "view",
      "type": "function",
      "constant": true
    },
    {
      "inputs": [
        {
          "internalType": "string",
          "name": "_tipo",
          "type": "string"
        }
      ],
      "name": "creaLotto",
      "outputs": [],
      "stateMutability": "nonpayable",
      "type": "function"
    },
    {
      "inputs": [
        {
          "internalType": "uint256",
          "name": "_index",
          "type": "uint256"
        }
      ],
      "name": "avanzaStato",
      "outputs": [],
      "stateMutability": "nonpayable",
      "type": "function"
    },
    {
      "inputs": [],
      "name": "getLotti",
      "outputs": [
        {
          "components": [
            {
              "internalType": "uint256",
              "name": "id",
              "type": "uint256"
            },
            {
              "internalType": "string",
              "name": "tipo",
              "type": "string"
            },
            {
              "internalType": "enum WineProduction.Stato",
              "name": "stato",
              "type": "uint8"
            },
            {
              "internalType": "address",
              "name": "produttore",
              "type": "address"
            },
            {
              "internalType": "uint256",
              "name": "timestamp",
              "type": "uint256"
            }
          ],
          "internalType": "struct WineProduction.Lotto[]",
          "name": "",
          "type": "tuple[]"
        }
      ],
      "stateMutability": "view",
      "type": "function",
      "constant": true
    }
  ],
  "bytecode": "0x60806040526001805534801561001457600080fd5b506112be806100246000396000f3fe608060405234801561001057600080fd5b50600436106100575760003560e01c8063054227721461005c57806356aeb0e71461009057806361b8ce8c146100ac5780638520e678146100ca578063b619bd96146100e6575b600080fd5b61007660048036038101906100719190610791565b610104565b604051610087959493929190610915565b60405180910390f35b6100aa60048036038101906100a59190610aa4565b6101ff565b005b6100b4610377565b6040516100c19190610aed565b60405180910390f35b6100e460048036038101906100df9190610791565b61037d565b005b6100ee6105b1565b6040516100fb9190610cb7565b60405180910390f35b6000818154811061011457600080fd5b906000526020600020906004020160009150905080600001549080600101805461013d90610d08565b80601f016020809104026020016040519081016040528092919081815260200182805461016990610d08565b80156101b65780601f1061018b576101008083540402835291602001916101b6565b820191906000526020600020905b81548152906001019060200180831161019957829003601f168201915b5050505050908060020160009054906101000a900460ff16908060020160019054906101000a900473ffffffffffffffffffffffffffffffffffffffff16908060030154905085565b60006040518060a0016040528060015481526020018381526020016000600581111561022e5761022d61085d565b5b81526020013373ffffffffffffffffffffffffffffffffffffffff16815260200142815250908060018154018082558091505060019003906000526020600020906004020160009091909190915060008201518160000155602082015181600101908161029b9190610ee5565b5060408201518160020160006101000a81548160ff021916908360058111156102c7576102c661085d565b5b021790555060608201518160020160016101000a81548173ffffffffffffffffffffffffffffffffffffffff021916908373ffffffffffffffffffffffffffffffffffffffff1602179055506080820151816003015550507fe537ec0a956a6f958e38a8e8b2286b72697a9a677e42619fc203c802d02a2269600154823360405161035493929190610fb7565b60405180910390a16001600081548092919061036f90611024565b919050555050565b60015481565b60008054905081106103c4576040517f08c379a00000000000000000000000000000000000000000000000000000000081526004016103bb906110b8565b60405180910390fd5b60008082815481106103d9576103d86110d8565b5b906000526020600020906004020190508060020160019054906101000a900473ffffffffffffffffffffffffffffffffffffffff1673ffffffffffffffffffffffffffffffffffffffff163373ffffffffffffffffffffffffffffffffffffffff161461047b576040517f08c379a000000000000000000000000000000000000000000000000000000000815260040161047290611179565b60405180910390fd5b60058081111561048e5761048d61085d565b5b8160020160009054906101000a900460ff1660058111156104b2576104b161085d565b5b106104f2576040517f08c379a00000000000000000000000000000000000000000000000000000000081526004016104e99061120b565b60405180910390fd5b60018160020160009054906101000a900460ff1660058111156105185761051761085d565b5b610522919061122b565b60058111156105345761053361085d565b5b8160020160006101000a81548160ff0219169083600581111561055a5761055961085d565b5b02179055507fb17c83f2ea1a6a959b8e44ec5149c94a3c9c65ed6590968b6ad07486dbdcc52a81600001548260020160009054906101000a900460ff166040516105a592919061125f565b60405180910390a15050565b60606000805480602002602001604051908101604052809291908181526020016000905b8282101561073e57838290600052602060002090600402016040518060a00160405290816000820154815260200160018201805461061290610d08565b80601f016020809104026020016040519081016040528092919081815260200182805461063e90610d08565b801561068b5780601f106106605761010080835404028352916020019161068b565b820191906000526020600020905b81548152906001019060200180831161066e57829003601f168201915b505050505081526020016002820160009054906101000a900460ff1660058111156106b9576106b861085d565b5b60058111156106cb576106ca61085d565b5b81526020016002820160019054906101000a900473ffffffffffffffffffffffffffffffffffffffff1673ffffffffffffffffffffffffffffffffffffffff1673ffffffffffffffffffffffffffffffffffffffff168152602001600382015481525050815260200190600101906105d5565b50505050905090565b6000604051905090565b600080fd5b600080fd5b6000819050919050565b61076e8161075b565b811461077957600080fd5b50565b60008135905061078b81610765565b92915050565b6000602082840312156107a7576107a6610751565b5b60006107b58482850161077c565b91505092915050565b6107c78161075b565b82525050565b600081519050919050565b600082825260208201905092915050565b60005b838110156108075780820151818401526020810190506107ec565b60008484015250505050565b6000601f19601f8301169050919050565b600061082f826107cd565b61083981856107d8565b93506108498185602086016107e9565b61085281610813565b840191505092915050565b7f4e487b7100000000000000000000000000000000000000000000000000000000600052602160045260246000fd5b6006811061089d5761089c61085d565b5b50565b60008190506108ae8261088c565b919050565b60006108be826108a0565b9050919050565b6108ce816108b3565b82525050565b600073ffffffffffffffffffffffffffffffffffffffff82169050919050565b60006108ff826108d4565b9050919050565b61090f816108f4565b82525050565b600060a08201905061092a60008301886107be565b818103602083015261093c8187610824565b905061094b60408301866108c5565b6109586060830185610906565b61096560808301846107be565b9695505050505050565b600080fd5b600080fd5b7f4e487b7100000000000000000000000000000000000000000000000000000000600052604160045260246000fd5b6109b182610813565b810181811067ffffffffffffffff821117156109d0576109cf610979565b5b80604052505050565b60006109e3610747565b90506109ef82826109a8565b919050565b600067ffffffffffffffff821115610a0f57610a0e610979565b5b610a1882610813565b9050602081019050919050565b82818337600083830152505050565b6000610a47610a42846109f4565b6109d9565b905082815260208101848484011115610a6357610a62610974565b5b610a6e848285610a25565b509392505050565b600082601f830112610a8b57610a8a61096f565b5b8135610a9b848260208601610a34565b91505092915050565b600060208284031215610aba57610ab9610751565b5b600082013567ffffffffffffffff811115610ad857610ad7610756565b5b610ae484828501610a76565b91505092915050565b6000602082019050610b0260008301846107be565b92915050565b600081519050919050565b600082825260208201905092915050565b6000819050602082019050919050565b610b3d8161075b565b82525050565b600082825260208201905092915050565b6000610b5f826107cd565b610b698185610b43565b9350610b798185602086016107e9565b610b8281610813565b840191505092915050565b610b96816108b3565b82525050565b610ba5816108f4565b82525050565b600060a083016000830151610bc36000860182610b34565b5060208301518482036020860152610bdb8282610b54565b9150506040830151610bf06040860182610b8d565b506060830151610c036060860182610b9c565b506080830151610c166080860182610b34565b508091505092915050565b6000610c2d8383610bab565b905092915050565b6000602082019050919050565b6000610c4d82610b08565b610c578185610b13565b935083602082028501610c6985610b24565b8060005b85811015610ca55784840389528151610c868582610c21565b9450610c9183610c35565b925060208a01995050600181019050610c6d565b50829750879550505050505092915050565b60006020820190508181036000830152610cd18184610c42565b905092915050565b7f4e487b7100000000000000000000000000000000000000000000000000000000600052602260045260246000fd5b60006002820490506001821680610d2057607f821691505b602082108103610d3357610d32610cd9565b5b50919050565b60008190508160005260206000209050919050565b60006020601f8301049050919050565b600082821b905092915050565b600060088302610d9b7fffffffffffffffffffffffffffffffffffffffffffffffffffffffffffffffff82610d5e565b610da58683610d5e565b95508019841693508086168417925050509392505050565b6000819050919050565b6000610de2610ddd610dd88461075b565b610dbd565b61075b565b9050919050565b6000819050919050565b610dfc83610dc7565b610e10610e0882610de9565b848454610d6b565b825550505050565b600090565b610e25610e18565b610e30818484610df3565b505050565b5b81811015610e5457610e49600082610e1d565b600181019050610e36565b5050565b601f821115610e9957610e6a81610d39565b610e7384610d4e565b81016020851015610e82578190505b610e96610e8e85610d4e565b830182610e35565b50505b505050565b600082821c905092915050565b6000610ebc60001984600802610e9e565b1980831691505092915050565b6000610ed58383610eab565b9150826002028217905092915050565b610eee826107cd565b67ffffffffffffffff811115610f0757610f06610979565b5b610f118254610d08565b610f1c828285610e58565b600060209050601f831160018114610f4f5760008415610f3d578287015190505b610f478582610ec9565b865550610faf565b601f198416610f5d86610d39565b60005b82811015610f8557848901518255600182019150602085019450602081019050610f60565b86831015610fa25784890151610f9e601f891682610eab565b8355505b6001600288020188555050505b505050505050565b6000606082019050610fcc60008301866107be565b8181036020830152610fde8185610824565b9050610fed6040830184610906565b949350505050565b7f4e487b7100000000000000000000000000000000000000000000000000000000600052601160045260246000fd5b600061102f8261075b565b91507fffffffffffffffffffffffffffffffffffffffffffffffffffffffffffffffff820361106157611060610ff5565b5b600182019050919050565b7f4c6f74746f20696e6573697374656e7465000000000000000000000000000000600082015250565b60006110a26011836107d8565b91506110ad8261106c565b602082019050919050565b600060208201905081810360008301526110d181611095565b9050919050565b7f4e487b7100000000000000000000000000000000000000000000000000000000600052603260045260246000fd5b7f536f6c6f20696c2070726f647574746f72652070756f20616767696f726e617260008201527f6500000000000000000000000000000000000000000000000000000000000000602082015250565b60006111636021836107d8565b915061116e82611107565b604082019050919050565b6000602082019050818103600083015261119281611156565b9050919050565b7f4369636c6f2064692070726f64757a696f6e652067696120636f6d706c65746160008201527f746f000000000000000000000000000000000000000000000000000000000000602082015250565b60006111f56022836107d8565b915061120082611199565b604082019050919050565b60006020820190508181036000830152611224816111e8565b9050919050565b60006112368261075b565b91506112418361075b565b925082820190508082111561125957611258610ff5565b5b92915050565b600060408201905061127460008301856107be565b61128160208301846108c5565b939250505056fea26469706673582212203fa5c33e2b2951b4f1ce3c0ab40a761e56e3fc625a7aa87a3bcf661a55540b2a64736f6c63430008110033",
  "immutableReferences": {},
  "source": "// SPDX-License-Identifier: MIT\r\npragma solidity ^0.8.0;\r\n\r\ncontract WineProduction {\r\n    // 0: Creato, 1: Vendemmiato, 2: Fermentato, 3: Affinato, 4: Imbottigliato, 5: Distribuito\r\n    enum Stato { Creato, Vendemmiato, Fermentato, Affinato, Imbottigliato, Distribuito }    \r\n    \r\n    struct Lotto {\r\n        uint256 id;\r\n        string tipo;\r\n        Stato stato;\r\n        address produttore;\r\n        uint256 timestamp;\r\n    }\r\n\r\n    Lotto[] public lotti;\r\n    uint256 public nextId = 1;\r\n\r\n    event LottoCreato(uint256 id, string tipo, address produttore);\r\n    event StatoAggiornato(uint256 id, Stato nuovoStato);\r\n\r\n    function creaLotto(string memory _tipo) public {\r\n        lotti.push(Lotto(nextId, _tipo, Stato.Creato, msg.sender, block.timestamp));\r\n        emit LottoCreato(nextId, _tipo, msg.sender);\r\n        nextId++;\r\n    }\r\n\r\n    // Funzione ottimizzata per avanzare attraverso TUTTI gli stati\r\n    function avanzaStato(uint256 _index) public {\r\n        require(_index < lotti.length, \"Lotto inesistente\");\r\n        Lotto storage lotto = lotti[_index];\r\n        require(msg.sender == lotto.produttore, \"Solo il produttore puo aggiornare\");\r\n        \r\n        // Controlliamo che non sia gia nell'ultimo stato (Distribuito = 5)\r\n        require(uint(lotto.stato) < uint(Stato.Distribuito), \"Ciclo di produzione gia completato\");\r\n\r\n        // Avanzamento matematico: incrementiamo l'indice dell'enum di 1\r\n        lotto.stato = Stato(uint(lotto.stato) + 1);\r\n\r\n        emit StatoAggiornato(lotto.id, lotto.stato);\r\n    }\r\n\r\n    function getLotti() public view returns (Lotto[] memory) {\r\n        return lotti;\r\n    }\r\n}",
  "sourcePath": "C:\\Utili\\Tutto\\università\\Magistrale\\Blockchain\\vinum-veritas\\backend\\contracts\\WineProduction.sol",
  "compiler": {
    "name": "solc",
    "version": "0.8.17+commit.8df45f5f.Emscripten.clang"
  },
  "schemaVersion": "3.4.14",
  "updatedAt": "2025-12-23T16:36:22.825Z",
  "networkType": "ethereum",
  "devdoc": {
    "kind": "dev",
    "methods": {},
    "version": 1
  },
  "userdoc": {
    "kind": "user",
    "methods": {},
    "version": 1
  }
}